{
    "_format": "hh-sol-artifact-1",
    "contractName": "TradingCardMinter",
    "sourceName": "contracts/TradingCardMinter.sol",
    "abi": [
        {
            "inputs": [],
            "stateMutability": "payable",
            "type": "constructor"
        },
        {
            "anonymous": false,
            "inputs": [
                {
                    "indexed": true,
                    "internalType": "address",
                    "name": "owner",
                    "type": "address"
                },
                {
                    "indexed": true,
                    "internalType": "address",
                    "name": "approved",
                    "type": "address"
                },
                {
                    "indexed": true,
                    "internalType": "uint256",
                    "name": "tokenId",
                    "type": "uint256"
                }
            ],
            "name": "Approval",
            "type": "event"
        },
        {
            "anonymous": false,
            "inputs": [
                {
                    "indexed": true,
                    "internalType": "address",
                    "name": "owner",
                    "type": "address"
                },
                {
                    "indexed": true,
                    "internalType": "address",
                    "name": "operator",
                    "type": "address"
                },
                {
                    "indexed": false,
                    "internalType": "bool",
                    "name": "approved",
                    "type": "bool"
                }
            ],
            "name": "ApprovalForAll",
            "type": "event"
        },
        {
            "anonymous": false,
            "inputs": [
                {
                    "indexed": true,
                    "internalType": "address",
                    "name": "from",
                    "type": "address"
                },
                {
                    "indexed": true,
                    "internalType": "address",
                    "name": "to",
                    "type": "address"
                },
                {
                    "indexed": true,
                    "internalType": "uint256",
                    "name": "tokenId",
                    "type": "uint256"
                }
            ],
            "name": "Transfer",
            "type": "event"
        },
        {
            "inputs": [
                {
                    "internalType": "address",
                    "name": "to",
                    "type": "address"
                },
                {
                    "internalType": "uint256",
                    "name": "tokenId",
                    "type": "uint256"
                }
            ],
            "name": "approve",
            "outputs": [],
            "stateMutability": "nonpayable",
            "type": "function"
        },
        {
            "inputs": [
                {
                    "internalType": "address",
                    "name": "owner",
                    "type": "address"
                }
            ],
            "name": "balanceOf",
            "outputs": [
                {
                    "internalType": "uint256",
                    "name": "",
                    "type": "uint256"
                }
            ],
            "stateMutability": "view",
            "type": "function"
        },
        {
            "inputs": [
                {
                    "internalType": "uint256",
                    "name": "",
                    "type": "uint256"
                }
            ],
            "name": "cards",
            "outputs": [
                {
                    "internalType": "string",
                    "name": "name",
                    "type": "string"
                },
                {
                    "internalType": "uint256",
                    "name": "cardId",
                    "type": "uint256"
                }
            ],
            "stateMutability": "view",
            "type": "function"
        },
        {
            "inputs": [
                {
                    "internalType": "uint256",
                    "name": "tokenId",
                    "type": "uint256"
                }
            ],
            "name": "getApproved",
            "outputs": [
                {
                    "internalType": "address",
                    "name": "",
                    "type": "address"
                }
            ],
            "stateMutability": "view",
            "type": "function"
        },
        {
            "inputs": [
                {
                    "internalType": "address",
                    "name": "owner",
                    "type": "address"
                },
                {
                    "internalType": "address",
                    "name": "operator",
                    "type": "address"
                }
            ],
            "name": "isApprovedForAll",
            "outputs": [
                {
                    "internalType": "bool",
                    "name": "",
                    "type": "bool"
                }
            ],
            "stateMutability": "view",
            "type": "function"
        },
        {
            "inputs": [
                {
                    "internalType": "string",
                    "name": "_uri",
                    "type": "string"
                }
            ],
            "name": "mint",
            "outputs": [],
            "stateMutability": "payable",
            "type": "function"
        },
        {
            "inputs": [],
            "name": "mintPrice",
            "outputs": [
                {
                    "internalType": "uint256",
                    "name": "",
                    "type": "uint256"
                }
            ],
            "stateMutability": "view",
            "type": "function"
        },
        {
            "inputs": [],
            "name": "name",
            "outputs": [
                {
                    "internalType": "string",
                    "name": "",
                    "type": "string"
                }
            ],
            "stateMutability": "view",
            "type": "function"
        },
        {
            "inputs": [
                {
                    "internalType": "uint256",
                    "name": "tokenId",
                    "type": "uint256"
                }
            ],
            "name": "ownerOf",
            "outputs": [
                {
                    "internalType": "address",
                    "name": "",
                    "type": "address"
                }
            ],
            "stateMutability": "view",
            "type": "function"
        },
        {
            "inputs": [
                {
                    "internalType": "string",
                    "name": "name",
                    "type": "string"
                }
            ],
            "name": "requestNewCard",
            "outputs": [
                {
                    "internalType": "uint256",
                    "name": "",
                    "type": "uint256"
                }
            ],
            "stateMutability": "payable",
            "type": "function"
        },
        {
            "inputs": [
                {
                    "internalType": "address",
                    "name": "from",
                    "type": "address"
                },
                {
                    "internalType": "address",
                    "name": "to",
                    "type": "address"
                },
                {
                    "internalType": "uint256",
                    "name": "tokenId",
                    "type": "uint256"
                }
            ],
            "name": "safeTransferFrom",
            "outputs": [],
            "stateMutability": "nonpayable",
            "type": "function"
        },
        {
            "inputs": [
                {
                    "internalType": "address",
                    "name": "from",
                    "type": "address"
                },
                {
                    "internalType": "address",
                    "name": "to",
                    "type": "address"
                },
                {
                    "internalType": "uint256",
                    "name": "tokenId",
                    "type": "uint256"
                },
                {
                    "internalType": "bytes",
                    "name": "data",
                    "type": "bytes"
                }
            ],
            "name": "safeTransferFrom",
            "outputs": [],
            "stateMutability": "nonpayable",
            "type": "function"
        },
        {
            "inputs": [
                {
                    "internalType": "address",
                    "name": "operator",
                    "type": "address"
                },
                {
                    "internalType": "bool",
                    "name": "approved",
                    "type": "bool"
                }
            ],
            "name": "setApprovalForAll",
            "outputs": [],
            "stateMutability": "nonpayable",
            "type": "function"
        },
        {
            "inputs": [
                {
                    "internalType": "bytes4",
                    "name": "interfaceId",
                    "type": "bytes4"
                }
            ],
            "name": "supportsInterface",
            "outputs": [
                {
                    "internalType": "bool",
                    "name": "",
                    "type": "bool"
                }
            ],
            "stateMutability": "view",
            "type": "function"
        },
        {
            "inputs": [],
            "name": "symbol",
            "outputs": [
                {
                    "internalType": "string",
                    "name": "",
                    "type": "string"
                }
            ],
            "stateMutability": "view",
            "type": "function"
        },
        {
            "inputs": [
                {
                    "internalType": "uint256",
                    "name": "index",
                    "type": "uint256"
                }
            ],
            "name": "tokenByIndex",
            "outputs": [
                {
                    "internalType": "uint256",
                    "name": "",
                    "type": "uint256"
                }
            ],
            "stateMutability": "view",
            "type": "function"
        },
        {
            "inputs": [
                {
                    "internalType": "address",
                    "name": "owner",
                    "type": "address"
                },
                {
                    "internalType": "uint256",
                    "name": "index",
                    "type": "uint256"
                }
            ],
            "name": "tokenOfOwnerByIndex",
            "outputs": [
                {
                    "internalType": "uint256",
                    "name": "",
                    "type": "uint256"
                }
            ],
            "stateMutability": "view",
            "type": "function"
        },
        {
            "inputs": [
                {
                    "internalType": "uint256",
                    "name": "tokenId",
                    "type": "uint256"
                }
            ],
            "name": "tokenURI",
            "outputs": [
                {
                    "internalType": "string",
                    "name": "",
                    "type": "string"
                }
            ],
            "stateMutability": "view",
            "type": "function"
        },
        {
            "inputs": [],
            "name": "totalSupply",
            "outputs": [
                {
                    "internalType": "uint256",
                    "name": "",
                    "type": "uint256"
                }
            ],
            "stateMutability": "view",
            "type": "function"
        },
        {
            "inputs": [
                {
                    "internalType": "address",
                    "name": "from",
                    "type": "address"
                },
                {
                    "internalType": "address",
                    "name": "to",
                    "type": "address"
                },
                {
                    "internalType": "uint256",
                    "name": "tokenId",
                    "type": "uint256"
                }
            ],
            "name": "transferFrom",
            "outputs": [],
            "stateMutability": "nonpayable",
            "type": "function"
        }
    ],
    "bytecode": "0x608060405267016345785d8a0000600e556040518060400160405280601481526020017f4d65746176657273654d617968656d43617264730000000000000000000000008152506040518060400160405280600381526020017f4d4d540000000000000000000000000000000000000000000000000000000000815250816000908051906020019062000094929190620000b6565b508060019080519060200190620000ad929190620000b6565b505050620001cb565b828054620000c49062000166565b90600052602060002090601f016020900481019282620000e8576000855562000134565b82601f106200010357805160ff191683800117855562000134565b8280016001018555821562000134579182015b828111156200013357825182559160200191906001019062000116565b5b50905062000143919062000147565b5090565b5b808211156200016257600081600090555060010162000148565b5090565b600060028204905060018216806200017f57607f821691505b602082108114156200019657620001956200019c565b5b50919050565b7f4e487b7100000000000000000000000000000000000000000000000000000000600052602260045260246000fd5b61364180620001db6000396000f3fe60806040526004361061011f5760003560e01c80636352211e116100a0578063a22cb46511610064578063a22cb46514610427578063b88d4fde14610450578063c87b56dd14610479578063d85d3d27146104b6578063e985e9c5146104d25761011f565b80636352211e146103195780636817c76c1461035657806370a08231146103815780638dc10768146103be57806395d89b41146103fc5761011f565b806323b872dd116100e757806323b872dd1461021d5780632f745c59146102465780633477b4081461028357806342842e0e146102b35780634f6ccce7146102dc5761011f565b806301ffc9a71461012457806306fdde0314610161578063081812fc1461018c578063095ea7b3146101c957806318160ddd146101f2575b600080fd5b34801561013057600080fd5b5061014b6004803603810190610146919061272e565b61050f565b6040516101589190612bbd565b60405180910390f35b34801561016d57600080fd5b50610176610521565b6040516101839190612bd8565b60405180910390f35b34801561019857600080fd5b506101b360048036038101906101ae91906127c1565b6105b3565b6040516101c09190612b56565b60405180910390f35b3480156101d557600080fd5b506101f060048036038101906101eb91906126f2565b6105f9565b005b3480156101fe57600080fd5b50610207610711565b6040516102149190612e0a565b60405180910390f35b34801561022957600080fd5b50610244600480360381019061023f91906125ec565b61071e565b005b34801561025257600080fd5b5061026d600480360381019061026891906126f2565b61077e565b60405161027a9190612e0a565b60405180910390f35b61029d60048036038101906102989190612780565b610823565b6040516102aa9190612e0a565b60405180910390f35b3480156102bf57600080fd5b506102da60048036038101906102d591906125ec565b610900565b005b3480156102e857600080fd5b5061030360048036038101906102fe91906127c1565b610920565b6040516103109190612e0a565b60405180910390f35b34801561032557600080fd5b50610340600480360381019061033b91906127c1565b6109b7565b60405161034d9190612b56565b60405180910390f35b34801561036257600080fd5b5061036b610a3e565b6040516103789190612e0a565b60405180910390f35b34801561038d57600080fd5b506103a860048036038101906103a39190612587565b610a43565b6040516103b59190612e0a565b60405180910390f35b3480156103ca57600080fd5b506103e560048036038101906103e091906127c1565b610afb565b6040516103f3929190612bfa565b60405180910390f35b34801561040857600080fd5b50610411610bb7565b60405161041e9190612bd8565b60405180910390f35b34801561043357600080fd5b5061044e600480360381019061044991906126b6565b610c49565b005b34801561045c57600080fd5b506104776004803603810190610472919061263b565b610c5f565b005b34801561048557600080fd5b506104a0600480360381019061049b91906127c1565b610cc1565b6040516104ad9190612bd8565b60405180910390f35b6104d060048036038101906104cb9190612780565b610cd3565b005b3480156104de57600080fd5b506104f960048036038101906104f491906125b0565b610ced565b6040516105069190612bbd565b60405180910390f35b600061051a82610d81565b9050919050565b6060600080546105309061300a565b80601f016020809104026020016040519081016040528092919081815260200182805461055c9061300a565b80156105a95780601f1061057e576101008083540402835291602001916105a9565b820191906000526020600020905b81548152906001019060200180831161058c57829003601f168201915b5050505050905090565b60006105be82610dfb565b6004600083815260200190815260200160002060009054906101000a900473ffffffffffffffffffffffffffffffffffffffff169050919050565b6000610604826109b7565b90508073ffffffffffffffffffffffffffffffffffffffff168373ffffffffffffffffffffffffffffffffffffffff161415610675576040517f08c379a000000000000000000000000000000000000000000000000000000000815260040161066c90612d8a565b60405180910390fd5b8073ffffffffffffffffffffffffffffffffffffffff16610694610e46565b73ffffffffffffffffffffffffffffffffffffffff1614806106c357506106c2816106bd610e46565b610ced565b5b610702576040517f08c379a00000000000000000000000000000000000000000000000000000000081526004016106f990612daa565b60405180910390fd5b61070c8383610e4e565b505050565b6000600880549050905090565b61072f610729610e46565b82610f07565b61076e576040517f08c379a000000000000000000000000000000000000000000000000000000000815260040161076590612c2a565b60405180910390fd5b610779838383610f9c565b505050565b600061078983610a43565b82106107ca576040517f08c379a00000000000000000000000000000000000000000000000000000000081526004016107c190612c4a565b60405180910390fd5b600660008473ffffffffffffffffffffffffffffffffffffffff1673ffffffffffffffffffffffffffffffffffffffff168152602001908152602001600020600083815260200190815260200160002054905092915050565b6000600e5447101561086a576040517f08c379a000000000000000000000000000000000000000000000000000000000815260040161086190612cca565b60405180910390fd5b6000600a8054905090506000610881603233611296565b9050600a604051806040016040528086815260200183815250908060018154018082558091505060019003906000526020600020906002020160009091909190915060008201518160000190805190602001906108df9291906123ab565b506020820151816001015550506108f633836112f7565b8192505050919050565b61091b83838360405180602001604052806000815250610c5f565b505050565b600061092a610711565b821061096b576040517f08c379a000000000000000000000000000000000000000000000000000000000815260040161096290612dca565b60405180910390fd5b600882815481106109a5577f4e487b7100000000000000000000000000000000000000000000000000000000600052603260045260246000fd5b90600052602060002001549050919050565b6000806109c383611315565b9050600073ffffffffffffffffffffffffffffffffffffffff168173ffffffffffffffffffffffffffffffffffffffff161415610a35576040517f08c379a0000000000000000000000000000000000000000000000000000000008152600401610a2c90612d6a565b60405180910390fd5b80915050919050565b600081565b60008073ffffffffffffffffffffffffffffffffffffffff168273ffffffffffffffffffffffffffffffffffffffff161415610ab4576040517f08c379a0000000000000000000000000000000000000000000000000000000008152600401610aab90612d2a565b60405180910390fd5b600360008373ffffffffffffffffffffffffffffffffffffffff1673ffffffffffffffffffffffffffffffffffffffff168152602001908152602001600020549050919050565b600a8181548110610b0b57600080fd5b9060005260206000209060020201600091509050806000018054610b2e9061300a565b80601f0160208091040260200160405190810160405280929190818152602001828054610b5a9061300a565b8015610ba75780601f10610b7c57610100808354040283529160200191610ba7565b820191906000526020600020905b815481529060010190602001808311610b8a57829003601f168201915b5050505050908060010154905082565b606060018054610bc69061300a565b80601f0160208091040260200160405190810160405280929190818152602001828054610bf29061300a565b8015610c3f5780601f10610c1457610100808354040283529160200191610c3f565b820191906000526020600020905b815481529060010190602001808311610c2257829003601f168201915b5050505050905090565b610c5b610c54610e46565b8383611352565b5050565b610c70610c6a610e46565b83610f07565b610caf576040517f08c379a0000000000000000000000000000000000000000000000000000000008152600401610ca690612c2a565b60405180910390fd5b610cbb848484846114bf565b50505050565b6060610ccc8261151b565b9050919050565b6000610cdd610711565b9050610ce933826112f7565b5050565b6000600560008473ffffffffffffffffffffffffffffffffffffffff1673ffffffffffffffffffffffffffffffffffffffff16815260200190815260200160002060008373ffffffffffffffffffffffffffffffffffffffff1673ffffffffffffffffffffffffffffffffffffffff16815260200190815260200160002060009054906101000a900460ff16905092915050565b60007f780e9d63000000000000000000000000000000000000000000000000000000007bffffffffffffffffffffffffffffffffffffffffffffffffffffffff1916827bffffffffffffffffffffffffffffffffffffffffffffffffffffffff19161480610df45750610df382611583565b5b9050919050565b610e0481611665565b610e43576040517f08c379a0000000000000000000000000000000000000000000000000000000008152600401610e3a90612d6a565b60405180910390fd5b50565b600033905090565b816004600083815260200190815260200160002060006101000a81548173ffffffffffffffffffffffffffffffffffffffff021916908373ffffffffffffffffffffffffffffffffffffffff160217905550808273ffffffffffffffffffffffffffffffffffffffff16610ec1836109b7565b73ffffffffffffffffffffffffffffffffffffffff167f8c5be1e5ebec7d5bd14f71427d1e84f3dd0314c0f7b2291e5b200ac8c7c3b92560405160405180910390a45050565b600080610f13836109b7565b90508073ffffffffffffffffffffffffffffffffffffffff168473ffffffffffffffffffffffffffffffffffffffff161480610f555750610f548185610ced565b5b80610f9357508373ffffffffffffffffffffffffffffffffffffffff16610f7b846105b3565b73ffffffffffffffffffffffffffffffffffffffff16145b91505092915050565b8273ffffffffffffffffffffffffffffffffffffffff16610fbc826109b7565b73ffffffffffffffffffffffffffffffffffffffff1614611012576040517f08c379a000000000000000000000000000000000000000000000000000000000815260040161100990612c8a565b60405180910390fd5b600073ffffffffffffffffffffffffffffffffffffffff168273ffffffffffffffffffffffffffffffffffffffff161415611082576040517f08c379a000000000000000000000000000000000000000000000000000000000815260040161107990612cea565b60405180910390fd5b61108f83838360016116a6565b8273ffffffffffffffffffffffffffffffffffffffff166110af826109b7565b73ffffffffffffffffffffffffffffffffffffffff1614611105576040517f08c379a00000000000000000000000000000000000000000000000000000000081526004016110fc90612c8a565b60405180910390fd5b6004600082815260200190815260200160002060006101000a81549073ffffffffffffffffffffffffffffffffffffffff02191690556001600360008573ffffffffffffffffffffffffffffffffffffffff1673ffffffffffffffffffffffffffffffffffffffff168152602001908152602001600020600082825403925050819055506001600360008473ffffffffffffffffffffffffffffffffffffffff1673ffffffffffffffffffffffffffffffffffffffff16815260200190815260200160002060008282540192505081905550816002600083815260200190815260200160002060006101000a81548173ffffffffffffffffffffffffffffffffffffffff021916908373ffffffffffffffffffffffffffffffffffffffff160217905550808273ffffffffffffffffffffffffffffffffffffffff168473ffffffffffffffffffffffffffffffffffffffff167fddf252ad1be2c89b69c2b068fc378daa952ba7f163c4a11628f55a4df523b3ef60405160405180910390a461129183838360016116b8565b505050565b6000804442846040516020016112ae93929190612b19565b6040516020818303038152906040528051906020012060001c905083816112d5919061309b565b915060008214156112f0576002846112ed9190612eef565b91505b5092915050565b6113118282604051806020016040528060008152506116be565b5050565b60006002600083815260200190815260200160002060009054906101000a900473ffffffffffffffffffffffffffffffffffffffff169050919050565b8173ffffffffffffffffffffffffffffffffffffffff168373ffffffffffffffffffffffffffffffffffffffff1614156113c1576040517f08c379a00000000000000000000000000000000000000000000000000000000081526004016113b890612d0a565b60405180910390fd5b80600560008573ffffffffffffffffffffffffffffffffffffffff1673ffffffffffffffffffffffffffffffffffffffff16815260200190815260200160002060008473ffffffffffffffffffffffffffffffffffffffff1673ffffffffffffffffffffffffffffffffffffffff16815260200190815260200160002060006101000a81548160ff0219169083151502179055508173ffffffffffffffffffffffffffffffffffffffff168373ffffffffffffffffffffffffffffffffffffffff167f17307eab39ab6107e8899845ad3d59bd9653f200f220920489ca2b5937696c31836040516114b29190612bbd565b60405180910390a3505050565b6114ca848484610f9c565b6114d684848484611719565b611515576040517f08c379a000000000000000000000000000000000000000000000000000000000815260040161150c90612c6a565b60405180910390fd5b50505050565b606061152682610dfb565b60006115306118b0565b90506000815111611550576040518060200160405280600081525061157b565b8061155a846118c7565b60405160200161156b929190612af5565b6040516020818303038152906040525b915050919050565b60007f80ac58cd000000000000000000000000000000000000000000000000000000007bffffffffffffffffffffffffffffffffffffffffffffffffffffffff1916827bffffffffffffffffffffffffffffffffffffffffffffffffffffffff1916148061164e57507f5b5e139f000000000000000000000000000000000000000000000000000000007bffffffffffffffffffffffffffffffffffffffffffffffffffffffff1916827bffffffffffffffffffffffffffffffffffffffffffffffffffffffff1916145b8061165e575061165d826119eb565b5b9050919050565b60008073ffffffffffffffffffffffffffffffffffffffff1661168783611315565b73ffffffffffffffffffffffffffffffffffffffff1614159050919050565b6116b284848484611a55565b50505050565b50505050565b6116c88383611bb5565b6116d56000848484611719565b611714576040517f08c379a000000000000000000000000000000000000000000000000000000000815260040161170b90612c6a565b60405180910390fd5b505050565b600061173a8473ffffffffffffffffffffffffffffffffffffffff16611dd3565b156118a3578373ffffffffffffffffffffffffffffffffffffffff1663150b7a02611763610e46565b8786866040518563ffffffff1660e01b81526004016117859493929190612b71565b602060405180830381600087803b15801561179f57600080fd5b505af19250505080156117d057506040513d601f19601f820116820180604052508101906117cd9190612757565b60015b611853573d8060008114611800576040519150601f19603f3d011682016040523d82523d6000602084013e611805565b606091505b5060008151141561184b576040517f08c379a000000000000000000000000000000000000000000000000000000000815260040161184290612c6a565b60405180910390fd5b805181602001fd5b63150b7a0260e01b7bffffffffffffffffffffffffffffffffffffffffffffffffffffffff1916817bffffffffffffffffffffffffffffffffffffffffffffffffffffffff1916149150506118a8565b600190505b949350505050565b606060405180602001604052806000815250905090565b6060600060016118d684611df6565b01905060008167ffffffffffffffff81111561191b577f4e487b7100000000000000000000000000000000000000000000000000000000600052604160045260246000fd5b6040519080825280601f01601f19166020018201604052801561194d5781602001600182028036833780820191505090505b509050600082602001820190505b6001156119e0578080600190039150507f3031323334353637383961626364656600000000000000000000000000000000600a86061a8153600a85816119ca577f4e487b7100000000000000000000000000000000000000000000000000000000600052601260045260246000fd5b04945060008514156119db576119e0565b61195b565b819350505050919050565b60007f01ffc9a7000000000000000000000000000000000000000000000000000000007bffffffffffffffffffffffffffffffffffffffffffffffffffffffff1916827bffffffffffffffffffffffffffffffffffffffffffffffffffffffff1916149050919050565b611a618484848461202d565b6001811115611aa5576040517f08c379a0000000000000000000000000000000000000000000000000000000008152600401611a9c90612dea565b60405180910390fd5b6000829050600073ffffffffffffffffffffffffffffffffffffffff168573ffffffffffffffffffffffffffffffffffffffff161415611aed57611ae881612033565b611b2c565b8373ffffffffffffffffffffffffffffffffffffffff168573ffffffffffffffffffffffffffffffffffffffff1614611b2b57611b2a858261207c565b5b5b600073ffffffffffffffffffffffffffffffffffffffff168473ffffffffffffffffffffffffffffffffffffffff161415611b6f57611b6a816121e9565b611bae565b8473ffffffffffffffffffffffffffffffffffffffff168473ffffffffffffffffffffffffffffffffffffffff1614611bad57611bac848261232c565b5b5b5050505050565b600073ffffffffffffffffffffffffffffffffffffffff168273ffffffffffffffffffffffffffffffffffffffff161415611c25576040517f08c379a0000000000000000000000000000000000000000000000000000000008152600401611c1c90612d4a565b60405180910390fd5b611c2e81611665565b15611c6e576040517f08c379a0000000000000000000000000000000000000000000000000000000008152600401611c6590612caa565b60405180910390fd5b611c7c6000838360016116a6565b611c8581611665565b15611cc5576040517f08c379a0000000000000000000000000000000000000000000000000000000008152600401611cbc90612caa565b60405180910390fd5b6001600360008473ffffffffffffffffffffffffffffffffffffffff1673ffffffffffffffffffffffffffffffffffffffff16815260200190815260200160002060008282540192505081905550816002600083815260200190815260200160002060006101000a81548173ffffffffffffffffffffffffffffffffffffffff021916908373ffffffffffffffffffffffffffffffffffffffff160217905550808273ffffffffffffffffffffffffffffffffffffffff16600073ffffffffffffffffffffffffffffffffffffffff167fddf252ad1be2c89b69c2b068fc378daa952ba7f163c4a11628f55a4df523b3ef60405160405180910390a4611dcf6000838360016116b8565b5050565b6000808273ffffffffffffffffffffffffffffffffffffffff163b119050919050565b600080600090507a184f03e93ff9f4daa797ed6e38ed64bf6a1f0100000000000000008310611e7a577a184f03e93ff9f4daa797ed6e38ed64bf6a1f0100000000000000008381611e70577f4e487b7100000000000000000000000000000000000000000000000000000000600052601260045260246000fd5b0492506040810190505b6d04ee2d6d415b85acef81000000008310611edd576d04ee2d6d415b85acef81000000008381611ed3577f4e487b7100000000000000000000000000000000000000000000000000000000600052601260045260246000fd5b0492506020810190505b662386f26fc100008310611f3257662386f26fc100008381611f28577f4e487b7100000000000000000000000000000000000000000000000000000000600052601260045260246000fd5b0492506010810190505b6305f5e1008310611f81576305f5e1008381611f77577f4e487b7100000000000000000000000000000000000000000000000000000000600052601260045260246000fd5b0492506008810190505b6127108310611fcc576127108381611fc2577f4e487b7100000000000000000000000000000000000000000000000000000000600052601260045260246000fd5b0492506004810190505b60648310612015576064838161200b577f4e487b7100000000000000000000000000000000000000000000000000000000600052601260045260246000fd5b0492506002810190505b600a8310612024576001810190505b80915050919050565b50505050565b6008805490506009600083815260200190815260200160002081905550600881908060018154018082558091505060019003906000526020600020016000909190919091505550565b6000600161208984610a43565b6120939190612f20565b9050600060076000848152602001908152602001600020549050818114612178576000600660008673ffffffffffffffffffffffffffffffffffffffff1673ffffffffffffffffffffffffffffffffffffffff168152602001908152602001600020600084815260200190815260200160002054905080600660008773ffffffffffffffffffffffffffffffffffffffff1673ffffffffffffffffffffffffffffffffffffffff168152602001908152602001600020600084815260200190815260200160002081905550816007600083815260200190815260200160002081905550505b6007600084815260200190815260200160002060009055600660008573ffffffffffffffffffffffffffffffffffffffff1673ffffffffffffffffffffffffffffffffffffffff16815260200190815260200160002060008381526020019081526020016000206000905550505050565b600060016008805490506121fd9190612f20565b9050600060096000848152602001908152602001600020549050600060088381548110612253577f4e487b7100000000000000000000000000000000000000000000000000000000600052603260045260246000fd5b90600052602060002001549050806008838154811061229b577f4e487b7100000000000000000000000000000000000000000000000000000000600052603260045260246000fd5b906000526020600020018190555081600960008381526020019081526020016000208190555060096000858152602001908152602001600020600090556008805480612310577f4e487b7100000000000000000000000000000000000000000000000000000000600052603160045260246000fd5b6001900381819060005260206000200160009055905550505050565b600061233783610a43565b905081600660008573ffffffffffffffffffffffffffffffffffffffff1673ffffffffffffffffffffffffffffffffffffffff168152602001908152602001600020600083815260200190815260200160002081905550806007600084815260200190815260200160002081905550505050565b8280546123b79061300a565b90600052602060002090601f0160209004810192826123d95760008555612420565b82601f106123f257805160ff1916838001178555612420565b82800160010185558215612420579182015b8281111561241f578251825591602001919060010190612404565b5b50905061242d9190612431565b5090565b5b8082111561244a576000816000905550600101612432565b5090565b600061246161245c84612e4a565b612e25565b90508281526020810184848401111561247957600080fd5b612484848285612fc8565b509392505050565b600061249f61249a84612e7b565b612e25565b9050828152602081018484840111156124b757600080fd5b6124c2848285612fc8565b509392505050565b6000813590506124d9816135af565b92915050565b6000813590506124ee816135c6565b92915050565b600081359050612503816135dd565b92915050565b600081519050612518816135dd565b92915050565b600082601f83011261252f57600080fd5b813561253f84826020860161244e565b91505092915050565b600082601f83011261255957600080fd5b813561256984826020860161248c565b91505092915050565b600081359050612581816135f4565b92915050565b60006020828403121561259957600080fd5b60006125a7848285016124ca565b91505092915050565b600080604083850312156125c357600080fd5b60006125d1858286016124ca565b92505060206125e2858286016124ca565b9150509250929050565b60008060006060848603121561260157600080fd5b600061260f868287016124ca565b9350506020612620868287016124ca565b925050604061263186828701612572565b9150509250925092565b6000806000806080858703121561265157600080fd5b600061265f878288016124ca565b9450506020612670878288016124ca565b935050604061268187828801612572565b925050606085013567ffffffffffffffff81111561269e57600080fd5b6126aa8782880161251e565b91505092959194509250565b600080604083850312156126c957600080fd5b60006126d7858286016124ca565b92505060206126e8858286016124df565b9150509250929050565b6000806040838503121561270557600080fd5b6000612713858286016124ca565b925050602061272485828601612572565b9150509250929050565b60006020828403121561274057600080fd5b600061274e848285016124f4565b91505092915050565b60006020828403121561276957600080fd5b600061277784828501612509565b91505092915050565b60006020828403121561279257600080fd5b600082013567ffffffffffffffff8111156127ac57600080fd5b6127b884828501612548565b91505092915050565b6000602082840312156127d357600080fd5b60006127e184828501612572565b91505092915050565b6127f381612f54565b82525050565b61280a61280582612f54565b61306d565b82525050565b61281981612f66565b82525050565b600061282a82612eac565b6128348185612ec2565b9350612844818560208601612fd7565b61284d81613188565b840191505092915050565b600061286382612eb7565b61286d8185612ed3565b935061287d818560208601612fd7565b61288681613188565b840191505092915050565b600061289c82612eb7565b6128a68185612ee4565b93506128b6818560208601612fd7565b80840191505092915050565b60006128cf602d83612ed3565b91506128da826131a6565b604082019050919050565b60006128f2602b83612ed3565b91506128fd826131f5565b604082019050919050565b6000612915603283612ed3565b915061292082613244565b604082019050919050565b6000612938602583612ed3565b915061294382613293565b604082019050919050565b600061295b601c83612ed3565b9150612966826132e2565b602082019050919050565b600061297e602983612ed3565b91506129898261330b565b604082019050919050565b60006129a1602483612ed3565b91506129ac8261335a565b604082019050919050565b60006129c4601983612ed3565b91506129cf826133a9565b602082019050919050565b60006129e7602983612ed3565b91506129f2826133d2565b604082019050919050565b6000612a0a602083612ed3565b9150612a1582613421565b602082019050919050565b6000612a2d601883612ed3565b9150612a388261344a565b602082019050919050565b6000612a50602183612ed3565b9150612a5b82613473565b604082019050919050565b6000612a73603d83612ed3565b9150612a7e826134c2565b604082019050919050565b6000612a96602c83612ed3565b9150612aa182613511565b604082019050919050565b6000612ab9603583612ed3565b9150612ac482613560565b604082019050919050565b612ad881612fbe565b82525050565b612aef612aea82612fbe565b613091565b82525050565b6000612b018285612891565b9150612b0d8284612891565b91508190509392505050565b6000612b258286612ade565b602082019150612b358285612ade565b602082019150612b4582846127f9565b601482019150819050949350505050565b6000602082019050612b6b60008301846127ea565b92915050565b6000608082019050612b8660008301876127ea565b612b9360208301866127ea565b612ba06040830185612acf565b8181036060830152612bb2818461281f565b905095945050505050565b6000602082019050612bd26000830184612810565b92915050565b60006020820190508181036000830152612bf28184612858565b905092915050565b60006040820190508181036000830152612c148185612858565b9050612c236020830184612acf565b9392505050565b60006020820190508181036000830152612c43816128c2565b9050919050565b60006020820190508181036000830152612c63816128e5565b9050919050565b60006020820190508181036000830152612c8381612908565b9050919050565b60006020820190508181036000830152612ca38161292b565b9050919050565b60006020820190508181036000830152612cc38161294e565b9050919050565b60006020820190508181036000830152612ce381612971565b9050919050565b60006020820190508181036000830152612d0381612994565b9050919050565b60006020820190508181036000830152612d23816129b7565b9050919050565b60006020820190508181036000830152612d43816129da565b9050919050565b60006020820190508181036000830152612d63816129fd565b9050919050565b60006020820190508181036000830152612d8381612a20565b9050919050565b60006020820190508181036000830152612da381612a43565b9050919050565b60006020820190508181036000830152612dc381612a66565b9050919050565b60006020820190508181036000830152612de381612a89565b9050919050565b60006020820190508181036000830152612e0381612aac565b9050919050565b6000602082019050612e1f6000830184612acf565b92915050565b6000612e2f612e40565b9050612e3b828261303c565b919050565b6000604051905090565b600067ffffffffffffffff821115612e6557612e64613159565b5b612e6e82613188565b9050602081019050919050565b600067ffffffffffffffff821115612e9657612e95613159565b5b612e9f82613188565b9050602081019050919050565b600081519050919050565b600081519050919050565b600082825260208201905092915050565b600082825260208201905092915050565b600081905092915050565b6000612efa82612fbe565b9150612f0583612fbe565b925082612f1557612f146130fb565b5b828204905092915050565b6000612f2b82612fbe565b9150612f3683612fbe565b925082821015612f4957612f486130cc565b5b828203905092915050565b6000612f5f82612f9e565b9050919050565b60008115159050919050565b60007fffffffff0000000000000000000000000000000000000000000000000000000082169050919050565b600073ffffffffffffffffffffffffffffffffffffffff82169050919050565b6000819050919050565b82818337600083830152505050565b60005b83811015612ff5578082015181840152602081019050612fda565b83811115613004576000848401525b50505050565b6000600282049050600182168061302257607f821691505b602082108114156130365761303561312a565b5b50919050565b61304582613188565b810181811067ffffffffffffffff8211171561306457613063613159565b5b80604052505050565b60006130788261307f565b9050919050565b600061308a82613199565b9050919050565b6000819050919050565b60006130a682612fbe565b91506130b183612fbe565b9250826130c1576130c06130fb565b5b828206905092915050565b7f4e487b7100000000000000000000000000000000000000000000000000000000600052601160045260246000fd5b7f4e487b7100000000000000000000000000000000000000000000000000000000600052601260045260246000fd5b7f4e487b7100000000000000000000000000000000000000000000000000000000600052602260045260246000fd5b7f4e487b7100000000000000000000000000000000000000000000000000000000600052604160045260246000fd5b6000601f19601f8301169050919050565b60008160601b9050919050565b7f4552433732313a2063616c6c6572206973206e6f7420746f6b656e206f776e6560008201527f72206f7220617070726f76656400000000000000000000000000000000000000602082015250565b7f455243373231456e756d657261626c653a206f776e657220696e646578206f7560008201527f74206f6620626f756e6473000000000000000000000000000000000000000000602082015250565b7f4552433732313a207472616e7366657220746f206e6f6e20455243373231526560008201527f63656976657220696d706c656d656e7465720000000000000000000000000000602082015250565b7f4552433732313a207472616e736665722066726f6d20696e636f72726563742060008201527f6f776e6572000000000000000000000000000000000000000000000000000000602082015250565b7f4552433732313a20746f6b656e20616c7265616479206d696e74656400000000600082015250565b7f496e73756666696369656e7420455448202d2066696c6c20636f6e747261637460008201527f2077697468204554480000000000000000000000000000000000000000000000602082015250565b7f4552433732313a207472616e7366657220746f20746865207a65726f2061646460008201527f7265737300000000000000000000000000000000000000000000000000000000602082015250565b7f4552433732313a20617070726f766520746f2063616c6c657200000000000000600082015250565b7f4552433732313a2061646472657373207a65726f206973206e6f74206120766160008201527f6c6964206f776e65720000000000000000000000000000000000000000000000602082015250565b7f4552433732313a206d696e7420746f20746865207a65726f2061646472657373600082015250565b7f4552433732313a20696e76616c696420746f6b656e2049440000000000000000600082015250565b7f4552433732313a20617070726f76616c20746f2063757272656e74206f776e6560008201527f7200000000000000000000000000000000000000000000000000000000000000602082015250565b7f4552433732313a20617070726f76652063616c6c6572206973206e6f7420746f60008201527f6b656e206f776e6572206f7220617070726f76656420666f7220616c6c000000602082015250565b7f455243373231456e756d657261626c653a20676c6f62616c20696e646578206f60008201527f7574206f6620626f756e64730000000000000000000000000000000000000000602082015250565b7f455243373231456e756d657261626c653a20636f6e736563757469766520747260008201527f616e7366657273206e6f7420737570706f727465640000000000000000000000602082015250565b6135b881612f54565b81146135c357600080fd5b50565b6135cf81612f66565b81146135da57600080fd5b50565b6135e681612f72565b81146135f157600080fd5b50565b6135fd81612fbe565b811461360857600080fd5b5056fea2646970667358221220fcfa2faeb0e8c866e692e8b95fb0105f7d537c47901a4dccf968f234699daabc64736f6c63430008040033",
    "linkReferences": {},
    "deployedLinkReferences": {}
}