{
  "_format": "hh-sol-artifact-1",
  "contractName": "TradingCardMinter",
  "sourceName": "contracts/TradingCardMinter.sol",
  "abi": [
    {
      "inputs": [],
      "stateMutability": "payable",
      "type": "constructor"
    },
    {
      "anonymous": false,
      "inputs": [
        {
          "indexed": true,
          "internalType": "address",
          "name": "owner",
          "type": "address"
        },
        {
          "indexed": true,
          "internalType": "address",
          "name": "approved",
          "type": "address"
        },
        {
          "indexed": true,
          "internalType": "uint256",
          "name": "tokenId",
          "type": "uint256"
        }
      ],
      "name": "Approval",
      "type": "event"
    },
    {
      "anonymous": false,
      "inputs": [
        {
          "indexed": true,
          "internalType": "address",
          "name": "owner",
          "type": "address"
        },
        {
          "indexed": true,
          "internalType": "address",
          "name": "operator",
          "type": "address"
        },
        {
          "indexed": false,
          "internalType": "bool",
          "name": "approved",
          "type": "bool"
        }
      ],
      "name": "ApprovalForAll",
      "type": "event"
    },
    {
      "anonymous": false,
      "inputs": [
        {
          "indexed": true,
          "internalType": "address",
          "name": "from",
          "type": "address"
        },
        {
          "indexed": true,
          "internalType": "address",
          "name": "to",
          "type": "address"
        },
        {
          "indexed": true,
          "internalType": "uint256",
          "name": "tokenId",
          "type": "uint256"
        }
      ],
      "name": "Transfer",
      "type": "event"
    },
    {
      "inputs": [
        {
          "internalType": "address",
          "name": "to",
          "type": "address"
        },
        {
          "internalType": "uint256",
          "name": "tokenId",
          "type": "uint256"
        }
      ],
      "name": "approve",
      "outputs": [],
      "stateMutability": "nonpayable",
      "type": "function"
    },
    {
      "inputs": [
        {
          "internalType": "address",
          "name": "owner",
          "type": "address"
        }
      ],
      "name": "balanceOf",
      "outputs": [
        {
          "internalType": "uint256",
          "name": "",
          "type": "uint256"
        }
      ],
      "stateMutability": "view",
      "type": "function"
    },
    {
      "inputs": [
        {
          "internalType": "string",
          "name": "name",
          "type": "string"
        }
      ],
      "name": "buyCardPack",
      "outputs": [],
      "stateMutability": "payable",
      "type": "function"
    },
    {
      "inputs": [
        {
          "internalType": "uint256",
          "name": "",
          "type": "uint256"
        }
      ],
      "name": "cards",
      "outputs": [
        {
          "internalType": "string",
          "name": "name",
          "type": "string"
        },
        {
          "internalType": "uint256",
          "name": "cardId",
          "type": "uint256"
        },
        {
          "internalType": "uint256",
          "name": "attack",
          "type": "uint256"
        },
        {
          "internalType": "uint256",
          "name": "health",
          "type": "uint256"
        },
        {
          "internalType": "uint256",
          "name": "defense",
          "type": "uint256"
        },
        {
          "internalType": "string",
          "name": "rarity",
          "type": "string"
        }
      ],
      "stateMutability": "view",
      "type": "function"
    },
    {
      "inputs": [
        {
          "internalType": "uint256",
          "name": "tokenId",
          "type": "uint256"
        }
      ],
      "name": "getApproved",
      "outputs": [
        {
          "internalType": "address",
          "name": "",
          "type": "address"
        }
      ],
      "stateMutability": "view",
      "type": "function"
    },
    {
      "inputs": [
        {
          "internalType": "address",
          "name": "owner",
          "type": "address"
        },
        {
          "internalType": "address",
          "name": "operator",
          "type": "address"
        }
      ],
      "name": "isApprovedForAll",
      "outputs": [
        {
          "internalType": "bool",
          "name": "",
          "type": "bool"
        }
      ],
      "stateMutability": "view",
      "type": "function"
    },
    {
      "inputs": [
        {
          "internalType": "string",
          "name": "_uri",
          "type": "string"
        }
      ],
      "name": "mint",
      "outputs": [],
      "stateMutability": "payable",
      "type": "function"
    },
    {
      "inputs": [],
      "name": "mintPrice",
      "outputs": [
        {
          "internalType": "uint256",
          "name": "",
          "type": "uint256"
        }
      ],
      "stateMutability": "view",
      "type": "function"
    },
    {
      "inputs": [],
      "name": "name",
      "outputs": [
        {
          "internalType": "string",
          "name": "",
          "type": "string"
        }
      ],
      "stateMutability": "view",
      "type": "function"
    },
    {
      "inputs": [
        {
          "internalType": "uint256",
          "name": "tokenId",
          "type": "uint256"
        }
      ],
      "name": "ownerOf",
      "outputs": [
        {
          "internalType": "address",
          "name": "",
          "type": "address"
        }
      ],
      "stateMutability": "view",
      "type": "function"
    },
    {
      "inputs": [
        {
          "internalType": "string",
          "name": "name",
          "type": "string"
        }
      ],
      "name": "requestNewCard",
      "outputs": [
        {
          "internalType": "uint256",
          "name": "",
          "type": "uint256"
        }
      ],
      "stateMutability": "payable",
      "type": "function"
    },
    {
      "inputs": [
        {
          "internalType": "address",
          "name": "from",
          "type": "address"
        },
        {
          "internalType": "address",
          "name": "to",
          "type": "address"
        },
        {
          "internalType": "uint256",
          "name": "tokenId",
          "type": "uint256"
        }
      ],
      "name": "safeTransferFrom",
      "outputs": [],
      "stateMutability": "nonpayable",
      "type": "function"
    },
    {
      "inputs": [
        {
          "internalType": "address",
          "name": "from",
          "type": "address"
        },
        {
          "internalType": "address",
          "name": "to",
          "type": "address"
        },
        {
          "internalType": "uint256",
          "name": "tokenId",
          "type": "uint256"
        },
        {
          "internalType": "bytes",
          "name": "data",
          "type": "bytes"
        }
      ],
      "name": "safeTransferFrom",
      "outputs": [],
      "stateMutability": "nonpayable",
      "type": "function"
    },
    {
      "inputs": [
        {
          "internalType": "address",
          "name": "operator",
          "type": "address"
        },
        {
          "internalType": "bool",
          "name": "approved",
          "type": "bool"
        }
      ],
      "name": "setApprovalForAll",
      "outputs": [],
      "stateMutability": "nonpayable",
      "type": "function"
    },
    {
      "inputs": [
        {
          "internalType": "bytes4",
          "name": "interfaceId",
          "type": "bytes4"
        }
      ],
      "name": "supportsInterface",
      "outputs": [
        {
          "internalType": "bool",
          "name": "",
          "type": "bool"
        }
      ],
      "stateMutability": "view",
      "type": "function"
    },
    {
      "inputs": [],
      "name": "symbol",
      "outputs": [
        {
          "internalType": "string",
          "name": "",
          "type": "string"
        }
      ],
      "stateMutability": "view",
      "type": "function"
    },
    {
      "inputs": [
        {
          "internalType": "uint256",
          "name": "index",
          "type": "uint256"
        }
      ],
      "name": "tokenByIndex",
      "outputs": [
        {
          "internalType": "uint256",
          "name": "",
          "type": "uint256"
        }
      ],
      "stateMutability": "view",
      "type": "function"
    },
    {
      "inputs": [
        {
          "internalType": "address",
          "name": "owner",
          "type": "address"
        },
        {
          "internalType": "uint256",
          "name": "index",
          "type": "uint256"
        }
      ],
      "name": "tokenOfOwnerByIndex",
      "outputs": [
        {
          "internalType": "uint256",
          "name": "",
          "type": "uint256"
        }
      ],
      "stateMutability": "view",
      "type": "function"
    },
    {
      "inputs": [
        {
          "internalType": "uint256",
          "name": "tokenId",
          "type": "uint256"
        }
      ],
      "name": "tokenURI",
      "outputs": [
        {
          "internalType": "string",
          "name": "",
          "type": "string"
        }
      ],
      "stateMutability": "view",
      "type": "function"
    },
    {
      "inputs": [],
      "name": "totalSupply",
      "outputs": [
        {
          "internalType": "uint256",
          "name": "",
          "type": "uint256"
        }
      ],
      "stateMutability": "view",
      "type": "function"
    },
    {
      "inputs": [
        {
          "internalType": "address",
          "name": "from",
          "type": "address"
        },
        {
          "internalType": "address",
          "name": "to",
          "type": "address"
        },
        {
          "internalType": "uint256",
          "name": "tokenId",
          "type": "uint256"
        }
      ],
      "name": "transferFrom",
      "outputs": [],
      "stateMutability": "nonpayable",
      "type": "function"
    }
  ],
  "bytecode": "0x608060405267016345785d8a0000600e556040518060400160405280601481526020017f4d65746176657273654d617968656d43617264730000000000000000000000008152506040518060400160405280600381526020017f4d4d540000000000000000000000000000000000000000000000000000000000815250816000908051906020019062000094929190620000b6565b508060019080519060200190620000ad929190620000b6565b505050620001cb565b828054620000c49062000166565b90600052602060002090601f016020900481019282620000e8576000855562000134565b82601f106200010357805160ff191683800117855562000134565b8280016001018555821562000134579182015b828111156200013357825182559160200191906001019062000116565b5b50905062000143919062000147565b5090565b5b808211156200016257600081600090555060010162000148565b5090565b600060028204905060018216806200017f57607f821691505b602082108114156200019657620001956200019c565b5b50919050565b7f4e487b7100000000000000000000000000000000000000000000000000000000600052602260045260246000fd5b6139aa80620001db6000396000f3fe60806040526004361061012a5760003560e01c80636352211e116100ab57806395d89b411161006f57806395d89b4114610427578063a22cb46514610452578063b88d4fde1461047b578063c87b56dd146104a4578063d85d3d27146104e1578063e985e9c5146104fd5761012a565b80636352211e146103245780636817c76c1461036157806370a082311461038c5780638dc10768146103c957806391bc8c9c1461040b5761012a565b806323b872dd116100f257806323b872dd146102285780632f745c59146102515780633477b4081461028e57806342842e0e146102be5780634f6ccce7146102e75761012a565b806301ffc9a71461012f57806306fdde031461016c578063081812fc14610197578063095ea7b3146101d457806318160ddd146101fd575b600080fd5b34801561013b57600080fd5b5061015660048036038101906101519190612a05565b61053a565b6040516101639190612e94565b60405180910390f35b34801561017857600080fd5b5061018161054c565b60405161018e9190612eaf565b60405180910390f35b3480156101a357600080fd5b506101be60048036038101906101b99190612a98565b6105de565b6040516101cb9190612e2d565b60405180910390f35b3480156101e057600080fd5b506101fb60048036038101906101f691906129c9565b610624565b005b34801561020957600080fd5b5061021261073c565b60405161021f9190613120565b60405180910390f35b34801561023457600080fd5b5061024f600480360381019061024a91906128c3565b610749565b005b34801561025d57600080fd5b50610278600480360381019061027391906129c9565b6107a9565b6040516102859190613120565b60405180910390f35b6102a860048036038101906102a39190612a57565b61084e565b6040516102b59190613120565b60405180910390f35b3480156102ca57600080fd5b506102e560048036038101906102e091906128c3565b6109b6565b005b3480156102f357600080fd5b5061030e60048036038101906103099190612a98565b6109d6565b60405161031b9190613120565b60405180910390f35b34801561033057600080fd5b5061034b60048036038101906103469190612a98565b610a6d565b6040516103589190612e2d565b60405180910390f35b34801561036d57600080fd5b50610376610af4565b6040516103839190613120565b60405180910390f35b34801561039857600080fd5b506103b360048036038101906103ae919061285e565b610af9565b6040516103c09190613120565b60405180910390f35b3480156103d557600080fd5b506103f060048036038101906103eb9190612a98565b610bb1565b60405161040296959493929190612ed1565b60405180910390f35b61042560048036038101906104209190612a57565b610d0d565b005b34801561043357600080fd5b5061043c610e8e565b6040516104499190612eaf565b60405180910390f35b34801561045e57600080fd5b506104796004803603810190610474919061298d565b610f20565b005b34801561048757600080fd5b506104a2600480360381019061049d9190612912565b610f36565b005b3480156104b057600080fd5b506104cb60048036038101906104c69190612a98565b610f98565b6040516104d89190612eaf565b60405180910390f35b6104fb60048036038101906104f69190612a57565b610faa565b005b34801561050957600080fd5b50610524600480360381019061051f9190612887565b610fc4565b6040516105319190612e94565b60405180910390f35b600061054582611058565b9050919050565b60606000805461055b9061332a565b80601f01602080910402602001604051908101604052809291908181526020018280546105879061332a565b80156105d45780601f106105a9576101008083540402835291602001916105d4565b820191906000526020600020905b8154815290600101906020018083116105b757829003601f168201915b5050505050905090565b60006105e9826110d2565b6004600083815260200190815260200160002060009054906101000a900473ffffffffffffffffffffffffffffffffffffffff169050919050565b600061062f82610a6d565b90508073ffffffffffffffffffffffffffffffffffffffff168373ffffffffffffffffffffffffffffffffffffffff1614156106a0576040517f08c379a0000000000000000000000000000000000000000000000000000000008152600401610697906130a0565b60405180910390fd5b8073ffffffffffffffffffffffffffffffffffffffff166106bf61111d565b73ffffffffffffffffffffffffffffffffffffffff1614806106ee57506106ed816106e861111d565b610fc4565b5b61072d576040517f08c379a0000000000000000000000000000000000000000000000000000000008152600401610724906130c0565b60405180910390fd5b6107378383611125565b505050565b6000600880549050905090565b61075a61075461111d565b826111de565b610799576040517f08c379a000000000000000000000000000000000000000000000000000000000815260040161079090612f40565b60405180910390fd5b6107a4838383611273565b505050565b60006107b483610af9565b82106107f5576040517f08c379a00000000000000000000000000000000000000000000000000000000081526004016107ec90612f60565b60405180910390fd5b600660008473ffffffffffffffffffffffffffffffffffffffff1673ffffffffffffffffffffffffffffffffffffffff168152602001908152602001600020600083815260200190815260200160002054905092915050565b6000600e54471015610895576040517f08c379a000000000000000000000000000000000000000000000000000000000815260040161088c90612fe0565b60405180910390fd5b6000600a80549050905060006108ac60053361156d565b9050600a6040518060c001604052808681526020018381526020016000815260200160008152602001600081526020016040518060400160405280600681526020017f636f6d6d6f6e00000000000000000000000000000000000000000000000000008152508152509080600181540180825580915050600190039060005260206000209060060201600090919091909150600082015181600001908051906020019061095a929190612682565b506020820151816001015560408201518160020155606082015181600301556080820151816004015560a082015181600501908051906020019061099f929190612682565b5050506109ac33836115ce565b8192505050919050565b6109d183838360405180602001604052806000815250610f36565b505050565b60006109e061073c565b8210610a21576040517f08c379a0000000000000000000000000000000000000000000000000000000008152600401610a18906130e0565b60405180910390fd5b60088281548110610a5b577f4e487b7100000000000000000000000000000000000000000000000000000000600052603260045260246000fd5b90600052602060002001549050919050565b600080610a79836115ec565b9050600073ffffffffffffffffffffffffffffffffffffffff168173ffffffffffffffffffffffffffffffffffffffff161415610aeb576040517f08c379a0000000000000000000000000000000000000000000000000000000008152600401610ae290613080565b60405180910390fd5b80915050919050565b600081565b60008073ffffffffffffffffffffffffffffffffffffffff168273ffffffffffffffffffffffffffffffffffffffff161415610b6a576040517f08c379a0000000000000000000000000000000000000000000000000000000008152600401610b6190613040565b60405180910390fd5b600360008373ffffffffffffffffffffffffffffffffffffffff1673ffffffffffffffffffffffffffffffffffffffff168152602001908152602001600020549050919050565b600a8181548110610bc157600080fd5b9060005260206000209060060201600091509050806000018054610be49061332a565b80601f0160208091040260200160405190810160405280929190818152602001828054610c109061332a565b8015610c5d5780601f10610c3257610100808354040283529160200191610c5d565b820191906000526020600020905b815481529060010190602001808311610c4057829003601f168201915b505050505090806001015490806002015490806003015490806004015490806005018054610c8a9061332a565b80601f0160208091040260200160405190810160405280929190818152602001828054610cb69061332a565b8015610d035780601f10610cd857610100808354040283529160200191610d03565b820191906000526020600020905b815481529060010190602001808311610ce657829003601f168201915b5050505050905086565b600e54471015610d52576040517f08c379a0000000000000000000000000000000000000000000000000000000008152600401610d4990612fe0565b60405180910390fd5b60005b6005811215610e8a576000600a8054905090506000610d75600f3361156d565b9050600a6040518060c001604052808681526020018381526020016000815260200160008152602001600081526020016040518060400160405280600681526020017f636f6d6d6f6e000000000000000000000000000000000000000000000000000081525081525090806001815401808255809150506001900390600052602060002090600602016000909190919091506000820151816000019080519060200190610e23929190612682565b506020820151816001015560408201518160020155606082015181600301556080820151816004015560a0820151816005019080519060200190610e68929190612682565b505050610e7533836115ce565b50508080610e829061338d565b915050610d55565b5050565b606060018054610e9d9061332a565b80601f0160208091040260200160405190810160405280929190818152602001828054610ec99061332a565b8015610f165780601f10610eeb57610100808354040283529160200191610f16565b820191906000526020600020905b815481529060010190602001808311610ef957829003601f168201915b5050505050905090565b610f32610f2b61111d565b8383611629565b5050565b610f47610f4161111d565b836111de565b610f86576040517f08c379a0000000000000000000000000000000000000000000000000000000008152600401610f7d90612f40565b60405180910390fd5b610f9284848484611796565b50505050565b6060610fa3826117f2565b9050919050565b6000610fb461073c565b9050610fc033826115ce565b5050565b6000600560008473ffffffffffffffffffffffffffffffffffffffff1673ffffffffffffffffffffffffffffffffffffffff16815260200190815260200160002060008373ffffffffffffffffffffffffffffffffffffffff1673ffffffffffffffffffffffffffffffffffffffff16815260200190815260200160002060009054906101000a900460ff16905092915050565b60007f780e9d63000000000000000000000000000000000000000000000000000000007bffffffffffffffffffffffffffffffffffffffffffffffffffffffff1916827bffffffffffffffffffffffffffffffffffffffffffffffffffffffff191614806110cb57506110ca8261185a565b5b9050919050565b6110db8161193c565b61111a576040517f08c379a000000000000000000000000000000000000000000000000000000000815260040161111190613080565b60405180910390fd5b50565b600033905090565b816004600083815260200190815260200160002060006101000a81548173ffffffffffffffffffffffffffffffffffffffff021916908373ffffffffffffffffffffffffffffffffffffffff160217905550808273ffffffffffffffffffffffffffffffffffffffff1661119883610a6d565b73ffffffffffffffffffffffffffffffffffffffff167f8c5be1e5ebec7d5bd14f71427d1e84f3dd0314c0f7b2291e5b200ac8c7c3b92560405160405180910390a45050565b6000806111ea83610a6d565b90508073ffffffffffffffffffffffffffffffffffffffff168473ffffffffffffffffffffffffffffffffffffffff16148061122c575061122b8185610fc4565b5b8061126a57508373ffffffffffffffffffffffffffffffffffffffff16611252846105de565b73ffffffffffffffffffffffffffffffffffffffff16145b91505092915050565b8273ffffffffffffffffffffffffffffffffffffffff1661129382610a6d565b73ffffffffffffffffffffffffffffffffffffffff16146112e9576040517f08c379a00000000000000000000000000000000000000000000000000000000081526004016112e090612fa0565b60405180910390fd5b600073ffffffffffffffffffffffffffffffffffffffff168273ffffffffffffffffffffffffffffffffffffffff161415611359576040517f08c379a000000000000000000000000000000000000000000000000000000000815260040161135090613000565b60405180910390fd5b611366838383600161197d565b8273ffffffffffffffffffffffffffffffffffffffff1661138682610a6d565b73ffffffffffffffffffffffffffffffffffffffff16146113dc576040517f08c379a00000000000000000000000000000000000000000000000000000000081526004016113d390612fa0565b60405180910390fd5b6004600082815260200190815260200160002060006101000a81549073ffffffffffffffffffffffffffffffffffffffff02191690556001600360008573ffffffffffffffffffffffffffffffffffffffff1673ffffffffffffffffffffffffffffffffffffffff168152602001908152602001600020600082825403925050819055506001600360008473ffffffffffffffffffffffffffffffffffffffff1673ffffffffffffffffffffffffffffffffffffffff16815260200190815260200160002060008282540192505081905550816002600083815260200190815260200160002060006101000a81548173ffffffffffffffffffffffffffffffffffffffff021916908373ffffffffffffffffffffffffffffffffffffffff160217905550808273ffffffffffffffffffffffffffffffffffffffff168473ffffffffffffffffffffffffffffffffffffffff167fddf252ad1be2c89b69c2b068fc378daa952ba7f163c4a11628f55a4df523b3ef60405160405180910390a4611568838383600161198f565b505050565b60008044428460405160200161158593929190612df0565b6040516020818303038152906040528051906020012060001c905083816115ac9190613404565b915060008214156115c7576002846115c49190613205565b91505b5092915050565b6115e8828260405180602001604052806000815250611995565b5050565b60006002600083815260200190815260200160002060009054906101000a900473ffffffffffffffffffffffffffffffffffffffff169050919050565b8173ffffffffffffffffffffffffffffffffffffffff168373ffffffffffffffffffffffffffffffffffffffff161415611698576040517f08c379a000000000000000000000000000000000000000000000000000000000815260040161168f90613020565b60405180910390fd5b80600560008573ffffffffffffffffffffffffffffffffffffffff1673ffffffffffffffffffffffffffffffffffffffff16815260200190815260200160002060008473ffffffffffffffffffffffffffffffffffffffff1673ffffffffffffffffffffffffffffffffffffffff16815260200190815260200160002060006101000a81548160ff0219169083151502179055508173ffffffffffffffffffffffffffffffffffffffff168373ffffffffffffffffffffffffffffffffffffffff167f17307eab39ab6107e8899845ad3d59bd9653f200f220920489ca2b5937696c31836040516117899190612e94565b60405180910390a3505050565b6117a1848484611273565b6117ad848484846119f0565b6117ec576040517f08c379a00000000000000000000000000000000000000000000000000000000081526004016117e390612f80565b60405180910390fd5b50505050565b60606117fd826110d2565b6000611807611b87565b905060008151116118275760405180602001604052806000815250611852565b8061183184611b9e565b604051602001611842929190612dcc565b6040516020818303038152906040525b915050919050565b60007f80ac58cd000000000000000000000000000000000000000000000000000000007bffffffffffffffffffffffffffffffffffffffffffffffffffffffff1916827bffffffffffffffffffffffffffffffffffffffffffffffffffffffff1916148061192557507f5b5e139f000000000000000000000000000000000000000000000000000000007bffffffffffffffffffffffffffffffffffffffffffffffffffffffff1916827bffffffffffffffffffffffffffffffffffffffffffffffffffffffff1916145b80611935575061193482611cc2565b5b9050919050565b60008073ffffffffffffffffffffffffffffffffffffffff1661195e836115ec565b73ffffffffffffffffffffffffffffffffffffffff1614159050919050565b61198984848484611d2c565b50505050565b50505050565b61199f8383611e8c565b6119ac60008484846119f0565b6119eb576040517f08c379a00000000000000000000000000000000000000000000000000000000081526004016119e290612f80565b60405180910390fd5b505050565b6000611a118473ffffffffffffffffffffffffffffffffffffffff166120aa565b15611b7a578373ffffffffffffffffffffffffffffffffffffffff1663150b7a02611a3a61111d565b8786866040518563ffffffff1660e01b8152600401611a5c9493929190612e48565b602060405180830381600087803b158015611a7657600080fd5b505af1925050508015611aa757506040513d601f19601f82011682018060405250810190611aa49190612a2e565b60015b611b2a573d8060008114611ad7576040519150601f19603f3d011682016040523d82523d6000602084013e611adc565b606091505b50600081511415611b22576040517f08c379a0000000000000000000000000000000000000000000000000000000008152600401611b1990612f80565b60405180910390fd5b805181602001fd5b63150b7a0260e01b7bffffffffffffffffffffffffffffffffffffffffffffffffffffffff1916817bffffffffffffffffffffffffffffffffffffffffffffffffffffffff191614915050611b7f565b600190505b949350505050565b606060405180602001604052806000815250905090565b606060006001611bad846120cd565b01905060008167ffffffffffffffff811115611bf2577f4e487b7100000000000000000000000000000000000000000000000000000000600052604160045260246000fd5b6040519080825280601f01601f191660200182016040528015611c245781602001600182028036833780820191505090505b509050600082602001820190505b600115611cb7578080600190039150507f3031323334353637383961626364656600000000000000000000000000000000600a86061a8153600a8581611ca1577f4e487b7100000000000000000000000000000000000000000000000000000000600052601260045260246000fd5b0494506000851415611cb257611cb7565b611c32565b819350505050919050565b60007f01ffc9a7000000000000000000000000000000000000000000000000000000007bffffffffffffffffffffffffffffffffffffffffffffffffffffffff1916827bffffffffffffffffffffffffffffffffffffffffffffffffffffffff1916149050919050565b611d3884848484612304565b6001811115611d7c576040517f08c379a0000000000000000000000000000000000000000000000000000000008152600401611d7390613100565b60405180910390fd5b6000829050600073ffffffffffffffffffffffffffffffffffffffff168573ffffffffffffffffffffffffffffffffffffffff161415611dc457611dbf8161230a565b611e03565b8373ffffffffffffffffffffffffffffffffffffffff168573ffffffffffffffffffffffffffffffffffffffff1614611e0257611e018582612353565b5b5b600073ffffffffffffffffffffffffffffffffffffffff168473ffffffffffffffffffffffffffffffffffffffff161415611e4657611e41816124c0565b611e85565b8473ffffffffffffffffffffffffffffffffffffffff168473ffffffffffffffffffffffffffffffffffffffff1614611e8457611e838482612603565b5b5b5050505050565b600073ffffffffffffffffffffffffffffffffffffffff168273ffffffffffffffffffffffffffffffffffffffff161415611efc576040517f08c379a0000000000000000000000000000000000000000000000000000000008152600401611ef390613060565b60405180910390fd5b611f058161193c565b15611f45576040517f08c379a0000000000000000000000000000000000000000000000000000000008152600401611f3c90612fc0565b60405180910390fd5b611f5360008383600161197d565b611f5c8161193c565b15611f9c576040517f08c379a0000000000000000000000000000000000000000000000000000000008152600401611f9390612fc0565b60405180910390fd5b6001600360008473ffffffffffffffffffffffffffffffffffffffff1673ffffffffffffffffffffffffffffffffffffffff16815260200190815260200160002060008282540192505081905550816002600083815260200190815260200160002060006101000a81548173ffffffffffffffffffffffffffffffffffffffff021916908373ffffffffffffffffffffffffffffffffffffffff160217905550808273ffffffffffffffffffffffffffffffffffffffff16600073ffffffffffffffffffffffffffffffffffffffff167fddf252ad1be2c89b69c2b068fc378daa952ba7f163c4a11628f55a4df523b3ef60405160405180910390a46120a660008383600161198f565b5050565b6000808273ffffffffffffffffffffffffffffffffffffffff163b119050919050565b600080600090507a184f03e93ff9f4daa797ed6e38ed64bf6a1f0100000000000000008310612151577a184f03e93ff9f4daa797ed6e38ed64bf6a1f0100000000000000008381612147577f4e487b7100000000000000000000000000000000000000000000000000000000600052601260045260246000fd5b0492506040810190505b6d04ee2d6d415b85acef810000000083106121b4576d04ee2d6d415b85acef810000000083816121aa577f4e487b7100000000000000000000000000000000000000000000000000000000600052601260045260246000fd5b0492506020810190505b662386f26fc10000831061220957662386f26fc1000083816121ff577f4e487b7100000000000000000000000000000000000000000000000000000000600052601260045260246000fd5b0492506010810190505b6305f5e1008310612258576305f5e100838161224e577f4e487b7100000000000000000000000000000000000000000000000000000000600052601260045260246000fd5b0492506008810190505b61271083106122a3576127108381612299577f4e487b7100000000000000000000000000000000000000000000000000000000600052601260045260246000fd5b0492506004810190505b606483106122ec57606483816122e2577f4e487b7100000000000000000000000000000000000000000000000000000000600052601260045260246000fd5b0492506002810190505b600a83106122fb576001810190505b80915050919050565b50505050565b6008805490506009600083815260200190815260200160002081905550600881908060018154018082558091505060019003906000526020600020016000909190919091505550565b6000600161236084610af9565b61236a9190613236565b905060006007600084815260200190815260200160002054905081811461244f576000600660008673ffffffffffffffffffffffffffffffffffffffff1673ffffffffffffffffffffffffffffffffffffffff168152602001908152602001600020600084815260200190815260200160002054905080600660008773ffffffffffffffffffffffffffffffffffffffff1673ffffffffffffffffffffffffffffffffffffffff168152602001908152602001600020600084815260200190815260200160002081905550816007600083815260200190815260200160002081905550505b6007600084815260200190815260200160002060009055600660008573ffffffffffffffffffffffffffffffffffffffff1673ffffffffffffffffffffffffffffffffffffffff16815260200190815260200160002060008381526020019081526020016000206000905550505050565b600060016008805490506124d49190613236565b905060006009600084815260200190815260200160002054905060006008838154811061252a577f4e487b7100000000000000000000000000000000000000000000000000000000600052603260045260246000fd5b906000526020600020015490508060088381548110612572577f4e487b7100000000000000000000000000000000000000000000000000000000600052603260045260246000fd5b9060005260206000200181905550816009600083815260200190815260200160002081905550600960008581526020019081526020016000206000905560088054806125e7577f4e487b7100000000000000000000000000000000000000000000000000000000600052603160045260246000fd5b6001900381819060005260206000200160009055905550505050565b600061260e83610af9565b905081600660008573ffffffffffffffffffffffffffffffffffffffff1673ffffffffffffffffffffffffffffffffffffffff168152602001908152602001600020600083815260200190815260200160002081905550806007600084815260200190815260200160002081905550505050565b82805461268e9061332a565b90600052602060002090601f0160209004810192826126b057600085556126f7565b82601f106126c957805160ff19168380011785556126f7565b828001600101855582156126f7579182015b828111156126f65782518255916020019190600101906126db565b5b5090506127049190612708565b5090565b5b80821115612721576000816000905550600101612709565b5090565b600061273861273384613160565b61313b565b90508281526020810184848401111561275057600080fd5b61275b8482856132e8565b509392505050565b600061277661277184613191565b61313b565b90508281526020810184848401111561278e57600080fd5b6127998482856132e8565b509392505050565b6000813590506127b081613918565b92915050565b6000813590506127c58161392f565b92915050565b6000813590506127da81613946565b92915050565b6000815190506127ef81613946565b92915050565b600082601f83011261280657600080fd5b8135612816848260208601612725565b91505092915050565b600082601f83011261283057600080fd5b8135612840848260208601612763565b91505092915050565b6000813590506128588161395d565b92915050565b60006020828403121561287057600080fd5b600061287e848285016127a1565b91505092915050565b6000806040838503121561289a57600080fd5b60006128a8858286016127a1565b92505060206128b9858286016127a1565b9150509250929050565b6000806000606084860312156128d857600080fd5b60006128e6868287016127a1565b93505060206128f7868287016127a1565b925050604061290886828701612849565b9150509250925092565b6000806000806080858703121561292857600080fd5b6000612936878288016127a1565b9450506020612947878288016127a1565b935050604061295887828801612849565b925050606085013567ffffffffffffffff81111561297557600080fd5b612981878288016127f5565b91505092959194509250565b600080604083850312156129a057600080fd5b60006129ae858286016127a1565b92505060206129bf858286016127b6565b9150509250929050565b600080604083850312156129dc57600080fd5b60006129ea858286016127a1565b92505060206129fb85828601612849565b9150509250929050565b600060208284031215612a1757600080fd5b6000612a25848285016127cb565b91505092915050565b600060208284031215612a4057600080fd5b6000612a4e848285016127e0565b91505092915050565b600060208284031215612a6957600080fd5b600082013567ffffffffffffffff811115612a8357600080fd5b612a8f8482850161281f565b91505092915050565b600060208284031215612aaa57600080fd5b6000612ab884828501612849565b91505092915050565b612aca8161326a565b82525050565b612ae1612adc8261326a565b6133d6565b82525050565b612af08161327c565b82525050565b6000612b01826131c2565b612b0b81856131d8565b9350612b1b8185602086016132f7565b612b24816134f1565b840191505092915050565b6000612b3a826131cd565b612b4481856131e9565b9350612b548185602086016132f7565b612b5d816134f1565b840191505092915050565b6000612b73826131cd565b612b7d81856131fa565b9350612b8d8185602086016132f7565b80840191505092915050565b6000612ba6602d836131e9565b9150612bb18261350f565b604082019050919050565b6000612bc9602b836131e9565b9150612bd48261355e565b604082019050919050565b6000612bec6032836131e9565b9150612bf7826135ad565b604082019050919050565b6000612c0f6025836131e9565b9150612c1a826135fc565b604082019050919050565b6000612c32601c836131e9565b9150612c3d8261364b565b602082019050919050565b6000612c556029836131e9565b9150612c6082613674565b604082019050919050565b6000612c786024836131e9565b9150612c83826136c3565b604082019050919050565b6000612c9b6019836131e9565b9150612ca682613712565b602082019050919050565b6000612cbe6029836131e9565b9150612cc98261373b565b604082019050919050565b6000612ce16020836131e9565b9150612cec8261378a565b602082019050919050565b6000612d046018836131e9565b9150612d0f826137b3565b602082019050919050565b6000612d276021836131e9565b9150612d32826137dc565b604082019050919050565b6000612d4a603d836131e9565b9150612d558261382b565b604082019050919050565b6000612d6d602c836131e9565b9150612d788261387a565b604082019050919050565b6000612d906035836131e9565b9150612d9b826138c9565b604082019050919050565b612daf816132de565b82525050565b612dc6612dc1826132de565b6133fa565b82525050565b6000612dd88285612b68565b9150612de48284612b68565b91508190509392505050565b6000612dfc8286612db5565b602082019150612e0c8285612db5565b602082019150612e1c8284612ad0565b601482019150819050949350505050565b6000602082019050612e426000830184612ac1565b92915050565b6000608082019050612e5d6000830187612ac1565b612e6a6020830186612ac1565b612e776040830185612da6565b8181036060830152612e898184612af6565b905095945050505050565b6000602082019050612ea96000830184612ae7565b92915050565b60006020820190508181036000830152612ec98184612b2f565b905092915050565b600060c0820190508181036000830152612eeb8189612b2f565b9050612efa6020830188612da6565b612f076040830187612da6565b612f146060830186612da6565b612f216080830185612da6565b81810360a0830152612f338184612b2f565b9050979650505050505050565b60006020820190508181036000830152612f5981612b99565b9050919050565b60006020820190508181036000830152612f7981612bbc565b9050919050565b60006020820190508181036000830152612f9981612bdf565b9050919050565b60006020820190508181036000830152612fb981612c02565b9050919050565b60006020820190508181036000830152612fd981612c25565b9050919050565b60006020820190508181036000830152612ff981612c48565b9050919050565b6000602082019050818103600083015261301981612c6b565b9050919050565b6000602082019050818103600083015261303981612c8e565b9050919050565b6000602082019050818103600083015261305981612cb1565b9050919050565b6000602082019050818103600083015261307981612cd4565b9050919050565b6000602082019050818103600083015261309981612cf7565b9050919050565b600060208201905081810360008301526130b981612d1a565b9050919050565b600060208201905081810360008301526130d981612d3d565b9050919050565b600060208201905081810360008301526130f981612d60565b9050919050565b6000602082019050818103600083015261311981612d83565b9050919050565b60006020820190506131356000830184612da6565b92915050565b6000613145613156565b9050613151828261335c565b919050565b6000604051905090565b600067ffffffffffffffff82111561317b5761317a6134c2565b5b613184826134f1565b9050602081019050919050565b600067ffffffffffffffff8211156131ac576131ab6134c2565b5b6131b5826134f1565b9050602081019050919050565b600081519050919050565b600081519050919050565b600082825260208201905092915050565b600082825260208201905092915050565b600081905092915050565b6000613210826132de565b915061321b836132de565b92508261322b5761322a613464565b5b828204905092915050565b6000613241826132de565b915061324c836132de565b92508282101561325f5761325e613435565b5b828203905092915050565b6000613275826132be565b9050919050565b60008115159050919050565b60007fffffffff0000000000000000000000000000000000000000000000000000000082169050919050565b6000819050919050565b600073ffffffffffffffffffffffffffffffffffffffff82169050919050565b6000819050919050565b82818337600083830152505050565b60005b838110156133155780820151818401526020810190506132fa565b83811115613324576000848401525b50505050565b6000600282049050600182168061334257607f821691505b6020821081141561335657613355613493565b5b50919050565b613365826134f1565b810181811067ffffffffffffffff82111715613384576133836134c2565b5b80604052505050565b6000613398826132b4565b91507f7fffffffffffffffffffffffffffffffffffffffffffffffffffffffffffffff8214156133cb576133ca613435565b5b600182019050919050565b60006133e1826133e8565b9050919050565b60006133f382613502565b9050919050565b6000819050919050565b600061340f826132de565b915061341a836132de565b92508261342a57613429613464565b5b828206905092915050565b7f4e487b7100000000000000000000000000000000000000000000000000000000600052601160045260246000fd5b7f4e487b7100000000000000000000000000000000000000000000000000000000600052601260045260246000fd5b7f4e487b7100000000000000000000000000000000000000000000000000000000600052602260045260246000fd5b7f4e487b7100000000000000000000000000000000000000000000000000000000600052604160045260246000fd5b6000601f19601f8301169050919050565b60008160601b9050919050565b7f4552433732313a2063616c6c6572206973206e6f7420746f6b656e206f776e6560008201527f72206f7220617070726f76656400000000000000000000000000000000000000602082015250565b7f455243373231456e756d657261626c653a206f776e657220696e646578206f7560008201527f74206f6620626f756e6473000000000000000000000000000000000000000000602082015250565b7f4552433732313a207472616e7366657220746f206e6f6e20455243373231526560008201527f63656976657220696d706c656d656e7465720000000000000000000000000000602082015250565b7f4552433732313a207472616e736665722066726f6d20696e636f72726563742060008201527f6f776e6572000000000000000000000000000000000000000000000000000000602082015250565b7f4552433732313a20746f6b656e20616c7265616479206d696e74656400000000600082015250565b7f496e73756666696369656e7420455448202d2066696c6c20636f6e747261637460008201527f2077697468204554480000000000000000000000000000000000000000000000602082015250565b7f4552433732313a207472616e7366657220746f20746865207a65726f2061646460008201527f7265737300000000000000000000000000000000000000000000000000000000602082015250565b7f4552433732313a20617070726f766520746f2063616c6c657200000000000000600082015250565b7f4552433732313a2061646472657373207a65726f206973206e6f74206120766160008201527f6c6964206f776e65720000000000000000000000000000000000000000000000602082015250565b7f4552433732313a206d696e7420746f20746865207a65726f2061646472657373600082015250565b7f4552433732313a20696e76616c696420746f6b656e2049440000000000000000600082015250565b7f4552433732313a20617070726f76616c20746f2063757272656e74206f776e6560008201527f7200000000000000000000000000000000000000000000000000000000000000602082015250565b7f4552433732313a20617070726f76652063616c6c6572206973206e6f7420746f60008201527f6b656e206f776e6572206f7220617070726f76656420666f7220616c6c000000602082015250565b7f455243373231456e756d657261626c653a20676c6f62616c20696e646578206f60008201527f7574206f6620626f756e64730000000000000000000000000000000000000000602082015250565b7f455243373231456e756d657261626c653a20636f6e736563757469766520747260008201527f616e7366657273206e6f7420737570706f727465640000000000000000000000602082015250565b6139218161326a565b811461392c57600080fd5b50565b6139388161327c565b811461394357600080fd5b50565b61394f81613288565b811461395a57600080fd5b50565b613966816132de565b811461397157600080fd5b5056fea26469706673582212205d876feebbf2dca3943d5ac7ab0a167890d2fa09e4fe5aafbdf01cb590572d0c64736f6c63430008040033",
  "linkReferences": {},
  "deployedLinkReferences": {}
}