{
  "_format": "hh-sol-artifact-1",
  "contractName": "TradingCardMinter",
  "sourceName": "contracts/TradingCardMinter.sol",
  "abi": [
    {
      "inputs": [],
      "stateMutability": "payable",
      "type": "constructor"
    },
    {
      "anonymous": false,
      "inputs": [
        {
          "indexed": true,
          "internalType": "address",
          "name": "owner",
          "type": "address"
        },
        {
          "indexed": true,
          "internalType": "address",
          "name": "approved",
          "type": "address"
        },
        {
          "indexed": true,
          "internalType": "uint256",
          "name": "tokenId",
          "type": "uint256"
        }
      ],
      "name": "Approval",
      "type": "event"
    },
    {
      "anonymous": false,
      "inputs": [
        {
          "indexed": true,
          "internalType": "address",
          "name": "owner",
          "type": "address"
        },
        {
          "indexed": true,
          "internalType": "address",
          "name": "operator",
          "type": "address"
        },
        {
          "indexed": false,
          "internalType": "bool",
          "name": "approved",
          "type": "bool"
        }
      ],
      "name": "ApprovalForAll",
      "type": "event"
    },
    {
      "anonymous": false,
      "inputs": [
        {
          "indexed": true,
          "internalType": "address",
          "name": "from",
          "type": "address"
        },
        {
          "indexed": true,
          "internalType": "address",
          "name": "to",
          "type": "address"
        },
        {
          "indexed": true,
          "internalType": "uint256",
          "name": "tokenId",
          "type": "uint256"
        }
      ],
      "name": "Transfer",
      "type": "event"
    },
    {
      "inputs": [
        {
          "internalType": "address",
          "name": "to",
          "type": "address"
        },
        {
          "internalType": "uint256",
          "name": "tokenId",
          "type": "uint256"
        }
      ],
      "name": "approve",
      "outputs": [],
      "stateMutability": "nonpayable",
      "type": "function"
    },
    {
      "inputs": [
        {
          "internalType": "address",
          "name": "owner",
          "type": "address"
        }
      ],
      "name": "balanceOf",
      "outputs": [
        {
          "internalType": "uint256",
          "name": "",
          "type": "uint256"
        }
      ],
      "stateMutability": "view",
      "type": "function"
    },
    {
      "inputs": [],
      "name": "buyCardPack",
      "outputs": [],
      "stateMutability": "payable",
      "type": "function"
    },
    {
      "inputs": [
        {
          "internalType": "uint256",
          "name": "",
          "type": "uint256"
        }
      ],
      "name": "cards",
      "outputs": [
        {
          "internalType": "uint256",
          "name": "cardId",
          "type": "uint256"
        },
        {
          "internalType": "uint256",
          "name": "tokenId",
          "type": "uint256"
        }
      ],
      "stateMutability": "view",
      "type": "function"
    },
    {
      "inputs": [
        {
          "internalType": "uint256",
          "name": "tokenId",
          "type": "uint256"
        }
      ],
      "name": "getApproved",
      "outputs": [
        {
          "internalType": "address",
          "name": "",
          "type": "address"
        }
      ],
      "stateMutability": "view",
      "type": "function"
    },
    {
      "inputs": [
        {
          "internalType": "address",
          "name": "_address",
          "type": "address"
        }
      ],
      "name": "getCardsUnderOwner",
      "outputs": [
        {
          "components": [
            {
              "internalType": "uint256",
              "name": "cardId",
              "type": "uint256"
            },
            {
              "internalType": "uint256",
              "name": "tokenId",
              "type": "uint256"
            }
          ],
          "internalType": "struct TradingCardMinter.Card[]",
          "name": "",
          "type": "tuple[]"
        }
      ],
      "stateMutability": "view",
      "type": "function"
    },
    {
      "inputs": [
        {
          "internalType": "address",
          "name": "owner",
          "type": "address"
        },
        {
          "internalType": "address",
          "name": "operator",
          "type": "address"
        }
      ],
      "name": "isApprovedForAll",
      "outputs": [
        {
          "internalType": "bool",
          "name": "",
          "type": "bool"
        }
      ],
      "stateMutability": "view",
      "type": "function"
    },
    {
      "inputs": [
        {
          "internalType": "string",
          "name": "_uri",
          "type": "string"
        }
      ],
      "name": "mint",
      "outputs": [],
      "stateMutability": "payable",
      "type": "function"
    },
    {
      "inputs": [],
      "name": "mintPrice",
      "outputs": [
        {
          "internalType": "uint256",
          "name": "",
          "type": "uint256"
        }
      ],
      "stateMutability": "view",
      "type": "function"
    },
    {
      "inputs": [],
      "name": "name",
      "outputs": [
        {
          "internalType": "string",
          "name": "",
          "type": "string"
        }
      ],
      "stateMutability": "view",
      "type": "function"
    },
    {
      "inputs": [
        {
          "internalType": "uint256",
          "name": "tokenId",
          "type": "uint256"
        }
      ],
      "name": "ownerOf",
      "outputs": [
        {
          "internalType": "address",
          "name": "",
          "type": "address"
        }
      ],
      "stateMutability": "view",
      "type": "function"
    },
    {
      "inputs": [],
      "name": "requestNewCard",
      "outputs": [
        {
          "internalType": "uint256",
          "name": "",
          "type": "uint256"
        }
      ],
      "stateMutability": "payable",
      "type": "function"
    },
    {
      "inputs": [
        {
          "internalType": "address",
          "name": "from",
          "type": "address"
        },
        {
          "internalType": "address",
          "name": "to",
          "type": "address"
        },
        {
          "internalType": "uint256",
          "name": "tokenId",
          "type": "uint256"
        }
      ],
      "name": "safeTransferFrom",
      "outputs": [],
      "stateMutability": "nonpayable",
      "type": "function"
    },
    {
      "inputs": [
        {
          "internalType": "address",
          "name": "from",
          "type": "address"
        },
        {
          "internalType": "address",
          "name": "to",
          "type": "address"
        },
        {
          "internalType": "uint256",
          "name": "tokenId",
          "type": "uint256"
        },
        {
          "internalType": "bytes",
          "name": "data",
          "type": "bytes"
        }
      ],
      "name": "safeTransferFrom",
      "outputs": [],
      "stateMutability": "nonpayable",
      "type": "function"
    },
    {
      "inputs": [
        {
          "internalType": "address",
          "name": "operator",
          "type": "address"
        },
        {
          "internalType": "bool",
          "name": "approved",
          "type": "bool"
        }
      ],
      "name": "setApprovalForAll",
      "outputs": [],
      "stateMutability": "nonpayable",
      "type": "function"
    },
    {
      "inputs": [
        {
          "internalType": "bytes4",
          "name": "interfaceId",
          "type": "bytes4"
        }
      ],
      "name": "supportsInterface",
      "outputs": [
        {
          "internalType": "bool",
          "name": "",
          "type": "bool"
        }
      ],
      "stateMutability": "view",
      "type": "function"
    },
    {
      "inputs": [],
      "name": "symbol",
      "outputs": [
        {
          "internalType": "string",
          "name": "",
          "type": "string"
        }
      ],
      "stateMutability": "view",
      "type": "function"
    },
    {
      "inputs": [
        {
          "internalType": "uint256",
          "name": "index",
          "type": "uint256"
        }
      ],
      "name": "tokenByIndex",
      "outputs": [
        {
          "internalType": "uint256",
          "name": "",
          "type": "uint256"
        }
      ],
      "stateMutability": "view",
      "type": "function"
    },
    {
      "inputs": [
        {
          "internalType": "address",
          "name": "owner",
          "type": "address"
        },
        {
          "internalType": "uint256",
          "name": "index",
          "type": "uint256"
        }
      ],
      "name": "tokenOfOwnerByIndex",
      "outputs": [
        {
          "internalType": "uint256",
          "name": "",
          "type": "uint256"
        }
      ],
      "stateMutability": "view",
      "type": "function"
    },
    {
      "inputs": [
        {
          "internalType": "uint256",
          "name": "tokenId",
          "type": "uint256"
        }
      ],
      "name": "tokenURI",
      "outputs": [
        {
          "internalType": "string",
          "name": "",
          "type": "string"
        }
      ],
      "stateMutability": "view",
      "type": "function"
    },
    {
      "inputs": [],
      "name": "totalSupply",
      "outputs": [
        {
          "internalType": "uint256",
          "name": "",
          "type": "uint256"
        }
      ],
      "stateMutability": "view",
      "type": "function"
    },
    {
      "inputs": [
        {
          "internalType": "uint256",
          "name": "tokenId",
          "type": "uint256"
        },
        {
          "internalType": "address",
          "name": "from",
          "type": "address"
        },
        {
          "internalType": "address",
          "name": "to",
          "type": "address"
        }
      ],
      "name": "transferCardToNewOwner",
      "outputs": [],
      "stateMutability": "nonpayable",
      "type": "function"
    },
    {
      "inputs": [
        {
          "internalType": "address",
          "name": "from",
          "type": "address"
        },
        {
          "internalType": "address",
          "name": "to",
          "type": "address"
        },
        {
          "internalType": "uint256",
          "name": "tokenId",
          "type": "uint256"
        }
      ],
      "name": "transferFrom",
      "outputs": [],
      "stateMutability": "nonpayable",
      "type": "function"
    },
    {
      "inputs": [
        {
          "internalType": "address",
          "name": "",
          "type": "address"
        },
        {
          "internalType": "uint256",
          "name": "",
          "type": "uint256"
        }
      ],
      "name": "userCards",
      "outputs": [
        {
          "internalType": "uint256",
          "name": "cardId",
          "type": "uint256"
        },
        {
          "internalType": "uint256",
          "name": "tokenId",
          "type": "uint256"
        }
      ],
      "stateMutability": "view",
      "type": "function"
    }
  ],
  "bytecode": "0x608060405267016345785d8a0000600c556040518060400160405280601481526020017f4d65746176657273654d617968656d43617264730000000000000000000000008152506040518060400160405280600381526020017f4d4d540000000000000000000000000000000000000000000000000000000000815250816000908051906020019062000094929190620000b6565b508060019080519060200190620000ad929190620000b6565b505050620001cb565b828054620000c49062000166565b90600052602060002090601f016020900481019282620000e8576000855562000134565b82601f106200010357805160ff191683800117855562000134565b8280016001018555821562000134579182015b828111156200013357825182559160200191906001019062000116565b5b50905062000143919062000147565b5090565b5b808211156200016257600081600090555060010162000148565b5090565b600060028204905060018216806200017f57607f821691505b602082108114156200019657620001956200019c565b5b50919050565b7f4e487b7100000000000000000000000000000000000000000000000000000000600052602260045260246000fd5b613db380620001db6000396000f3fe60806040526004361061014b5760003560e01c80636352211e116100b657806395d89b411161006f57806395d89b41146104c4578063a22cb465146104ef578063b88d4fde14610518578063c87b56dd14610541578063d85d3d271461057e578063e985e9c51461059a5761014b565b80636352211e146103b95780636817c76c146103f657806370a082311461042157806379ef1b381461045e5780638bf96c6c146104685780638dc10768146104865761014b565b806318160ddd1161010857806318160ddd1461029957806323b872dd146102c45780632c5ef38f146102ed5780632f745c591461031657806342842e0e146103535780634f6ccce71461037c5761014b565b806301ffc9a714610150578063041447561461018d57806306fdde03146101ca578063081812fc146101f5578063095ea7b314610232578063172b6b621461025b575b600080fd5b34801561015c57600080fd5b5061017760048036038101906101729190612c9c565b6105d7565b6040516101849190613261565b60405180910390f35b34801561019957600080fd5b506101b460048036038101906101af9190612af5565b6105e9565b6040516101c1919061323f565b60405180910390f35b3480156101d657600080fd5b506101df61069b565b6040516101ec919061327c565b60405180910390f35b34801561020157600080fd5b5061021c60048036038101906102179190612d2f565b61072d565b60405161022991906131d8565b60405180910390f35b34801561023e57600080fd5b5061025960048036038101906102549190612c60565b610773565b005b34801561026757600080fd5b50610282600480360381019061027d9190612c60565b61088b565b604051610290929190613499565b60405180910390f35b3480156102a557600080fd5b506102ae6108cc565b6040516102bb919061347e565b60405180910390f35b3480156102d057600080fd5b506102eb60048036038101906102e69190612b5a565b6108d9565b005b3480156102f957600080fd5b50610314600480360381019061030f9190612d58565b610939565b005b34801561032257600080fd5b5061033d60048036038101906103389190612c60565b610d30565b60405161034a919061347e565b60405180910390f35b34801561035f57600080fd5b5061037a60048036038101906103759190612b5a565b610dd5565b005b34801561038857600080fd5b506103a3600480360381019061039e9190612d2f565b610df5565b6040516103b0919061347e565b60405180910390f35b3480156103c557600080fd5b506103e060048036038101906103db9190612d2f565b610e8c565b6040516103ed91906131d8565b60405180910390f35b34801561040257600080fd5b5061040b610f13565b604051610418919061347e565b60405180910390f35b34801561042d57600080fd5b5061044860048036038101906104439190612af5565b610f18565b604051610455919061347e565b60405180910390f35b610466610fd0565b005b610470611040565b60405161047d919061347e565b60405180910390f35b34801561049257600080fd5b506104ad60048036038101906104a89190612d2f565b61118d565b6040516104bb929190613499565b60405180910390f35b3480156104d057600080fd5b506104d96111c1565b6040516104e6919061327c565b60405180910390f35b3480156104fb57600080fd5b5061051660048036038101906105119190612c24565b611253565b005b34801561052457600080fd5b5061053f600480360381019061053a9190612ba9565b611269565b005b34801561054d57600080fd5b5061056860048036038101906105639190612d2f565b6112cb565b604051610575919061327c565b60405180910390f35b61059860048036038101906105939190612cee565b6112dd565b005b3480156105a657600080fd5b506105c160048036038101906105bc9190612b1e565b6112f7565b6040516105ce9190613261565b60405180910390f35b60006105e28261138b565b9050919050565b6060600b60008373ffffffffffffffffffffffffffffffffffffffff1673ffffffffffffffffffffffffffffffffffffffff168152602001908152602001600020805480602002602001604051908101604052809291908181526020016000905b828210156106905783829060005260206000209060020201604051806040016040529081600082015481526020016001820154815250508152602001906001019061064a565b505050509050919050565b6060600080546106aa906136ea565b80601f01602080910402602001604051908101604052809291908181526020018280546106d6906136ea565b80156107235780601f106106f857610100808354040283529160200191610723565b820191906000526020600020905b81548152906001019060200180831161070657829003601f168201915b5050505050905090565b600061073882611405565b6004600083815260200190815260200160002060009054906101000a900473ffffffffffffffffffffffffffffffffffffffff169050919050565b600061077e82610e8c565b90508073ffffffffffffffffffffffffffffffffffffffff168373ffffffffffffffffffffffffffffffffffffffff1614156107ef576040517f08c379a00000000000000000000000000000000000000000000000000000000081526004016107e6906133fe565b60405180910390fd5b8073ffffffffffffffffffffffffffffffffffffffff1661080e611450565b73ffffffffffffffffffffffffffffffffffffffff16148061083d575061083c81610837611450565b6112f7565b5b61087c576040517f08c379a00000000000000000000000000000000000000000000000000000000081526004016108739061341e565b60405180910390fd5b6108868383611458565b505050565b600b60205281600052604060002081815481106108a757600080fd5b9060005260206000209060020201600091509150508060000154908060010154905082565b6000600880549050905090565b6108ea6108e4611450565b82611511565b610929576040517f08c379a00000000000000000000000000000000000000000000000000000000081526004016109209061329e565b60405180910390fd5b6109348383836115a6565b505050565b6000600a8481548110610975577f4e487b7100000000000000000000000000000000000000000000000000000000600052603260045260246000fd5b906000526020600020906002020160405180604001604052908160008201548152602001600182015481525050905060005b600b60008573ffffffffffffffffffffffffffffffffffffffff1673ffffffffffffffffffffffffffffffffffffffff16815260200190815260200160002080549050811015610caa578160200151600b60008673ffffffffffffffffffffffffffffffffffffffff1673ffffffffffffffffffffffffffffffffffffffff1681526020019081526020016000208281548110610a6d577f4e487b7100000000000000000000000000000000000000000000000000000000600052603260045260246000fd5b9060005260206000209060020201600101541415610c9757600b60008573ffffffffffffffffffffffffffffffffffffffff1673ffffffffffffffffffffffffffffffffffffffff1681526020019081526020016000206001600b60008773ffffffffffffffffffffffffffffffffffffffff1673ffffffffffffffffffffffffffffffffffffffff16815260200190815260200160002080549050610b1391906135f6565b81548110610b4a577f4e487b7100000000000000000000000000000000000000000000000000000000600052603260045260246000fd5b9060005260206000209060020201600b60008673ffffffffffffffffffffffffffffffffffffffff1673ffffffffffffffffffffffffffffffffffffffff1681526020019081526020016000208281548110610bcf577f4e487b7100000000000000000000000000000000000000000000000000000000600052603260045260246000fd5b90600052602060002090600202016000820154816000015560018201548160010155905050600b60008573ffffffffffffffffffffffffffffffffffffffff1673ffffffffffffffffffffffffffffffffffffffff168152602001908152602001600020805480610c69577f4e487b7100000000000000000000000000000000000000000000000000000000600052603160045260246000fd5b6001900381819060005260206000209060020201600080820160009055600182016000905550509055610caa565b8080610ca290613796565b9150506109a7565b50600b60008373ffffffffffffffffffffffffffffffffffffffff1673ffffffffffffffffffffffffffffffffffffffff1681526020019081526020016000208190806001815401808255809150506001900390600052602060002090600202016000909190919091506000820151816000015560208201518160010155505050505050565b6000610d3b83610f18565b8210610d7c576040517f08c379a0000000000000000000000000000000000000000000000000000000008152600401610d73906132be565b60405180910390fd5b600660008473ffffffffffffffffffffffffffffffffffffffff1673ffffffffffffffffffffffffffffffffffffffff168152602001908152602001600020600083815260200190815260200160002054905092915050565b610df083838360405180602001604052806000815250611269565b505050565b6000610dff6108cc565b8210610e40576040517f08c379a0000000000000000000000000000000000000000000000000000000008152600401610e379061343e565b60405180910390fd5b60088281548110610e7a577f4e487b7100000000000000000000000000000000000000000000000000000000600052603260045260246000fd5b90600052602060002001549050919050565b600080610e98836118a0565b9050600073ffffffffffffffffffffffffffffffffffffffff168173ffffffffffffffffffffffffffffffffffffffff161415610f0a576040517f08c379a0000000000000000000000000000000000000000000000000000000008152600401610f01906133de565b60405180910390fd5b80915050919050565b600081565b60008073ffffffffffffffffffffffffffffffffffffffff168273ffffffffffffffffffffffffffffffffffffffff161415610f89576040517f08c379a0000000000000000000000000000000000000000000000000000000008152600401610f809061339e565b60405180910390fd5b600360008373ffffffffffffffffffffffffffffffffffffffff1673ffffffffffffffffffffffffffffffffffffffff168152602001908152602001600020549050919050565b600c54471015611015576040517f08c379a000000000000000000000000000000000000000000000000000000000815260040161100c9061333e565b60405180910390fd5b60005b600581121561103d57611029611040565b5080806110359061374d565b915050611018565b50565b6000600c54471015611087576040517f08c379a000000000000000000000000000000000000000000000000000000000815260040161107e9061333e565b60405180910390fd5b6000600a805490509050600061109e6029336118dd565b905060006040518060400160405280838152602001848152509050600b60003373ffffffffffffffffffffffffffffffffffffffff1673ffffffffffffffffffffffffffffffffffffffff16815260200190815260200160002081908060018154018082558091505060019003906000526020600020906002020160009091909190915060008201518160000155602082015181600101555050600a819080600181540180825580915050600190039060005260206000209060020201600090919091909150600082015181600001556020820151816001015550506111843384611945565b82935050505090565b600a818154811061119d57600080fd5b90600052602060002090600202016000915090508060000154908060010154905082565b6060600180546111d0906136ea565b80601f01602080910402602001604051908101604052809291908181526020018280546111fc906136ea565b80156112495780601f1061121e57610100808354040283529160200191611249565b820191906000526020600020905b81548152906001019060200180831161122c57829003601f168201915b5050505050905090565b61126561125e611450565b8383611963565b5050565b61127a611274611450565b83611511565b6112b9576040517f08c379a00000000000000000000000000000000000000000000000000000000081526004016112b09061329e565b60405180910390fd5b6112c584848484611ad0565b50505050565b60606112d682611b2c565b9050919050565b60006112e76108cc565b90506112f33382611945565b5050565b6000600560008473ffffffffffffffffffffffffffffffffffffffff1673ffffffffffffffffffffffffffffffffffffffff16815260200190815260200160002060008373ffffffffffffffffffffffffffffffffffffffff1673ffffffffffffffffffffffffffffffffffffffff16815260200190815260200160002060009054906101000a900460ff16905092915050565b60007f780e9d63000000000000000000000000000000000000000000000000000000007bffffffffffffffffffffffffffffffffffffffffffffffffffffffff1916827bffffffffffffffffffffffffffffffffffffffffffffffffffffffff191614806113fe57506113fd82611b94565b5b9050919050565b61140e81611c76565b61144d576040517f08c379a0000000000000000000000000000000000000000000000000000000008152600401611444906133de565b60405180910390fd5b50565b600033905090565b816004600083815260200190815260200160002060006101000a81548173ffffffffffffffffffffffffffffffffffffffff021916908373ffffffffffffffffffffffffffffffffffffffff160217905550808273ffffffffffffffffffffffffffffffffffffffff166114cb83610e8c565b73ffffffffffffffffffffffffffffffffffffffff167f8c5be1e5ebec7d5bd14f71427d1e84f3dd0314c0f7b2291e5b200ac8c7c3b92560405160405180910390a45050565b60008061151d83610e8c565b90508073ffffffffffffffffffffffffffffffffffffffff168473ffffffffffffffffffffffffffffffffffffffff16148061155f575061155e81856112f7565b5b8061159d57508373ffffffffffffffffffffffffffffffffffffffff166115858461072d565b73ffffffffffffffffffffffffffffffffffffffff16145b91505092915050565b8273ffffffffffffffffffffffffffffffffffffffff166115c682610e8c565b73ffffffffffffffffffffffffffffffffffffffff161461161c576040517f08c379a0000000000000000000000000000000000000000000000000000000008152600401611613906132fe565b60405180910390fd5b600073ffffffffffffffffffffffffffffffffffffffff168273ffffffffffffffffffffffffffffffffffffffff16141561168c576040517f08c379a00000000000000000000000000000000000000000000000000000000081526004016116839061335e565b60405180910390fd5b6116998383836001611cb7565b8273ffffffffffffffffffffffffffffffffffffffff166116b982610e8c565b73ffffffffffffffffffffffffffffffffffffffff161461170f576040517f08c379a0000000000000000000000000000000000000000000000000000000008152600401611706906132fe565b60405180910390fd5b6004600082815260200190815260200160002060006101000a81549073ffffffffffffffffffffffffffffffffffffffff02191690556001600360008573ffffffffffffffffffffffffffffffffffffffff1673ffffffffffffffffffffffffffffffffffffffff168152602001908152602001600020600082825403925050819055506001600360008473ffffffffffffffffffffffffffffffffffffffff1673ffffffffffffffffffffffffffffffffffffffff16815260200190815260200160002060008282540192505081905550816002600083815260200190815260200160002060006101000a81548173ffffffffffffffffffffffffffffffffffffffff021916908373ffffffffffffffffffffffffffffffffffffffff160217905550808273ffffffffffffffffffffffffffffffffffffffff168473ffffffffffffffffffffffffffffffffffffffff167fddf252ad1be2c89b69c2b068fc378daa952ba7f163c4a11628f55a4df523b3ef60405160405180910390a461189b8383836001611cc9565b505050565b60006002600083815260200190815260200160002060009054906101000a900473ffffffffffffffffffffffffffffffffffffffff169050919050565b600080444284600a805490506040516020016118fc949392919061318a565b6040516020818303038152906040528051906020012060001c90508381611923919061380d565b9150600082141561193e5760028461193b91906135c5565b91505b5092915050565b61195f828260405180602001604052806000815250611ccf565b5050565b8173ffffffffffffffffffffffffffffffffffffffff168373ffffffffffffffffffffffffffffffffffffffff1614156119d2576040517f08c379a00000000000000000000000000000000000000000000000000000000081526004016119c99061337e565b60405180910390fd5b80600560008573ffffffffffffffffffffffffffffffffffffffff1673ffffffffffffffffffffffffffffffffffffffff16815260200190815260200160002060008473ffffffffffffffffffffffffffffffffffffffff1673ffffffffffffffffffffffffffffffffffffffff16815260200190815260200160002060006101000a81548160ff0219169083151502179055508173ffffffffffffffffffffffffffffffffffffffff168373ffffffffffffffffffffffffffffffffffffffff167f17307eab39ab6107e8899845ad3d59bd9653f200f220920489ca2b5937696c3183604051611ac39190613261565b60405180910390a3505050565b611adb8484846115a6565b611ae784848484611d2a565b611b26576040517f08c379a0000000000000000000000000000000000000000000000000000000008152600401611b1d906132de565b60405180910390fd5b50505050565b6060611b3782611405565b6000611b41611ec1565b90506000815111611b615760405180602001604052806000815250611b8c565b80611b6b84611ed8565b604051602001611b7c929190613166565b6040516020818303038152906040525b915050919050565b60007f80ac58cd000000000000000000000000000000000000000000000000000000007bffffffffffffffffffffffffffffffffffffffffffffffffffffffff1916827bffffffffffffffffffffffffffffffffffffffffffffffffffffffff19161480611c5f57507f5b5e139f000000000000000000000000000000000000000000000000000000007bffffffffffffffffffffffffffffffffffffffffffffffffffffffff1916827bffffffffffffffffffffffffffffffffffffffffffffffffffffffff1916145b80611c6f5750611c6e82611ffc565b5b9050919050565b60008073ffffffffffffffffffffffffffffffffffffffff16611c98836118a0565b73ffffffffffffffffffffffffffffffffffffffff1614159050919050565b611cc384848484612066565b50505050565b50505050565b611cd983836121c6565b611ce66000848484611d2a565b611d25576040517f08c379a0000000000000000000000000000000000000000000000000000000008152600401611d1c906132de565b60405180910390fd5b505050565b6000611d4b8473ffffffffffffffffffffffffffffffffffffffff166123e4565b15611eb4578373ffffffffffffffffffffffffffffffffffffffff1663150b7a02611d74611450565b8786866040518563ffffffff1660e01b8152600401611d9694939291906131f3565b602060405180830381600087803b158015611db057600080fd5b505af1925050508015611de157506040513d601f19601f82011682018060405250810190611dde9190612cc5565b60015b611e64573d8060008114611e11576040519150601f19603f3d011682016040523d82523d6000602084013e611e16565b606091505b50600081511415611e5c576040517f08c379a0000000000000000000000000000000000000000000000000000000008152600401611e53906132de565b60405180910390fd5b805181602001fd5b63150b7a0260e01b7bffffffffffffffffffffffffffffffffffffffffffffffffffffffff1916817bffffffffffffffffffffffffffffffffffffffffffffffffffffffff191614915050611eb9565b600190505b949350505050565b606060405180602001604052806000815250905090565b606060006001611ee784612407565b01905060008167ffffffffffffffff811115611f2c577f4e487b7100000000000000000000000000000000000000000000000000000000600052604160045260246000fd5b6040519080825280601f01601f191660200182016040528015611f5e5781602001600182028036833780820191505090505b509050600082602001820190505b600115611ff1578080600190039150507f3031323334353637383961626364656600000000000000000000000000000000600a86061a8153600a8581611fdb577f4e487b7100000000000000000000000000000000000000000000000000000000600052601260045260246000fd5b0494506000851415611fec57611ff1565b611f6c565b819350505050919050565b60007f01ffc9a7000000000000000000000000000000000000000000000000000000007bffffffffffffffffffffffffffffffffffffffffffffffffffffffff1916827bffffffffffffffffffffffffffffffffffffffffffffffffffffffff1916149050919050565b6120728484848461263e565b60018111156120b6576040517f08c379a00000000000000000000000000000000000000000000000000000000081526004016120ad9061345e565b60405180910390fd5b6000829050600073ffffffffffffffffffffffffffffffffffffffff168573ffffffffffffffffffffffffffffffffffffffff1614156120fe576120f981612644565b61213d565b8373ffffffffffffffffffffffffffffffffffffffff168573ffffffffffffffffffffffffffffffffffffffff161461213c5761213b858261268d565b5b5b600073ffffffffffffffffffffffffffffffffffffffff168473ffffffffffffffffffffffffffffffffffffffff1614156121805761217b816127fa565b6121bf565b8473ffffffffffffffffffffffffffffffffffffffff168473ffffffffffffffffffffffffffffffffffffffff16146121be576121bd848261293d565b5b5b5050505050565b600073ffffffffffffffffffffffffffffffffffffffff168273ffffffffffffffffffffffffffffffffffffffff161415612236576040517f08c379a000000000000000000000000000000000000000000000000000000000815260040161222d906133be565b60405180910390fd5b61223f81611c76565b1561227f576040517f08c379a00000000000000000000000000000000000000000000000000000000081526004016122769061331e565b60405180910390fd5b61228d600083836001611cb7565b61229681611c76565b156122d6576040517f08c379a00000000000000000000000000000000000000000000000000000000081526004016122cd9061331e565b60405180910390fd5b6001600360008473ffffffffffffffffffffffffffffffffffffffff1673ffffffffffffffffffffffffffffffffffffffff16815260200190815260200160002060008282540192505081905550816002600083815260200190815260200160002060006101000a81548173ffffffffffffffffffffffffffffffffffffffff021916908373ffffffffffffffffffffffffffffffffffffffff160217905550808273ffffffffffffffffffffffffffffffffffffffff16600073ffffffffffffffffffffffffffffffffffffffff167fddf252ad1be2c89b69c2b068fc378daa952ba7f163c4a11628f55a4df523b3ef60405160405180910390a46123e0600083836001611cc9565b5050565b6000808273ffffffffffffffffffffffffffffffffffffffff163b119050919050565b600080600090507a184f03e93ff9f4daa797ed6e38ed64bf6a1f010000000000000000831061248b577a184f03e93ff9f4daa797ed6e38ed64bf6a1f0100000000000000008381612481577f4e487b7100000000000000000000000000000000000000000000000000000000600052601260045260246000fd5b0492506040810190505b6d04ee2d6d415b85acef810000000083106124ee576d04ee2d6d415b85acef810000000083816124e4577f4e487b7100000000000000000000000000000000000000000000000000000000600052601260045260246000fd5b0492506020810190505b662386f26fc10000831061254357662386f26fc100008381612539577f4e487b7100000000000000000000000000000000000000000000000000000000600052601260045260246000fd5b0492506010810190505b6305f5e1008310612592576305f5e1008381612588577f4e487b7100000000000000000000000000000000000000000000000000000000600052601260045260246000fd5b0492506008810190505b61271083106125dd5761271083816125d3577f4e487b7100000000000000000000000000000000000000000000000000000000600052601260045260246000fd5b0492506004810190505b60648310612626576064838161261c577f4e487b7100000000000000000000000000000000000000000000000000000000600052601260045260246000fd5b0492506002810190505b600a8310612635576001810190505b80915050919050565b50505050565b6008805490506009600083815260200190815260200160002081905550600881908060018154018082558091505060019003906000526020600020016000909190919091505550565b6000600161269a84610f18565b6126a491906135f6565b9050600060076000848152602001908152602001600020549050818114612789576000600660008673ffffffffffffffffffffffffffffffffffffffff1673ffffffffffffffffffffffffffffffffffffffff168152602001908152602001600020600084815260200190815260200160002054905080600660008773ffffffffffffffffffffffffffffffffffffffff1673ffffffffffffffffffffffffffffffffffffffff168152602001908152602001600020600084815260200190815260200160002081905550816007600083815260200190815260200160002081905550505b6007600084815260200190815260200160002060009055600660008573ffffffffffffffffffffffffffffffffffffffff1673ffffffffffffffffffffffffffffffffffffffff16815260200190815260200160002060008381526020019081526020016000206000905550505050565b6000600160088054905061280e91906135f6565b9050600060096000848152602001908152602001600020549050600060088381548110612864577f4e487b7100000000000000000000000000000000000000000000000000000000600052603260045260246000fd5b9060005260206000200154905080600883815481106128ac577f4e487b7100000000000000000000000000000000000000000000000000000000600052603260045260246000fd5b906000526020600020018190555081600960008381526020019081526020016000208190555060096000858152602001908152602001600020600090556008805480612921577f4e487b7100000000000000000000000000000000000000000000000000000000600052603160045260246000fd5b6001900381819060005260206000200160009055905550505050565b600061294883610f18565b905081600660008573ffffffffffffffffffffffffffffffffffffffff1673ffffffffffffffffffffffffffffffffffffffff168152602001908152602001600020600083815260200190815260200160002081905550806007600084815260200190815260200160002081905550505050565b60006129cf6129ca846134e7565b6134c2565b9050828152602081018484840111156129e757600080fd5b6129f28482856136a8565b509392505050565b6000612a0d612a0884613518565b6134c2565b905082815260208101848484011115612a2557600080fd5b612a308482856136a8565b509392505050565b600081359050612a4781613d21565b92915050565b600081359050612a5c81613d38565b92915050565b600081359050612a7181613d4f565b92915050565b600081519050612a8681613d4f565b92915050565b600082601f830112612a9d57600080fd5b8135612aad8482602086016129bc565b91505092915050565b600082601f830112612ac757600080fd5b8135612ad78482602086016129fa565b91505092915050565b600081359050612aef81613d66565b92915050565b600060208284031215612b0757600080fd5b6000612b1584828501612a38565b91505092915050565b60008060408385031215612b3157600080fd5b6000612b3f85828601612a38565b9250506020612b5085828601612a38565b9150509250929050565b600080600060608486031215612b6f57600080fd5b6000612b7d86828701612a38565b9350506020612b8e86828701612a38565b9250506040612b9f86828701612ae0565b9150509250925092565b60008060008060808587031215612bbf57600080fd5b6000612bcd87828801612a38565b9450506020612bde87828801612a38565b9350506040612bef87828801612ae0565b925050606085013567ffffffffffffffff811115612c0c57600080fd5b612c1887828801612a8c565b91505092959194509250565b60008060408385031215612c3757600080fd5b6000612c4585828601612a38565b9250506020612c5685828601612a4d565b9150509250929050565b60008060408385031215612c7357600080fd5b6000612c8185828601612a38565b9250506020612c9285828601612ae0565b9150509250929050565b600060208284031215612cae57600080fd5b6000612cbc84828501612a62565b91505092915050565b600060208284031215612cd757600080fd5b6000612ce584828501612a77565b91505092915050565b600060208284031215612d0057600080fd5b600082013567ffffffffffffffff811115612d1a57600080fd5b612d2684828501612ab6565b91505092915050565b600060208284031215612d4157600080fd5b6000612d4f84828501612ae0565b91505092915050565b600080600060608486031215612d6d57600080fd5b6000612d7b86828701612ae0565b9350506020612d8c86828701612a38565b9250506040612d9d86828701612a38565b9150509250925092565b6000612db38383613102565b60408301905092915050565b612dc88161362a565b82525050565b612ddf612dda8261362a565b6137df565b82525050565b6000612df082613559565b612dfa8185613587565b9350612e0583613549565b8060005b83811015612e36578151612e1d8882612da7565b9750612e288361357a565b925050600181019050612e09565b5085935050505092915050565b612e4c8161363c565b82525050565b6000612e5d82613564565b612e678185613598565b9350612e778185602086016136b7565b612e80816138fa565b840191505092915050565b6000612e968261356f565b612ea081856135a9565b9350612eb08185602086016136b7565b612eb9816138fa565b840191505092915050565b6000612ecf8261356f565b612ed981856135ba565b9350612ee98185602086016136b7565b80840191505092915050565b6000612f02602d836135a9565b9150612f0d82613918565b604082019050919050565b6000612f25602b836135a9565b9150612f3082613967565b604082019050919050565b6000612f486032836135a9565b9150612f53826139b6565b604082019050919050565b6000612f6b6025836135a9565b9150612f7682613a05565b604082019050919050565b6000612f8e601c836135a9565b9150612f9982613a54565b602082019050919050565b6000612fb16029836135a9565b9150612fbc82613a7d565b604082019050919050565b6000612fd46024836135a9565b9150612fdf82613acc565b604082019050919050565b6000612ff76019836135a9565b915061300282613b1b565b602082019050919050565b600061301a6029836135a9565b915061302582613b44565b604082019050919050565b600061303d6020836135a9565b915061304882613b93565b602082019050919050565b60006130606018836135a9565b915061306b82613bbc565b602082019050919050565b60006130836021836135a9565b915061308e82613be5565b604082019050919050565b60006130a6603d836135a9565b91506130b182613c34565b604082019050919050565b60006130c9602c836135a9565b91506130d482613c83565b604082019050919050565b60006130ec6035836135a9565b91506130f782613cd2565b604082019050919050565b6040820160008201516131186000850182613131565b50602082015161312b6020850182613131565b50505050565b61313a8161369e565b82525050565b6131498161369e565b82525050565b61316061315b8261369e565b613803565b82525050565b60006131728285612ec4565b915061317e8284612ec4565b91508190509392505050565b6000613196828761314f565b6020820191506131a6828661314f565b6020820191506131b68285612dce565b6014820191506131c6828461314f565b60208201915081905095945050505050565b60006020820190506131ed6000830184612dbf565b92915050565b60006080820190506132086000830187612dbf565b6132156020830186612dbf565b6132226040830185613140565b81810360608301526132348184612e52565b905095945050505050565b600060208201905081810360008301526132598184612de5565b905092915050565b60006020820190506132766000830184612e43565b92915050565b600060208201905081810360008301526132968184612e8b565b905092915050565b600060208201905081810360008301526132b781612ef5565b9050919050565b600060208201905081810360008301526132d781612f18565b9050919050565b600060208201905081810360008301526132f781612f3b565b9050919050565b6000602082019050818103600083015261331781612f5e565b9050919050565b6000602082019050818103600083015261333781612f81565b9050919050565b6000602082019050818103600083015261335781612fa4565b9050919050565b6000602082019050818103600083015261337781612fc7565b9050919050565b6000602082019050818103600083015261339781612fea565b9050919050565b600060208201905081810360008301526133b78161300d565b9050919050565b600060208201905081810360008301526133d781613030565b9050919050565b600060208201905081810360008301526133f781613053565b9050919050565b6000602082019050818103600083015261341781613076565b9050919050565b6000602082019050818103600083015261343781613099565b9050919050565b60006020820190508181036000830152613457816130bc565b9050919050565b60006020820190508181036000830152613477816130df565b9050919050565b60006020820190506134936000830184613140565b92915050565b60006040820190506134ae6000830185613140565b6134bb6020830184613140565b9392505050565b60006134cc6134dd565b90506134d8828261371c565b919050565b6000604051905090565b600067ffffffffffffffff821115613502576135016138cb565b5b61350b826138fa565b9050602081019050919050565b600067ffffffffffffffff821115613533576135326138cb565b5b61353c826138fa565b9050602081019050919050565b6000819050602082019050919050565b600081519050919050565b600081519050919050565b600081519050919050565b6000602082019050919050565b600082825260208201905092915050565b600082825260208201905092915050565b600082825260208201905092915050565b600081905092915050565b60006135d08261369e565b91506135db8361369e565b9250826135eb576135ea61386d565b5b828204905092915050565b60006136018261369e565b915061360c8361369e565b92508282101561361f5761361e61383e565b5b828203905092915050565b60006136358261367e565b9050919050565b60008115159050919050565b60007fffffffff0000000000000000000000000000000000000000000000000000000082169050919050565b6000819050919050565b600073ffffffffffffffffffffffffffffffffffffffff82169050919050565b6000819050919050565b82818337600083830152505050565b60005b838110156136d55780820151818401526020810190506136ba565b838111156136e4576000848401525b50505050565b6000600282049050600182168061370257607f821691505b602082108114156137165761371561389c565b5b50919050565b613725826138fa565b810181811067ffffffffffffffff82111715613744576137436138cb565b5b80604052505050565b600061375882613674565b91507f7fffffffffffffffffffffffffffffffffffffffffffffffffffffffffffffff82141561378b5761378a61383e565b5b600182019050919050565b60006137a18261369e565b91507fffffffffffffffffffffffffffffffffffffffffffffffffffffffffffffffff8214156137d4576137d361383e565b5b600182019050919050565b60006137ea826137f1565b9050919050565b60006137fc8261390b565b9050919050565b6000819050919050565b60006138188261369e565b91506138238361369e565b9250826138335761383261386d565b5b828206905092915050565b7f4e487b7100000000000000000000000000000000000000000000000000000000600052601160045260246000fd5b7f4e487b7100000000000000000000000000000000000000000000000000000000600052601260045260246000fd5b7f4e487b7100000000000000000000000000000000000000000000000000000000600052602260045260246000fd5b7f4e487b7100000000000000000000000000000000000000000000000000000000600052604160045260246000fd5b6000601f19601f8301169050919050565b60008160601b9050919050565b7f4552433732313a2063616c6c6572206973206e6f7420746f6b656e206f776e6560008201527f72206f7220617070726f76656400000000000000000000000000000000000000602082015250565b7f455243373231456e756d657261626c653a206f776e657220696e646578206f7560008201527f74206f6620626f756e6473000000000000000000000000000000000000000000602082015250565b7f4552433732313a207472616e7366657220746f206e6f6e20455243373231526560008201527f63656976657220696d706c656d656e7465720000000000000000000000000000602082015250565b7f4552433732313a207472616e736665722066726f6d20696e636f72726563742060008201527f6f776e6572000000000000000000000000000000000000000000000000000000602082015250565b7f4552433732313a20746f6b656e20616c7265616479206d696e74656400000000600082015250565b7f496e73756666696369656e7420455448202d2066696c6c20636f6e747261637460008201527f2077697468204554480000000000000000000000000000000000000000000000602082015250565b7f4552433732313a207472616e7366657220746f20746865207a65726f2061646460008201527f7265737300000000000000000000000000000000000000000000000000000000602082015250565b7f4552433732313a20617070726f766520746f2063616c6c657200000000000000600082015250565b7f4552433732313a2061646472657373207a65726f206973206e6f74206120766160008201527f6c6964206f776e65720000000000000000000000000000000000000000000000602082015250565b7f4552433732313a206d696e7420746f20746865207a65726f2061646472657373600082015250565b7f4552433732313a20696e76616c696420746f6b656e2049440000000000000000600082015250565b7f4552433732313a20617070726f76616c20746f2063757272656e74206f776e6560008201527f7200000000000000000000000000000000000000000000000000000000000000602082015250565b7f4552433732313a20617070726f76652063616c6c6572206973206e6f7420746f60008201527f6b656e206f776e6572206f7220617070726f76656420666f7220616c6c000000602082015250565b7f455243373231456e756d657261626c653a20676c6f62616c20696e646578206f60008201527f7574206f6620626f756e64730000000000000000000000000000000000000000602082015250565b7f455243373231456e756d657261626c653a20636f6e736563757469766520747260008201527f616e7366657273206e6f7420737570706f727465640000000000000000000000602082015250565b613d2a8161362a565b8114613d3557600080fd5b50565b613d418161363c565b8114613d4c57600080fd5b50565b613d5881613648565b8114613d6357600080fd5b50565b613d6f8161369e565b8114613d7a57600080fd5b5056fea2646970667358221220ebd78b315d228540609a4914bb0f8b718d08b21e8ba0e7aae0bb9b096c1be92464736f6c63430008040033",
  "linkReferences": {},
  "deployedLinkReferences": {}
}