{
  "_format": "hh-sol-artifact-1",
  "contractName": "TradingCardMinter",
  "sourceName": "contracts/TradingCardMinter.sol",
  "abi": [
    {
      "inputs": [],
      "stateMutability": "payable",
      "type": "constructor"
    },
    {
      "anonymous": false,
      "inputs": [
        {
          "indexed": true,
          "internalType": "address",
          "name": "owner",
          "type": "address"
        },
        {
          "indexed": true,
          "internalType": "address",
          "name": "approved",
          "type": "address"
        },
        {
          "indexed": true,
          "internalType": "uint256",
          "name": "tokenId",
          "type": "uint256"
        }
      ],
      "name": "Approval",
      "type": "event"
    },
    {
      "anonymous": false,
      "inputs": [
        {
          "indexed": true,
          "internalType": "address",
          "name": "owner",
          "type": "address"
        },
        {
          "indexed": true,
          "internalType": "address",
          "name": "operator",
          "type": "address"
        },
        {
          "indexed": false,
          "internalType": "bool",
          "name": "approved",
          "type": "bool"
        }
      ],
      "name": "ApprovalForAll",
      "type": "event"
    },
    {
      "anonymous": false,
      "inputs": [
        {
          "indexed": true,
          "internalType": "address",
          "name": "from",
          "type": "address"
        },
        {
          "indexed": true,
          "internalType": "address",
          "name": "to",
          "type": "address"
        },
        {
          "indexed": true,
          "internalType": "uint256",
          "name": "tokenId",
          "type": "uint256"
        }
      ],
      "name": "Transfer",
      "type": "event"
    },
    {
      "inputs": [
        {
          "internalType": "address",
          "name": "to",
          "type": "address"
        },
        {
          "internalType": "uint256",
          "name": "tokenId",
          "type": "uint256"
        }
      ],
      "name": "approve",
      "outputs": [],
      "stateMutability": "nonpayable",
      "type": "function"
    },
    {
      "inputs": [
        {
          "internalType": "address",
          "name": "owner",
          "type": "address"
        }
      ],
      "name": "balanceOf",
      "outputs": [
        {
          "internalType": "uint256",
          "name": "",
          "type": "uint256"
        }
      ],
      "stateMutability": "view",
      "type": "function"
    },
    {
      "inputs": [],
      "name": "buyCardPack",
      "outputs": [],
      "stateMutability": "payable",
      "type": "function"
    },
    {
      "inputs": [
        {
          "internalType": "uint256",
          "name": "",
          "type": "uint256"
        }
      ],
      "name": "cards",
      "outputs": [
        {
          "internalType": "uint256",
          "name": "cardId",
          "type": "uint256"
        },
        {
          "internalType": "uint256",
          "name": "tokenId",
          "type": "uint256"
        }
      ],
      "stateMutability": "view",
      "type": "function"
    },
    {
      "inputs": [
        {
          "internalType": "uint256",
          "name": "tokenId",
          "type": "uint256"
        }
      ],
      "name": "getApproved",
      "outputs": [
        {
          "internalType": "address",
          "name": "",
          "type": "address"
        }
      ],
      "stateMutability": "view",
      "type": "function"
    },
    {
      "inputs": [
        {
          "internalType": "address",
          "name": "_address",
          "type": "address"
        }
      ],
      "name": "getCardsUnderOwner",
      "outputs": [
        {
          "components": [
            {
              "internalType": "uint256",
              "name": "cardId",
              "type": "uint256"
            },
            {
              "internalType": "uint256",
              "name": "tokenId",
              "type": "uint256"
            }
          ],
          "internalType": "struct TradingCardMinter.Card[]",
          "name": "",
          "type": "tuple[]"
        }
      ],
      "stateMutability": "view",
      "type": "function"
    },
    {
      "inputs": [
        {
          "internalType": "address",
          "name": "owner",
          "type": "address"
        },
        {
          "internalType": "address",
          "name": "operator",
          "type": "address"
        }
      ],
      "name": "isApprovedForAll",
      "outputs": [
        {
          "internalType": "bool",
          "name": "",
          "type": "bool"
        }
      ],
      "stateMutability": "view",
      "type": "function"
    },
    {
      "inputs": [
        {
          "internalType": "string",
          "name": "_uri",
          "type": "string"
        }
      ],
      "name": "mint",
      "outputs": [],
      "stateMutability": "payable",
      "type": "function"
    },
    {
      "inputs": [],
      "name": "mintPrice",
      "outputs": [
        {
          "internalType": "uint256",
          "name": "",
          "type": "uint256"
        }
      ],
      "stateMutability": "view",
      "type": "function"
    },
    {
      "inputs": [],
      "name": "name",
      "outputs": [
        {
          "internalType": "string",
          "name": "",
          "type": "string"
        }
      ],
      "stateMutability": "view",
      "type": "function"
    },
    {
      "inputs": [
        {
          "internalType": "uint256",
          "name": "tokenId",
          "type": "uint256"
        }
      ],
      "name": "ownerOf",
      "outputs": [
        {
          "internalType": "address",
          "name": "",
          "type": "address"
        }
      ],
      "stateMutability": "view",
      "type": "function"
    },
    {
      "inputs": [],
      "name": "requestNewCard",
      "outputs": [
        {
          "internalType": "uint256",
          "name": "",
          "type": "uint256"
        }
      ],
      "stateMutability": "payable",
      "type": "function"
    },
    {
      "inputs": [
        {
          "internalType": "address",
          "name": "from",
          "type": "address"
        },
        {
          "internalType": "address",
          "name": "to",
          "type": "address"
        },
        {
          "internalType": "uint256",
          "name": "tokenId",
          "type": "uint256"
        }
      ],
      "name": "safeTransferFrom",
      "outputs": [],
      "stateMutability": "nonpayable",
      "type": "function"
    },
    {
      "inputs": [
        {
          "internalType": "address",
          "name": "from",
          "type": "address"
        },
        {
          "internalType": "address",
          "name": "to",
          "type": "address"
        },
        {
          "internalType": "uint256",
          "name": "tokenId",
          "type": "uint256"
        },
        {
          "internalType": "bytes",
          "name": "data",
          "type": "bytes"
        }
      ],
      "name": "safeTransferFrom",
      "outputs": [],
      "stateMutability": "nonpayable",
      "type": "function"
    },
    {
      "inputs": [
        {
          "internalType": "address",
          "name": "operator",
          "type": "address"
        },
        {
          "internalType": "bool",
          "name": "approved",
          "type": "bool"
        }
      ],
      "name": "setApprovalForAll",
      "outputs": [],
      "stateMutability": "nonpayable",
      "type": "function"
    },
    {
      "inputs": [
        {
          "internalType": "bytes4",
          "name": "interfaceId",
          "type": "bytes4"
        }
      ],
      "name": "supportsInterface",
      "outputs": [
        {
          "internalType": "bool",
          "name": "",
          "type": "bool"
        }
      ],
      "stateMutability": "view",
      "type": "function"
    },
    {
      "inputs": [],
      "name": "symbol",
      "outputs": [
        {
          "internalType": "string",
          "name": "",
          "type": "string"
        }
      ],
      "stateMutability": "view",
      "type": "function"
    },
    {
      "inputs": [
        {
          "internalType": "uint256",
          "name": "index",
          "type": "uint256"
        }
      ],
      "name": "tokenByIndex",
      "outputs": [
        {
          "internalType": "uint256",
          "name": "",
          "type": "uint256"
        }
      ],
      "stateMutability": "view",
      "type": "function"
    },
    {
      "inputs": [
        {
          "internalType": "address",
          "name": "owner",
          "type": "address"
        },
        {
          "internalType": "uint256",
          "name": "index",
          "type": "uint256"
        }
      ],
      "name": "tokenOfOwnerByIndex",
      "outputs": [
        {
          "internalType": "uint256",
          "name": "",
          "type": "uint256"
        }
      ],
      "stateMutability": "view",
      "type": "function"
    },
    {
      "inputs": [
        {
          "internalType": "uint256",
          "name": "tokenId",
          "type": "uint256"
        }
      ],
      "name": "tokenURI",
      "outputs": [
        {
          "internalType": "string",
          "name": "",
          "type": "string"
        }
      ],
      "stateMutability": "view",
      "type": "function"
    },
    {
      "inputs": [],
      "name": "totalSupply",
      "outputs": [
        {
          "internalType": "uint256",
          "name": "",
          "type": "uint256"
        }
      ],
      "stateMutability": "view",
      "type": "function"
    },
    {
      "inputs": [
        {
          "internalType": "uint256",
          "name": "tokenId",
          "type": "uint256"
        },
        {
          "internalType": "address",
          "name": "from",
          "type": "address"
        },
        {
          "internalType": "address",
          "name": "to",
          "type": "address"
        }
      ],
      "name": "transferCardToNewOwner",
      "outputs": [],
      "stateMutability": "nonpayable",
      "type": "function"
    },
    {
      "inputs": [
        {
          "internalType": "address",
          "name": "from",
          "type": "address"
        },
        {
          "internalType": "address",
          "name": "to",
          "type": "address"
        },
        {
          "internalType": "uint256",
          "name": "tokenId",
          "type": "uint256"
        }
      ],
      "name": "transferFrom",
      "outputs": [],
      "stateMutability": "nonpayable",
      "type": "function"
    },
    {
      "inputs": [
        {
          "internalType": "address",
          "name": "",
          "type": "address"
        },
        {
          "internalType": "uint256",
          "name": "",
          "type": "uint256"
        }
      ],
      "name": "userCards",
      "outputs": [
        {
          "internalType": "uint256",
          "name": "cardId",
          "type": "uint256"
        },
        {
          "internalType": "uint256",
          "name": "tokenId",
          "type": "uint256"
        }
      ],
      "stateMutability": "view",
      "type": "function"
    }
  ],
  "bytecode": "0x608060405267016345785d8a0000600c556040518060400160405280601481526020017f4d65746176657273654d617968656d43617264730000000000000000000000008152506040518060400160405280600381526020017f4d4d540000000000000000000000000000000000000000000000000000000000815250816000908051906020019062000094929190620000b6565b508060019080519060200190620000ad929190620000b6565b505050620001cb565b828054620000c49062000166565b90600052602060002090601f016020900481019282620000e8576000855562000134565b82601f106200010357805160ff191683800117855562000134565b8280016001018555821562000134579182015b828111156200013357825182559160200191906001019062000116565b5b50905062000143919062000147565b5090565b5b808211156200016257600081600090555060010162000148565b5090565b600060028204905060018216806200017f57607f821691505b602082108114156200019657620001956200019c565b5b50919050565b7f4e487b7100000000000000000000000000000000000000000000000000000000600052602260045260246000fd5b613d9b80620001db6000396000f3fe60806040526004361061014b5760003560e01c80636352211e116100b657806395d89b411161006f57806395d89b41146104c4578063a22cb465146104ef578063b88d4fde14610518578063c87b56dd14610541578063d85d3d271461057e578063e985e9c51461059a5761014b565b80636352211e146103b95780636817c76c146103f657806370a082311461042157806379ef1b381461045e5780638bf96c6c146104685780638dc10768146104865761014b565b806318160ddd1161010857806318160ddd1461029957806323b872dd146102c45780632c5ef38f146102ed5780632f745c591461031657806342842e0e146103535780634f6ccce71461037c5761014b565b806301ffc9a714610150578063041447561461018d57806306fdde03146101ca578063081812fc146101f5578063095ea7b314610232578063172b6b621461025b575b600080fd5b34801561015c57600080fd5b5061017760048036038101906101729190612c95565b6105d7565b6040516101849190613249565b60405180910390f35b34801561019957600080fd5b506101b460048036038101906101af9190612aee565b6105e9565b6040516101c19190613227565b60405180910390f35b3480156101d657600080fd5b506101df61069b565b6040516101ec9190613264565b60405180910390f35b34801561020157600080fd5b5061021c60048036038101906102179190612d28565b61072d565b60405161022991906131c0565b60405180910390f35b34801561023e57600080fd5b5061025960048036038101906102549190612c59565b610773565b005b34801561026757600080fd5b50610282600480360381019061027d9190612c59565b61088b565b604051610290929190613481565b60405180910390f35b3480156102a557600080fd5b506102ae6108cc565b6040516102bb9190613466565b60405180910390f35b3480156102d057600080fd5b506102eb60048036038101906102e69190612b53565b6108d9565b005b3480156102f957600080fd5b50610314600480360381019061030f9190612d51565b610939565b005b34801561032257600080fd5b5061033d60048036038101906103389190612c59565b610d30565b60405161034a9190613466565b60405180910390f35b34801561035f57600080fd5b5061037a60048036038101906103759190612b53565b610dd5565b005b34801561038857600080fd5b506103a3600480360381019061039e9190612d28565b610df5565b6040516103b09190613466565b60405180910390f35b3480156103c557600080fd5b506103e060048036038101906103db9190612d28565b610e8c565b6040516103ed91906131c0565b60405180910390f35b34801561040257600080fd5b5061040b610f13565b6040516104189190613466565b60405180910390f35b34801561042d57600080fd5b5061044860048036038101906104439190612aee565b610f18565b6040516104559190613466565b60405180910390f35b610466610fd0565b005b610470611040565b60405161047d9190613466565b60405180910390f35b34801561049257600080fd5b506104ad60048036038101906104a89190612d28565b61118d565b6040516104bb929190613481565b60405180910390f35b3480156104d057600080fd5b506104d96111c1565b6040516104e69190613264565b60405180910390f35b3480156104fb57600080fd5b5061051660048036038101906105119190612c1d565b611253565b005b34801561052457600080fd5b5061053f600480360381019061053a9190612ba2565b611269565b005b34801561054d57600080fd5b5061056860048036038101906105639190612d28565b6112cb565b6040516105759190613264565b60405180910390f35b61059860048036038101906105939190612ce7565b6112dd565b005b3480156105a657600080fd5b506105c160048036038101906105bc9190612b17565b6112f7565b6040516105ce9190613249565b60405180910390f35b60006105e28261138b565b9050919050565b6060600b60008373ffffffffffffffffffffffffffffffffffffffff1673ffffffffffffffffffffffffffffffffffffffff168152602001908152602001600020805480602002602001604051908101604052809291908181526020016000905b828210156106905783829060005260206000209060020201604051806040016040529081600082015481526020016001820154815250508152602001906001019061064a565b505050509050919050565b6060600080546106aa906136d2565b80601f01602080910402602001604051908101604052809291908181526020018280546106d6906136d2565b80156107235780601f106106f857610100808354040283529160200191610723565b820191906000526020600020905b81548152906001019060200180831161070657829003601f168201915b5050505050905090565b600061073882611405565b6004600083815260200190815260200160002060009054906101000a900473ffffffffffffffffffffffffffffffffffffffff169050919050565b600061077e82610e8c565b90508073ffffffffffffffffffffffffffffffffffffffff168373ffffffffffffffffffffffffffffffffffffffff1614156107ef576040517f08c379a00000000000000000000000000000000000000000000000000000000081526004016107e6906133e6565b60405180910390fd5b8073ffffffffffffffffffffffffffffffffffffffff1661080e611450565b73ffffffffffffffffffffffffffffffffffffffff16148061083d575061083c81610837611450565b6112f7565b5b61087c576040517f08c379a000000000000000000000000000000000000000000000000000000000815260040161087390613406565b60405180910390fd5b6108868383611458565b505050565b600b60205281600052604060002081815481106108a757600080fd5b9060005260206000209060020201600091509150508060000154908060010154905082565b6000600880549050905090565b6108ea6108e4611450565b82611511565b610929576040517f08c379a000000000000000000000000000000000000000000000000000000000815260040161092090613286565b60405180910390fd5b6109348383836115a6565b505050565b6000600a8481548110610975577f4e487b7100000000000000000000000000000000000000000000000000000000600052603260045260246000fd5b906000526020600020906002020160405180604001604052908160008201548152602001600182015481525050905060005b600b60008573ffffffffffffffffffffffffffffffffffffffff1673ffffffffffffffffffffffffffffffffffffffff16815260200190815260200160002080549050811015610caa578160200151600b60008673ffffffffffffffffffffffffffffffffffffffff1673ffffffffffffffffffffffffffffffffffffffff1681526020019081526020016000208281548110610a6d577f4e487b7100000000000000000000000000000000000000000000000000000000600052603260045260246000fd5b9060005260206000209060020201600101541415610c9757600b60008573ffffffffffffffffffffffffffffffffffffffff1673ffffffffffffffffffffffffffffffffffffffff1681526020019081526020016000206001600b60008773ffffffffffffffffffffffffffffffffffffffff1673ffffffffffffffffffffffffffffffffffffffff16815260200190815260200160002080549050610b1391906135de565b81548110610b4a577f4e487b7100000000000000000000000000000000000000000000000000000000600052603260045260246000fd5b9060005260206000209060020201600b60008673ffffffffffffffffffffffffffffffffffffffff1673ffffffffffffffffffffffffffffffffffffffff1681526020019081526020016000208281548110610bcf577f4e487b7100000000000000000000000000000000000000000000000000000000600052603260045260246000fd5b90600052602060002090600202016000820154816000015560018201548160010155905050600b60008573ffffffffffffffffffffffffffffffffffffffff1673ffffffffffffffffffffffffffffffffffffffff168152602001908152602001600020805480610c69577f4e487b7100000000000000000000000000000000000000000000000000000000600052603160045260246000fd5b6001900381819060005260206000209060020201600080820160009055600182016000905550509055610caa565b8080610ca29061377e565b9150506109a7565b50600b60008373ffffffffffffffffffffffffffffffffffffffff1673ffffffffffffffffffffffffffffffffffffffff1681526020019081526020016000208190806001815401808255809150506001900390600052602060002090600202016000909190919091506000820151816000015560208201518160010155505050505050565b6000610d3b83610f18565b8210610d7c576040517f08c379a0000000000000000000000000000000000000000000000000000000008152600401610d73906132a6565b60405180910390fd5b600660008473ffffffffffffffffffffffffffffffffffffffff1673ffffffffffffffffffffffffffffffffffffffff168152602001908152602001600020600083815260200190815260200160002054905092915050565b610df083838360405180602001604052806000815250611269565b505050565b6000610dff6108cc565b8210610e40576040517f08c379a0000000000000000000000000000000000000000000000000000000008152600401610e3790613426565b60405180910390fd5b60088281548110610e7a577f4e487b7100000000000000000000000000000000000000000000000000000000600052603260045260246000fd5b90600052602060002001549050919050565b600080610e98836118a0565b9050600073ffffffffffffffffffffffffffffffffffffffff168173ffffffffffffffffffffffffffffffffffffffff161415610f0a576040517f08c379a0000000000000000000000000000000000000000000000000000000008152600401610f01906133c6565b60405180910390fd5b80915050919050565b600081565b60008073ffffffffffffffffffffffffffffffffffffffff168273ffffffffffffffffffffffffffffffffffffffff161415610f89576040517f08c379a0000000000000000000000000000000000000000000000000000000008152600401610f8090613386565b60405180910390fd5b600360008373ffffffffffffffffffffffffffffffffffffffff1673ffffffffffffffffffffffffffffffffffffffff168152602001908152602001600020549050919050565b600c54471015611015576040517f08c379a000000000000000000000000000000000000000000000000000000000815260040161100c90613326565b60405180910390fd5b60005b600581121561103d57611029611040565b50808061103590613735565b915050611018565b50565b6000600c54471015611087576040517f08c379a000000000000000000000000000000000000000000000000000000000815260040161107e90613326565b60405180910390fd5b6000600a805490509050600061109e600f336118dd565b905060006040518060400160405280838152602001848152509050600b60003373ffffffffffffffffffffffffffffffffffffffff1673ffffffffffffffffffffffffffffffffffffffff16815260200190815260200160002081908060018154018082558091505060019003906000526020600020906002020160009091909190915060008201518160000155602082015181600101555050600a81908060018154018082558091505060019003906000526020600020906002020160009091909190915060008201518160000155602082015181600101555050611184338461193e565b82935050505090565b600a818154811061119d57600080fd5b90600052602060002090600202016000915090508060000154908060010154905082565b6060600180546111d0906136d2565b80601f01602080910402602001604051908101604052809291908181526020018280546111fc906136d2565b80156112495780601f1061121e57610100808354040283529160200191611249565b820191906000526020600020905b81548152906001019060200180831161122c57829003601f168201915b5050505050905090565b61126561125e611450565b838361195c565b5050565b61127a611274611450565b83611511565b6112b9576040517f08c379a00000000000000000000000000000000000000000000000000000000081526004016112b090613286565b60405180910390fd5b6112c584848484611ac9565b50505050565b60606112d682611b25565b9050919050565b60006112e76108cc565b90506112f3338261193e565b5050565b6000600560008473ffffffffffffffffffffffffffffffffffffffff1673ffffffffffffffffffffffffffffffffffffffff16815260200190815260200160002060008373ffffffffffffffffffffffffffffffffffffffff1673ffffffffffffffffffffffffffffffffffffffff16815260200190815260200160002060009054906101000a900460ff16905092915050565b60007f780e9d63000000000000000000000000000000000000000000000000000000007bffffffffffffffffffffffffffffffffffffffffffffffffffffffff1916827bffffffffffffffffffffffffffffffffffffffffffffffffffffffff191614806113fe57506113fd82611b8d565b5b9050919050565b61140e81611c6f565b61144d576040517f08c379a0000000000000000000000000000000000000000000000000000000008152600401611444906133c6565b60405180910390fd5b50565b600033905090565b816004600083815260200190815260200160002060006101000a81548173ffffffffffffffffffffffffffffffffffffffff021916908373ffffffffffffffffffffffffffffffffffffffff160217905550808273ffffffffffffffffffffffffffffffffffffffff166114cb83610e8c565b73ffffffffffffffffffffffffffffffffffffffff167f8c5be1e5ebec7d5bd14f71427d1e84f3dd0314c0f7b2291e5b200ac8c7c3b92560405160405180910390a45050565b60008061151d83610e8c565b90508073ffffffffffffffffffffffffffffffffffffffff168473ffffffffffffffffffffffffffffffffffffffff16148061155f575061155e81856112f7565b5b8061159d57508373ffffffffffffffffffffffffffffffffffffffff166115858461072d565b73ffffffffffffffffffffffffffffffffffffffff16145b91505092915050565b8273ffffffffffffffffffffffffffffffffffffffff166115c682610e8c565b73ffffffffffffffffffffffffffffffffffffffff161461161c576040517f08c379a0000000000000000000000000000000000000000000000000000000008152600401611613906132e6565b60405180910390fd5b600073ffffffffffffffffffffffffffffffffffffffff168273ffffffffffffffffffffffffffffffffffffffff16141561168c576040517f08c379a000000000000000000000000000000000000000000000000000000000815260040161168390613346565b60405180910390fd5b6116998383836001611cb0565b8273ffffffffffffffffffffffffffffffffffffffff166116b982610e8c565b73ffffffffffffffffffffffffffffffffffffffff161461170f576040517f08c379a0000000000000000000000000000000000000000000000000000000008152600401611706906132e6565b60405180910390fd5b6004600082815260200190815260200160002060006101000a81549073ffffffffffffffffffffffffffffffffffffffff02191690556001600360008573ffffffffffffffffffffffffffffffffffffffff1673ffffffffffffffffffffffffffffffffffffffff168152602001908152602001600020600082825403925050819055506001600360008473ffffffffffffffffffffffffffffffffffffffff1673ffffffffffffffffffffffffffffffffffffffff16815260200190815260200160002060008282540192505081905550816002600083815260200190815260200160002060006101000a81548173ffffffffffffffffffffffffffffffffffffffff021916908373ffffffffffffffffffffffffffffffffffffffff160217905550808273ffffffffffffffffffffffffffffffffffffffff168473ffffffffffffffffffffffffffffffffffffffff167fddf252ad1be2c89b69c2b068fc378daa952ba7f163c4a11628f55a4df523b3ef60405160405180910390a461189b8383836001611cc2565b505050565b60006002600083815260200190815260200160002060009054906101000a900473ffffffffffffffffffffffffffffffffffffffff169050919050565b6000804442846040516020016118f593929190613183565b6040516020818303038152906040528051906020012060001c9050838161191c91906137f5565b915060008214156119375760028461193491906135ad565b91505b5092915050565b611958828260405180602001604052806000815250611cc8565b5050565b8173ffffffffffffffffffffffffffffffffffffffff168373ffffffffffffffffffffffffffffffffffffffff1614156119cb576040517f08c379a00000000000000000000000000000000000000000000000000000000081526004016119c290613366565b60405180910390fd5b80600560008573ffffffffffffffffffffffffffffffffffffffff1673ffffffffffffffffffffffffffffffffffffffff16815260200190815260200160002060008473ffffffffffffffffffffffffffffffffffffffff1673ffffffffffffffffffffffffffffffffffffffff16815260200190815260200160002060006101000a81548160ff0219169083151502179055508173ffffffffffffffffffffffffffffffffffffffff168373ffffffffffffffffffffffffffffffffffffffff167f17307eab39ab6107e8899845ad3d59bd9653f200f220920489ca2b5937696c3183604051611abc9190613249565b60405180910390a3505050565b611ad48484846115a6565b611ae084848484611d23565b611b1f576040517f08c379a0000000000000000000000000000000000000000000000000000000008152600401611b16906132c6565b60405180910390fd5b50505050565b6060611b3082611405565b6000611b3a611eba565b90506000815111611b5a5760405180602001604052806000815250611b85565b80611b6484611ed1565b604051602001611b7592919061315f565b6040516020818303038152906040525b915050919050565b60007f80ac58cd000000000000000000000000000000000000000000000000000000007bffffffffffffffffffffffffffffffffffffffffffffffffffffffff1916827bffffffffffffffffffffffffffffffffffffffffffffffffffffffff19161480611c5857507f5b5e139f000000000000000000000000000000000000000000000000000000007bffffffffffffffffffffffffffffffffffffffffffffffffffffffff1916827bffffffffffffffffffffffffffffffffffffffffffffffffffffffff1916145b80611c685750611c6782611ff5565b5b9050919050565b60008073ffffffffffffffffffffffffffffffffffffffff16611c91836118a0565b73ffffffffffffffffffffffffffffffffffffffff1614159050919050565b611cbc8484848461205f565b50505050565b50505050565b611cd283836121bf565b611cdf6000848484611d23565b611d1e576040517f08c379a0000000000000000000000000000000000000000000000000000000008152600401611d15906132c6565b60405180910390fd5b505050565b6000611d448473ffffffffffffffffffffffffffffffffffffffff166123dd565b15611ead578373ffffffffffffffffffffffffffffffffffffffff1663150b7a02611d6d611450565b8786866040518563ffffffff1660e01b8152600401611d8f94939291906131db565b602060405180830381600087803b158015611da957600080fd5b505af1925050508015611dda57506040513d601f19601f82011682018060405250810190611dd79190612cbe565b60015b611e5d573d8060008114611e0a576040519150601f19603f3d011682016040523d82523d6000602084013e611e0f565b606091505b50600081511415611e55576040517f08c379a0000000000000000000000000000000000000000000000000000000008152600401611e4c906132c6565b60405180910390fd5b805181602001fd5b63150b7a0260e01b7bffffffffffffffffffffffffffffffffffffffffffffffffffffffff1916817bffffffffffffffffffffffffffffffffffffffffffffffffffffffff191614915050611eb2565b600190505b949350505050565b606060405180602001604052806000815250905090565b606060006001611ee084612400565b01905060008167ffffffffffffffff811115611f25577f4e487b7100000000000000000000000000000000000000000000000000000000600052604160045260246000fd5b6040519080825280601f01601f191660200182016040528015611f575781602001600182028036833780820191505090505b509050600082602001820190505b600115611fea578080600190039150507f3031323334353637383961626364656600000000000000000000000000000000600a86061a8153600a8581611fd4577f4e487b7100000000000000000000000000000000000000000000000000000000600052601260045260246000fd5b0494506000851415611fe557611fea565b611f65565b819350505050919050565b60007f01ffc9a7000000000000000000000000000000000000000000000000000000007bffffffffffffffffffffffffffffffffffffffffffffffffffffffff1916827bffffffffffffffffffffffffffffffffffffffffffffffffffffffff1916149050919050565b61206b84848484612637565b60018111156120af576040517f08c379a00000000000000000000000000000000000000000000000000000000081526004016120a690613446565b60405180910390fd5b6000829050600073ffffffffffffffffffffffffffffffffffffffff168573ffffffffffffffffffffffffffffffffffffffff1614156120f7576120f28161263d565b612136565b8373ffffffffffffffffffffffffffffffffffffffff168573ffffffffffffffffffffffffffffffffffffffff1614612135576121348582612686565b5b5b600073ffffffffffffffffffffffffffffffffffffffff168473ffffffffffffffffffffffffffffffffffffffff16141561217957612174816127f3565b6121b8565b8473ffffffffffffffffffffffffffffffffffffffff168473ffffffffffffffffffffffffffffffffffffffff16146121b7576121b68482612936565b5b5b5050505050565b600073ffffffffffffffffffffffffffffffffffffffff168273ffffffffffffffffffffffffffffffffffffffff16141561222f576040517f08c379a0000000000000000000000000000000000000000000000000000000008152600401612226906133a6565b60405180910390fd5b61223881611c6f565b15612278576040517f08c379a000000000000000000000000000000000000000000000000000000000815260040161226f90613306565b60405180910390fd5b612286600083836001611cb0565b61228f81611c6f565b156122cf576040517f08c379a00000000000000000000000000000000000000000000000000000000081526004016122c690613306565b60405180910390fd5b6001600360008473ffffffffffffffffffffffffffffffffffffffff1673ffffffffffffffffffffffffffffffffffffffff16815260200190815260200160002060008282540192505081905550816002600083815260200190815260200160002060006101000a81548173ffffffffffffffffffffffffffffffffffffffff021916908373ffffffffffffffffffffffffffffffffffffffff160217905550808273ffffffffffffffffffffffffffffffffffffffff16600073ffffffffffffffffffffffffffffffffffffffff167fddf252ad1be2c89b69c2b068fc378daa952ba7f163c4a11628f55a4df523b3ef60405160405180910390a46123d9600083836001611cc2565b5050565b6000808273ffffffffffffffffffffffffffffffffffffffff163b119050919050565b600080600090507a184f03e93ff9f4daa797ed6e38ed64bf6a1f0100000000000000008310612484577a184f03e93ff9f4daa797ed6e38ed64bf6a1f010000000000000000838161247a577f4e487b7100000000000000000000000000000000000000000000000000000000600052601260045260246000fd5b0492506040810190505b6d04ee2d6d415b85acef810000000083106124e7576d04ee2d6d415b85acef810000000083816124dd577f4e487b7100000000000000000000000000000000000000000000000000000000600052601260045260246000fd5b0492506020810190505b662386f26fc10000831061253c57662386f26fc100008381612532577f4e487b7100000000000000000000000000000000000000000000000000000000600052601260045260246000fd5b0492506010810190505b6305f5e100831061258b576305f5e1008381612581577f4e487b7100000000000000000000000000000000000000000000000000000000600052601260045260246000fd5b0492506008810190505b61271083106125d65761271083816125cc577f4e487b7100000000000000000000000000000000000000000000000000000000600052601260045260246000fd5b0492506004810190505b6064831061261f5760648381612615577f4e487b7100000000000000000000000000000000000000000000000000000000600052601260045260246000fd5b0492506002810190505b600a831061262e576001810190505b80915050919050565b50505050565b6008805490506009600083815260200190815260200160002081905550600881908060018154018082558091505060019003906000526020600020016000909190919091505550565b6000600161269384610f18565b61269d91906135de565b9050600060076000848152602001908152602001600020549050818114612782576000600660008673ffffffffffffffffffffffffffffffffffffffff1673ffffffffffffffffffffffffffffffffffffffff168152602001908152602001600020600084815260200190815260200160002054905080600660008773ffffffffffffffffffffffffffffffffffffffff1673ffffffffffffffffffffffffffffffffffffffff168152602001908152602001600020600084815260200190815260200160002081905550816007600083815260200190815260200160002081905550505b6007600084815260200190815260200160002060009055600660008573ffffffffffffffffffffffffffffffffffffffff1673ffffffffffffffffffffffffffffffffffffffff16815260200190815260200160002060008381526020019081526020016000206000905550505050565b6000600160088054905061280791906135de565b905060006009600084815260200190815260200160002054905060006008838154811061285d577f4e487b7100000000000000000000000000000000000000000000000000000000600052603260045260246000fd5b9060005260206000200154905080600883815481106128a5577f4e487b7100000000000000000000000000000000000000000000000000000000600052603260045260246000fd5b90600052602060002001819055508160096000838152602001908152602001600020819055506009600085815260200190815260200160002060009055600880548061291a577f4e487b7100000000000000000000000000000000000000000000000000000000600052603160045260246000fd5b6001900381819060005260206000200160009055905550505050565b600061294183610f18565b905081600660008573ffffffffffffffffffffffffffffffffffffffff1673ffffffffffffffffffffffffffffffffffffffff168152602001908152602001600020600083815260200190815260200160002081905550806007600084815260200190815260200160002081905550505050565b60006129c86129c3846134cf565b6134aa565b9050828152602081018484840111156129e057600080fd5b6129eb848285613690565b509392505050565b6000612a06612a0184613500565b6134aa565b905082815260208101848484011115612a1e57600080fd5b612a29848285613690565b509392505050565b600081359050612a4081613d09565b92915050565b600081359050612a5581613d20565b92915050565b600081359050612a6a81613d37565b92915050565b600081519050612a7f81613d37565b92915050565b600082601f830112612a9657600080fd5b8135612aa68482602086016129b5565b91505092915050565b600082601f830112612ac057600080fd5b8135612ad08482602086016129f3565b91505092915050565b600081359050612ae881613d4e565b92915050565b600060208284031215612b0057600080fd5b6000612b0e84828501612a31565b91505092915050565b60008060408385031215612b2a57600080fd5b6000612b3885828601612a31565b9250506020612b4985828601612a31565b9150509250929050565b600080600060608486031215612b6857600080fd5b6000612b7686828701612a31565b9350506020612b8786828701612a31565b9250506040612b9886828701612ad9565b9150509250925092565b60008060008060808587031215612bb857600080fd5b6000612bc687828801612a31565b9450506020612bd787828801612a31565b9350506040612be887828801612ad9565b925050606085013567ffffffffffffffff811115612c0557600080fd5b612c1187828801612a85565b91505092959194509250565b60008060408385031215612c3057600080fd5b6000612c3e85828601612a31565b9250506020612c4f85828601612a46565b9150509250929050565b60008060408385031215612c6c57600080fd5b6000612c7a85828601612a31565b9250506020612c8b85828601612ad9565b9150509250929050565b600060208284031215612ca757600080fd5b6000612cb584828501612a5b565b91505092915050565b600060208284031215612cd057600080fd5b6000612cde84828501612a70565b91505092915050565b600060208284031215612cf957600080fd5b600082013567ffffffffffffffff811115612d1357600080fd5b612d1f84828501612aaf565b91505092915050565b600060208284031215612d3a57600080fd5b6000612d4884828501612ad9565b91505092915050565b600080600060608486031215612d6657600080fd5b6000612d7486828701612ad9565b9350506020612d8586828701612a31565b9250506040612d9686828701612a31565b9150509250925092565b6000612dac83836130fb565b60408301905092915050565b612dc181613612565b82525050565b612dd8612dd382613612565b6137c7565b82525050565b6000612de982613541565b612df3818561356f565b9350612dfe83613531565b8060005b83811015612e2f578151612e168882612da0565b9750612e2183613562565b925050600181019050612e02565b5085935050505092915050565b612e4581613624565b82525050565b6000612e568261354c565b612e608185613580565b9350612e7081856020860161369f565b612e79816138e2565b840191505092915050565b6000612e8f82613557565b612e998185613591565b9350612ea981856020860161369f565b612eb2816138e2565b840191505092915050565b6000612ec882613557565b612ed281856135a2565b9350612ee281856020860161369f565b80840191505092915050565b6000612efb602d83613591565b9150612f0682613900565b604082019050919050565b6000612f1e602b83613591565b9150612f298261394f565b604082019050919050565b6000612f41603283613591565b9150612f4c8261399e565b604082019050919050565b6000612f64602583613591565b9150612f6f826139ed565b604082019050919050565b6000612f87601c83613591565b9150612f9282613a3c565b602082019050919050565b6000612faa602983613591565b9150612fb582613a65565b604082019050919050565b6000612fcd602483613591565b9150612fd882613ab4565b604082019050919050565b6000612ff0601983613591565b9150612ffb82613b03565b602082019050919050565b6000613013602983613591565b915061301e82613b2c565b604082019050919050565b6000613036602083613591565b915061304182613b7b565b602082019050919050565b6000613059601883613591565b915061306482613ba4565b602082019050919050565b600061307c602183613591565b915061308782613bcd565b604082019050919050565b600061309f603d83613591565b91506130aa82613c1c565b604082019050919050565b60006130c2602c83613591565b91506130cd82613c6b565b604082019050919050565b60006130e5603583613591565b91506130f082613cba565b604082019050919050565b604082016000820151613111600085018261312a565b506020820151613124602085018261312a565b50505050565b61313381613686565b82525050565b61314281613686565b82525050565b61315961315482613686565b6137eb565b82525050565b600061316b8285612ebd565b91506131778284612ebd565b91508190509392505050565b600061318f8286613148565b60208201915061319f8285613148565b6020820191506131af8284612dc7565b601482019150819050949350505050565b60006020820190506131d56000830184612db8565b92915050565b60006080820190506131f06000830187612db8565b6131fd6020830186612db8565b61320a6040830185613139565b818103606083015261321c8184612e4b565b905095945050505050565b600060208201905081810360008301526132418184612dde565b905092915050565b600060208201905061325e6000830184612e3c565b92915050565b6000602082019050818103600083015261327e8184612e84565b905092915050565b6000602082019050818103600083015261329f81612eee565b9050919050565b600060208201905081810360008301526132bf81612f11565b9050919050565b600060208201905081810360008301526132df81612f34565b9050919050565b600060208201905081810360008301526132ff81612f57565b9050919050565b6000602082019050818103600083015261331f81612f7a565b9050919050565b6000602082019050818103600083015261333f81612f9d565b9050919050565b6000602082019050818103600083015261335f81612fc0565b9050919050565b6000602082019050818103600083015261337f81612fe3565b9050919050565b6000602082019050818103600083015261339f81613006565b9050919050565b600060208201905081810360008301526133bf81613029565b9050919050565b600060208201905081810360008301526133df8161304c565b9050919050565b600060208201905081810360008301526133ff8161306f565b9050919050565b6000602082019050818103600083015261341f81613092565b9050919050565b6000602082019050818103600083015261343f816130b5565b9050919050565b6000602082019050818103600083015261345f816130d8565b9050919050565b600060208201905061347b6000830184613139565b92915050565b60006040820190506134966000830185613139565b6134a36020830184613139565b9392505050565b60006134b46134c5565b90506134c08282613704565b919050565b6000604051905090565b600067ffffffffffffffff8211156134ea576134e96138b3565b5b6134f3826138e2565b9050602081019050919050565b600067ffffffffffffffff82111561351b5761351a6138b3565b5b613524826138e2565b9050602081019050919050565b6000819050602082019050919050565b600081519050919050565b600081519050919050565b600081519050919050565b6000602082019050919050565b600082825260208201905092915050565b600082825260208201905092915050565b600082825260208201905092915050565b600081905092915050565b60006135b882613686565b91506135c383613686565b9250826135d3576135d2613855565b5b828204905092915050565b60006135e982613686565b91506135f483613686565b92508282101561360757613606613826565b5b828203905092915050565b600061361d82613666565b9050919050565b60008115159050919050565b60007fffffffff0000000000000000000000000000000000000000000000000000000082169050919050565b6000819050919050565b600073ffffffffffffffffffffffffffffffffffffffff82169050919050565b6000819050919050565b82818337600083830152505050565b60005b838110156136bd5780820151818401526020810190506136a2565b838111156136cc576000848401525b50505050565b600060028204905060018216806136ea57607f821691505b602082108114156136fe576136fd613884565b5b50919050565b61370d826138e2565b810181811067ffffffffffffffff8211171561372c5761372b6138b3565b5b80604052505050565b60006137408261365c565b91507f7fffffffffffffffffffffffffffffffffffffffffffffffffffffffffffffff82141561377357613772613826565b5b600182019050919050565b600061378982613686565b91507fffffffffffffffffffffffffffffffffffffffffffffffffffffffffffffffff8214156137bc576137bb613826565b5b600182019050919050565b60006137d2826137d9565b9050919050565b60006137e4826138f3565b9050919050565b6000819050919050565b600061380082613686565b915061380b83613686565b92508261381b5761381a613855565b5b828206905092915050565b7f4e487b7100000000000000000000000000000000000000000000000000000000600052601160045260246000fd5b7f4e487b7100000000000000000000000000000000000000000000000000000000600052601260045260246000fd5b7f4e487b7100000000000000000000000000000000000000000000000000000000600052602260045260246000fd5b7f4e487b7100000000000000000000000000000000000000000000000000000000600052604160045260246000fd5b6000601f19601f8301169050919050565b60008160601b9050919050565b7f4552433732313a2063616c6c6572206973206e6f7420746f6b656e206f776e6560008201527f72206f7220617070726f76656400000000000000000000000000000000000000602082015250565b7f455243373231456e756d657261626c653a206f776e657220696e646578206f7560008201527f74206f6620626f756e6473000000000000000000000000000000000000000000602082015250565b7f4552433732313a207472616e7366657220746f206e6f6e20455243373231526560008201527f63656976657220696d706c656d656e7465720000000000000000000000000000602082015250565b7f4552433732313a207472616e736665722066726f6d20696e636f72726563742060008201527f6f776e6572000000000000000000000000000000000000000000000000000000602082015250565b7f4552433732313a20746f6b656e20616c7265616479206d696e74656400000000600082015250565b7f496e73756666696369656e7420455448202d2066696c6c20636f6e747261637460008201527f2077697468204554480000000000000000000000000000000000000000000000602082015250565b7f4552433732313a207472616e7366657220746f20746865207a65726f2061646460008201527f7265737300000000000000000000000000000000000000000000000000000000602082015250565b7f4552433732313a20617070726f766520746f2063616c6c657200000000000000600082015250565b7f4552433732313a2061646472657373207a65726f206973206e6f74206120766160008201527f6c6964206f776e65720000000000000000000000000000000000000000000000602082015250565b7f4552433732313a206d696e7420746f20746865207a65726f2061646472657373600082015250565b7f4552433732313a20696e76616c696420746f6b656e2049440000000000000000600082015250565b7f4552433732313a20617070726f76616c20746f2063757272656e74206f776e6560008201527f7200000000000000000000000000000000000000000000000000000000000000602082015250565b7f4552433732313a20617070726f76652063616c6c6572206973206e6f7420746f60008201527f6b656e206f776e6572206f7220617070726f76656420666f7220616c6c000000602082015250565b7f455243373231456e756d657261626c653a20676c6f62616c20696e646578206f60008201527f7574206f6620626f756e64730000000000000000000000000000000000000000602082015250565b7f455243373231456e756d657261626c653a20636f6e736563757469766520747260008201527f616e7366657273206e6f7420737570706f727465640000000000000000000000602082015250565b613d1281613612565b8114613d1d57600080fd5b50565b613d2981613624565b8114613d3457600080fd5b50565b613d4081613630565b8114613d4b57600080fd5b50565b613d5781613686565b8114613d6257600080fd5b5056fea2646970667358221220da048c46d9be0c65574c174e6896b084dc9104dadba9d487282aa7a38e194d7864736f6c63430008040033",
  "linkReferences": {},
  "deployedLinkReferences": {}
}