{
  "_format": "hh-sol-artifact-1",
  "contractName": "TradingCardMinter",
  "sourceName": "contracts/TradingCardMinter.sol",
  "abi": [
    {
      "inputs": [],
      "stateMutability": "payable",
      "type": "constructor"
    },
    {
      "anonymous": false,
      "inputs": [
        {
          "indexed": true,
          "internalType": "address",
          "name": "owner",
          "type": "address"
        },
        {
          "indexed": true,
          "internalType": "address",
          "name": "approved",
          "type": "address"
        },
        {
          "indexed": true,
          "internalType": "uint256",
          "name": "tokenId",
          "type": "uint256"
        }
      ],
      "name": "Approval",
      "type": "event"
    },
    {
      "anonymous": false,
      "inputs": [
        {
          "indexed": true,
          "internalType": "address",
          "name": "owner",
          "type": "address"
        },
        {
          "indexed": true,
          "internalType": "address",
          "name": "operator",
          "type": "address"
        },
        {
          "indexed": false,
          "internalType": "bool",
          "name": "approved",
          "type": "bool"
        }
      ],
      "name": "ApprovalForAll",
      "type": "event"
    },
    {
      "anonymous": false,
      "inputs": [
        {
          "indexed": true,
          "internalType": "address",
          "name": "from",
          "type": "address"
        },
        {
          "indexed": true,
          "internalType": "address",
          "name": "to",
          "type": "address"
        },
        {
          "indexed": true,
          "internalType": "uint256",
          "name": "tokenId",
          "type": "uint256"
        }
      ],
      "name": "Transfer",
      "type": "event"
    },
    {
      "inputs": [
        {
          "internalType": "address",
          "name": "to",
          "type": "address"
        },
        {
          "internalType": "uint256",
          "name": "tokenId",
          "type": "uint256"
        }
      ],
      "name": "approve",
      "outputs": [],
      "stateMutability": "nonpayable",
      "type": "function"
    },
    {
      "inputs": [
        {
          "internalType": "address",
          "name": "owner",
          "type": "address"
        }
      ],
      "name": "balanceOf",
      "outputs": [
        {
          "internalType": "uint256",
          "name": "",
          "type": "uint256"
        }
      ],
      "stateMutability": "view",
      "type": "function"
    },
    {
      "inputs": [
        {
          "internalType": "string",
          "name": "name",
          "type": "string"
        }
      ],
      "name": "buyCardPack",
      "outputs": [],
      "stateMutability": "payable",
      "type": "function"
    },
    {
      "inputs": [
        {
          "internalType": "uint256",
          "name": "",
          "type": "uint256"
        }
      ],
      "name": "cards",
      "outputs": [
        {
          "internalType": "string",
          "name": "name",
          "type": "string"
        },
        {
          "internalType": "uint256",
          "name": "cardId",
          "type": "uint256"
        },
        {
          "internalType": "uint256",
          "name": "attack",
          "type": "uint256"
        },
        {
          "internalType": "uint256",
          "name": "health",
          "type": "uint256"
        },
        {
          "internalType": "uint256",
          "name": "defense",
          "type": "uint256"
        },
        {
          "internalType": "string",
          "name": "rarity",
          "type": "string"
        }
      ],
      "stateMutability": "view",
      "type": "function"
    },
    {
      "inputs": [
        {
          "internalType": "uint256",
          "name": "tokenId",
          "type": "uint256"
        }
      ],
      "name": "getApproved",
      "outputs": [
        {
          "internalType": "address",
          "name": "",
          "type": "address"
        }
      ],
      "stateMutability": "view",
      "type": "function"
    },
    {
      "inputs": [
        {
          "internalType": "address",
          "name": "_address",
          "type": "address"
        }
      ],
      "name": "getCardsUnderOwner",
      "outputs": [
        {
          "components": [
            {
              "internalType": "string",
              "name": "name",
              "type": "string"
            },
            {
              "internalType": "uint256",
              "name": "cardId",
              "type": "uint256"
            },
            {
              "internalType": "uint256",
              "name": "attack",
              "type": "uint256"
            },
            {
              "internalType": "uint256",
              "name": "health",
              "type": "uint256"
            },
            {
              "internalType": "uint256",
              "name": "defense",
              "type": "uint256"
            },
            {
              "internalType": "string",
              "name": "rarity",
              "type": "string"
            }
          ],
          "internalType": "struct TradingCardMinter.Card[]",
          "name": "",
          "type": "tuple[]"
        }
      ],
      "stateMutability": "view",
      "type": "function"
    },
    {
      "inputs": [
        {
          "internalType": "address",
          "name": "owner",
          "type": "address"
        },
        {
          "internalType": "address",
          "name": "operator",
          "type": "address"
        }
      ],
      "name": "isApprovedForAll",
      "outputs": [
        {
          "internalType": "bool",
          "name": "",
          "type": "bool"
        }
      ],
      "stateMutability": "view",
      "type": "function"
    },
    {
      "inputs": [
        {
          "internalType": "string",
          "name": "_uri",
          "type": "string"
        }
      ],
      "name": "mint",
      "outputs": [],
      "stateMutability": "payable",
      "type": "function"
    },
    {
      "inputs": [],
      "name": "mintPrice",
      "outputs": [
        {
          "internalType": "uint256",
          "name": "",
          "type": "uint256"
        }
      ],
      "stateMutability": "view",
      "type": "function"
    },
    {
      "inputs": [],
      "name": "name",
      "outputs": [
        {
          "internalType": "string",
          "name": "",
          "type": "string"
        }
      ],
      "stateMutability": "view",
      "type": "function"
    },
    {
      "inputs": [
        {
          "internalType": "uint256",
          "name": "tokenId",
          "type": "uint256"
        }
      ],
      "name": "ownerOf",
      "outputs": [
        {
          "internalType": "address",
          "name": "",
          "type": "address"
        }
      ],
      "stateMutability": "view",
      "type": "function"
    },
    {
      "inputs": [
        {
          "internalType": "string",
          "name": "name",
          "type": "string"
        }
      ],
      "name": "requestNewCard",
      "outputs": [
        {
          "internalType": "uint256",
          "name": "",
          "type": "uint256"
        }
      ],
      "stateMutability": "payable",
      "type": "function"
    },
    {
      "inputs": [
        {
          "internalType": "address",
          "name": "from",
          "type": "address"
        },
        {
          "internalType": "address",
          "name": "to",
          "type": "address"
        },
        {
          "internalType": "uint256",
          "name": "tokenId",
          "type": "uint256"
        }
      ],
      "name": "safeTransferFrom",
      "outputs": [],
      "stateMutability": "nonpayable",
      "type": "function"
    },
    {
      "inputs": [
        {
          "internalType": "address",
          "name": "from",
          "type": "address"
        },
        {
          "internalType": "address",
          "name": "to",
          "type": "address"
        },
        {
          "internalType": "uint256",
          "name": "tokenId",
          "type": "uint256"
        },
        {
          "internalType": "bytes",
          "name": "data",
          "type": "bytes"
        }
      ],
      "name": "safeTransferFrom",
      "outputs": [],
      "stateMutability": "nonpayable",
      "type": "function"
    },
    {
      "inputs": [
        {
          "internalType": "address",
          "name": "operator",
          "type": "address"
        },
        {
          "internalType": "bool",
          "name": "approved",
          "type": "bool"
        }
      ],
      "name": "setApprovalForAll",
      "outputs": [],
      "stateMutability": "nonpayable",
      "type": "function"
    },
    {
      "inputs": [
        {
          "internalType": "bytes4",
          "name": "interfaceId",
          "type": "bytes4"
        }
      ],
      "name": "supportsInterface",
      "outputs": [
        {
          "internalType": "bool",
          "name": "",
          "type": "bool"
        }
      ],
      "stateMutability": "view",
      "type": "function"
    },
    {
      "inputs": [],
      "name": "symbol",
      "outputs": [
        {
          "internalType": "string",
          "name": "",
          "type": "string"
        }
      ],
      "stateMutability": "view",
      "type": "function"
    },
    {
      "inputs": [
        {
          "internalType": "uint256",
          "name": "index",
          "type": "uint256"
        }
      ],
      "name": "tokenByIndex",
      "outputs": [
        {
          "internalType": "uint256",
          "name": "",
          "type": "uint256"
        }
      ],
      "stateMutability": "view",
      "type": "function"
    },
    {
      "inputs": [
        {
          "internalType": "address",
          "name": "owner",
          "type": "address"
        },
        {
          "internalType": "uint256",
          "name": "index",
          "type": "uint256"
        }
      ],
      "name": "tokenOfOwnerByIndex",
      "outputs": [
        {
          "internalType": "uint256",
          "name": "",
          "type": "uint256"
        }
      ],
      "stateMutability": "view",
      "type": "function"
    },
    {
      "inputs": [
        {
          "internalType": "uint256",
          "name": "tokenId",
          "type": "uint256"
        }
      ],
      "name": "tokenURI",
      "outputs": [
        {
          "internalType": "string",
          "name": "",
          "type": "string"
        }
      ],
      "stateMutability": "view",
      "type": "function"
    },
    {
      "inputs": [],
      "name": "totalSupply",
      "outputs": [
        {
          "internalType": "uint256",
          "name": "",
          "type": "uint256"
        }
      ],
      "stateMutability": "view",
      "type": "function"
    },
    {
      "inputs": [
        {
          "internalType": "address",
          "name": "from",
          "type": "address"
        },
        {
          "internalType": "address",
          "name": "to",
          "type": "address"
        },
        {
          "internalType": "uint256",
          "name": "tokenId",
          "type": "uint256"
        }
      ],
      "name": "transferFrom",
      "outputs": [],
      "stateMutability": "nonpayable",
      "type": "function"
    },
    {
      "inputs": [
        {
          "internalType": "address",
          "name": "",
          "type": "address"
        },
        {
          "internalType": "uint256",
          "name": "",
          "type": "uint256"
        }
      ],
      "name": "userCards",
      "outputs": [
        {
          "internalType": "string",
          "name": "name",
          "type": "string"
        },
        {
          "internalType": "uint256",
          "name": "cardId",
          "type": "uint256"
        },
        {
          "internalType": "uint256",
          "name": "attack",
          "type": "uint256"
        },
        {
          "internalType": "uint256",
          "name": "health",
          "type": "uint256"
        },
        {
          "internalType": "uint256",
          "name": "defense",
          "type": "uint256"
        },
        {
          "internalType": "string",
          "name": "rarity",
          "type": "string"
        }
      ],
      "stateMutability": "view",
      "type": "function"
    }
  ],
  "bytecode": "0x608060405267016345785d8a0000600c556040518060400160405280601481526020017f4d65746176657273654d617968656d43617264730000000000000000000000008152506040518060400160405280600381526020017f4d4d540000000000000000000000000000000000000000000000000000000000815250816000908051906020019062000094929190620000b6565b508060019080519060200190620000ad929190620000b6565b505050620001cb565b828054620000c49062000166565b90600052602060002090601f016020900481019282620000e8576000855562000134565b82601f106200010357805160ff191683800117855562000134565b8280016001018555821562000134579182015b828111156200013357825182559160200191906001019062000116565b5b50905062000143919062000147565b5090565b5b808211156200016257600081600090555060010162000148565b5090565b600060028204905060018216806200017f57607f821691505b602082108114156200019657620001956200019c565b5b50919050565b7f4e487b7100000000000000000000000000000000000000000000000000000000600052602260045260246000fd5b613f2380620001db6000396000f3fe6080604052600436106101405760003560e01c80634f6ccce7116100b657806395d89b411161006f57806395d89b41146104bc578063a22cb465146104e7578063b88d4fde14610510578063c87b56dd14610539578063d85d3d2714610576578063e985e9c51461059257610140565b80634f6ccce71461037c5780636352211e146103b95780636817c76c146103f657806370a08231146104215780638dc107681461045e57806391bc8c9c146104a057610140565b8063172b6b6211610108578063172b6b621461025057806318160ddd1461029257806323b872dd146102bd5780632f745c59146102e65780633477b4081461032357806342842e0e1461035357610140565b806301ffc9a714610145578063041447561461018257806306fdde03146101bf578063081812fc146101ea578063095ea7b314610227575b600080fd5b34801561015157600080fd5b5061016c60048036038101906101679190612db1565b6105cf565b60405161017991906133c3565b60405180910390f35b34801561018e57600080fd5b506101a960048036038101906101a49190612c0a565b6105e1565b6040516101b691906133a1565b60405180910390f35b3480156101cb57600080fd5b506101d46107cb565b6040516101e191906133de565b60405180910390f35b3480156101f657600080fd5b50610211600480360381019061020c9190612e44565b61085d565b60405161021e919061333a565b60405180910390f35b34801561023357600080fd5b5061024e60048036038101906102499190612d75565b6108a3565b005b34801561025c57600080fd5b5061027760048036038101906102729190612d75565b6109bb565b60405161028996959493929190613400565b60405180910390f35b34801561029e57600080fd5b506102a7610b24565b6040516102b4919061364f565b60405180910390f35b3480156102c957600080fd5b506102e460048036038101906102df9190612c6f565b610b31565b005b3480156102f257600080fd5b5061030d60048036038101906103089190612d75565b610b91565b60405161031a919061364f565b60405180910390f35b61033d60048036038101906103389190612e03565b610c36565b60405161034a919061364f565b60405180910390f35b34801561035f57600080fd5b5061037a60048036038101906103759190612c6f565b610e71565b005b34801561038857600080fd5b506103a3600480360381019061039e9190612e44565b610e91565b6040516103b0919061364f565b60405180910390f35b3480156103c557600080fd5b506103e060048036038101906103db9190612e44565b610f28565b6040516103ed919061333a565b60405180910390f35b34801561040257600080fd5b5061040b610faf565b604051610418919061364f565b60405180910390f35b34801561042d57600080fd5b5061044860048036038101906104439190612c0a565b610fb4565b604051610455919061364f565b60405180910390f35b34801561046a57600080fd5b5061048560048036038101906104809190612e44565b61106c565b60405161049796959493929190613400565b60405180910390f35b6104ba60048036038101906104b59190612e03565b6111c8565b005b3480156104c857600080fd5b506104d161123a565b6040516104de91906133de565b60405180910390f35b3480156104f357600080fd5b5061050e60048036038101906105099190612d39565b6112cc565b005b34801561051c57600080fd5b5061053760048036038101906105329190612cbe565b6112e2565b005b34801561054557600080fd5b50610560600480360381019061055b9190612e44565b611344565b60405161056d91906133de565b60405180910390f35b610590600480360381019061058b9190612e03565b611356565b005b34801561059e57600080fd5b506105b960048036038101906105b49190612c33565b611370565b6040516105c691906133c3565b60405180910390f35b60006105da82611404565b9050919050565b6060600b60008373ffffffffffffffffffffffffffffffffffffffff1673ffffffffffffffffffffffffffffffffffffffff168152602001908152602001600020805480602002602001604051908101604052809291908181526020016000905b828210156107c057838290600052602060002090600602016040518060c0016040529081600082018054610675906138a3565b80601f01602080910402602001604051908101604052809291908181526020018280546106a1906138a3565b80156106ee5780601f106106c3576101008083540402835291602001916106ee565b820191906000526020600020905b8154815290600101906020018083116106d157829003601f168201915b505050505081526020016001820154815260200160028201548152602001600382015481526020016004820154815260200160058201805461072f906138a3565b80601f016020809104026020016040519081016040528092919081815260200182805461075b906138a3565b80156107a85780601f1061077d576101008083540402835291602001916107a8565b820191906000526020600020905b81548152906001019060200180831161078b57829003601f168201915b50505050508152505081526020019060010190610642565b505050509050919050565b6060600080546107da906138a3565b80601f0160208091040260200160405190810160405280929190818152602001828054610806906138a3565b80156108535780601f1061082857610100808354040283529160200191610853565b820191906000526020600020905b81548152906001019060200180831161083657829003601f168201915b5050505050905090565b60006108688261147e565b6004600083815260200190815260200160002060009054906101000a900473ffffffffffffffffffffffffffffffffffffffff169050919050565b60006108ae82610f28565b90508073ffffffffffffffffffffffffffffffffffffffff168373ffffffffffffffffffffffffffffffffffffffff16141561091f576040517f08c379a0000000000000000000000000000000000000000000000000000000008152600401610916906135cf565b60405180910390fd5b8073ffffffffffffffffffffffffffffffffffffffff1661093e6114c9565b73ffffffffffffffffffffffffffffffffffffffff16148061096d575061096c816109676114c9565b611370565b5b6109ac576040517f08c379a00000000000000000000000000000000000000000000000000000000081526004016109a3906135ef565b60405180910390fd5b6109b683836114d1565b505050565b600b60205281600052604060002081815481106109d757600080fd5b9060005260206000209060060201600091509150508060000180546109fb906138a3565b80601f0160208091040260200160405190810160405280929190818152602001828054610a27906138a3565b8015610a745780601f10610a4957610100808354040283529160200191610a74565b820191906000526020600020905b815481529060010190602001808311610a5757829003601f168201915b505050505090806001015490806002015490806003015490806004015490806005018054610aa1906138a3565b80601f0160208091040260200160405190810160405280929190818152602001828054610acd906138a3565b8015610b1a5780601f10610aef57610100808354040283529160200191610b1a565b820191906000526020600020905b815481529060010190602001808311610afd57829003601f168201915b5050505050905086565b6000600880549050905090565b610b42610b3c6114c9565b8261158a565b610b81576040517f08c379a0000000000000000000000000000000000000000000000000000000008152600401610b789061346f565b60405180910390fd5b610b8c83838361161f565b505050565b6000610b9c83610fb4565b8210610bdd576040517f08c379a0000000000000000000000000000000000000000000000000000000008152600401610bd49061348f565b60405180910390fd5b600660008473ffffffffffffffffffffffffffffffffffffffff1673ffffffffffffffffffffffffffffffffffffffff168152602001908152602001600020600083815260200190815260200160002054905092915050565b6000600c54471015610c7d576040517f08c379a0000000000000000000000000000000000000000000000000000000008152600401610c749061350f565b60405180910390fd5b6000600a8054905090506000610c94600533611919565b905060006040518060c001604052808681526020018381526020016000815260200160008152602001600081526020016040518060400160405280600681526020017f636f6d6d6f6e00000000000000000000000000000000000000000000000000008152508152509050600b60003373ffffffffffffffffffffffffffffffffffffffff1673ffffffffffffffffffffffffffffffffffffffff1681526020019081526020016000208190806001815401808255809150506001900390600052602060002090600602016000909190919091506000820151816000019080519060200190610d84929190612a2e565b506020820151816001015560408201518160020155606082015181600301556080820151816004015560a0820151816005019080519060200190610dc9929190612a2e565b505050600a8190806001815401808255809150506001900390600052602060002090600602016000909190919091506000820151816000019080519060200190610e14929190612a2e565b506020820151816001015560408201518160020155606082015181600301556080820151816004015560a0820151816005019080519060200190610e59929190612a2e565b505050610e66338461197a565b829350505050919050565b610e8c838383604051806020016040528060008152506112e2565b505050565b6000610e9b610b24565b8210610edc576040517f08c379a0000000000000000000000000000000000000000000000000000000008152600401610ed39061360f565b60405180910390fd5b60088281548110610f16577f4e487b7100000000000000000000000000000000000000000000000000000000600052603260045260246000fd5b90600052602060002001549050919050565b600080610f3483611998565b9050600073ffffffffffffffffffffffffffffffffffffffff168173ffffffffffffffffffffffffffffffffffffffff161415610fa6576040517f08c379a0000000000000000000000000000000000000000000000000000000008152600401610f9d906135af565b60405180910390fd5b80915050919050565b600081565b60008073ffffffffffffffffffffffffffffffffffffffff168273ffffffffffffffffffffffffffffffffffffffff161415611025576040517f08c379a000000000000000000000000000000000000000000000000000000000815260040161101c9061356f565b60405180910390fd5b600360008373ffffffffffffffffffffffffffffffffffffffff1673ffffffffffffffffffffffffffffffffffffffff168152602001908152602001600020549050919050565b600a818154811061107c57600080fd5b906000526020600020906006020160009150905080600001805461109f906138a3565b80601f01602080910402602001604051908101604052809291908181526020018280546110cb906138a3565b80156111185780601f106110ed57610100808354040283529160200191611118565b820191906000526020600020905b8154815290600101906020018083116110fb57829003601f168201915b505050505090806001015490806002015490806003015490806004015490806005018054611145906138a3565b80601f0160208091040260200160405190810160405280929190818152602001828054611171906138a3565b80156111be5780601f10611193576101008083540402835291602001916111be565b820191906000526020600020905b8154815290600101906020018083116111a157829003601f168201915b5050505050905086565b600c5447101561120d576040517f08c379a00000000000000000000000000000000000000000000000000000000081526004016112049061350f565b60405180910390fd5b60005b60058112156112365761122282610c36565b50808061122e90613906565b915050611210565b5050565b606060018054611249906138a3565b80601f0160208091040260200160405190810160405280929190818152602001828054611275906138a3565b80156112c25780601f10611297576101008083540402835291602001916112c2565b820191906000526020600020905b8154815290600101906020018083116112a557829003601f168201915b5050505050905090565b6112de6112d76114c9565b83836119d5565b5050565b6112f36112ed6114c9565b8361158a565b611332576040517f08c379a00000000000000000000000000000000000000000000000000000000081526004016113299061346f565b60405180910390fd5b61133e84848484611b42565b50505050565b606061134f82611b9e565b9050919050565b6000611360610b24565b905061136c338261197a565b5050565b6000600560008473ffffffffffffffffffffffffffffffffffffffff1673ffffffffffffffffffffffffffffffffffffffff16815260200190815260200160002060008373ffffffffffffffffffffffffffffffffffffffff1673ffffffffffffffffffffffffffffffffffffffff16815260200190815260200160002060009054906101000a900460ff16905092915050565b60007f780e9d63000000000000000000000000000000000000000000000000000000007bffffffffffffffffffffffffffffffffffffffffffffffffffffffff1916827bffffffffffffffffffffffffffffffffffffffffffffffffffffffff19161480611477575061147682611c06565b5b9050919050565b61148781611ce8565b6114c6576040517f08c379a00000000000000000000000000000000000000000000000000000000081526004016114bd906135af565b60405180910390fd5b50565b600033905090565b816004600083815260200190815260200160002060006101000a81548173ffffffffffffffffffffffffffffffffffffffff021916908373ffffffffffffffffffffffffffffffffffffffff160217905550808273ffffffffffffffffffffffffffffffffffffffff1661154483610f28565b73ffffffffffffffffffffffffffffffffffffffff167f8c5be1e5ebec7d5bd14f71427d1e84f3dd0314c0f7b2291e5b200ac8c7c3b92560405160405180910390a45050565b60008061159683610f28565b90508073ffffffffffffffffffffffffffffffffffffffff168473ffffffffffffffffffffffffffffffffffffffff1614806115d857506115d78185611370565b5b8061161657508373ffffffffffffffffffffffffffffffffffffffff166115fe8461085d565b73ffffffffffffffffffffffffffffffffffffffff16145b91505092915050565b8273ffffffffffffffffffffffffffffffffffffffff1661163f82610f28565b73ffffffffffffffffffffffffffffffffffffffff1614611695576040517f08c379a000000000000000000000000000000000000000000000000000000000815260040161168c906134cf565b60405180910390fd5b600073ffffffffffffffffffffffffffffffffffffffff168273ffffffffffffffffffffffffffffffffffffffff161415611705576040517f08c379a00000000000000000000000000000000000000000000000000000000081526004016116fc9061352f565b60405180910390fd5b6117128383836001611d29565b8273ffffffffffffffffffffffffffffffffffffffff1661173282610f28565b73ffffffffffffffffffffffffffffffffffffffff1614611788576040517f08c379a000000000000000000000000000000000000000000000000000000000815260040161177f906134cf565b60405180910390fd5b6004600082815260200190815260200160002060006101000a81549073ffffffffffffffffffffffffffffffffffffffff02191690556001600360008573ffffffffffffffffffffffffffffffffffffffff1673ffffffffffffffffffffffffffffffffffffffff168152602001908152602001600020600082825403925050819055506001600360008473ffffffffffffffffffffffffffffffffffffffff1673ffffffffffffffffffffffffffffffffffffffff16815260200190815260200160002060008282540192505081905550816002600083815260200190815260200160002060006101000a81548173ffffffffffffffffffffffffffffffffffffffff021916908373ffffffffffffffffffffffffffffffffffffffff160217905550808273ffffffffffffffffffffffffffffffffffffffff168473ffffffffffffffffffffffffffffffffffffffff167fddf252ad1be2c89b69c2b068fc378daa952ba7f163c4a11628f55a4df523b3ef60405160405180910390a46119148383836001611d3b565b505050565b600080444284604051602001611931939291906132fd565b6040516020818303038152906040528051906020012060001c90508381611958919061397d565b9150600082141561197357600284611970919061377e565b91505b5092915050565b611994828260405180602001604052806000815250611d41565b5050565b60006002600083815260200190815260200160002060009054906101000a900473ffffffffffffffffffffffffffffffffffffffff169050919050565b8173ffffffffffffffffffffffffffffffffffffffff168373ffffffffffffffffffffffffffffffffffffffff161415611a44576040517f08c379a0000000000000000000000000000000000000000000000000000000008152600401611a3b9061354f565b60405180910390fd5b80600560008573ffffffffffffffffffffffffffffffffffffffff1673ffffffffffffffffffffffffffffffffffffffff16815260200190815260200160002060008473ffffffffffffffffffffffffffffffffffffffff1673ffffffffffffffffffffffffffffffffffffffff16815260200190815260200160002060006101000a81548160ff0219169083151502179055508173ffffffffffffffffffffffffffffffffffffffff168373ffffffffffffffffffffffffffffffffffffffff167f17307eab39ab6107e8899845ad3d59bd9653f200f220920489ca2b5937696c3183604051611b3591906133c3565b60405180910390a3505050565b611b4d84848461161f565b611b5984848484611d9c565b611b98576040517f08c379a0000000000000000000000000000000000000000000000000000000008152600401611b8f906134af565b60405180910390fd5b50505050565b6060611ba98261147e565b6000611bb3611f33565b90506000815111611bd35760405180602001604052806000815250611bfe565b80611bdd84611f4a565b604051602001611bee9291906132d9565b6040516020818303038152906040525b915050919050565b60007f80ac58cd000000000000000000000000000000000000000000000000000000007bffffffffffffffffffffffffffffffffffffffffffffffffffffffff1916827bffffffffffffffffffffffffffffffffffffffffffffffffffffffff19161480611cd157507f5b5e139f000000000000000000000000000000000000000000000000000000007bffffffffffffffffffffffffffffffffffffffffffffffffffffffff1916827bffffffffffffffffffffffffffffffffffffffffffffffffffffffff1916145b80611ce15750611ce08261206e565b5b9050919050565b60008073ffffffffffffffffffffffffffffffffffffffff16611d0a83611998565b73ffffffffffffffffffffffffffffffffffffffff1614159050919050565b611d35848484846120d8565b50505050565b50505050565b611d4b8383612238565b611d586000848484611d9c565b611d97576040517f08c379a0000000000000000000000000000000000000000000000000000000008152600401611d8e906134af565b60405180910390fd5b505050565b6000611dbd8473ffffffffffffffffffffffffffffffffffffffff16612456565b15611f26578373ffffffffffffffffffffffffffffffffffffffff1663150b7a02611de66114c9565b8786866040518563ffffffff1660e01b8152600401611e089493929190613355565b602060405180830381600087803b158015611e2257600080fd5b505af1925050508015611e5357506040513d601f19601f82011682018060405250810190611e509190612dda565b60015b611ed6573d8060008114611e83576040519150601f19603f3d011682016040523d82523d6000602084013e611e88565b606091505b50600081511415611ece576040517f08c379a0000000000000000000000000000000000000000000000000000000008152600401611ec5906134af565b60405180910390fd5b805181602001fd5b63150b7a0260e01b7bffffffffffffffffffffffffffffffffffffffffffffffffffffffff1916817bffffffffffffffffffffffffffffffffffffffffffffffffffffffff191614915050611f2b565b600190505b949350505050565b606060405180602001604052806000815250905090565b606060006001611f5984612479565b01905060008167ffffffffffffffff811115611f9e577f4e487b7100000000000000000000000000000000000000000000000000000000600052604160045260246000fd5b6040519080825280601f01601f191660200182016040528015611fd05781602001600182028036833780820191505090505b509050600082602001820190505b600115612063578080600190039150507f3031323334353637383961626364656600000000000000000000000000000000600a86061a8153600a858161204d577f4e487b7100000000000000000000000000000000000000000000000000000000600052601260045260246000fd5b049450600085141561205e57612063565b611fde565b819350505050919050565b60007f01ffc9a7000000000000000000000000000000000000000000000000000000007bffffffffffffffffffffffffffffffffffffffffffffffffffffffff1916827bffffffffffffffffffffffffffffffffffffffffffffffffffffffff1916149050919050565b6120e4848484846126b0565b6001811115612128576040517f08c379a000000000000000000000000000000000000000000000000000000000815260040161211f9061362f565b60405180910390fd5b6000829050600073ffffffffffffffffffffffffffffffffffffffff168573ffffffffffffffffffffffffffffffffffffffff1614156121705761216b816126b6565b6121af565b8373ffffffffffffffffffffffffffffffffffffffff168573ffffffffffffffffffffffffffffffffffffffff16146121ae576121ad85826126ff565b5b5b600073ffffffffffffffffffffffffffffffffffffffff168473ffffffffffffffffffffffffffffffffffffffff1614156121f2576121ed8161286c565b612231565b8473ffffffffffffffffffffffffffffffffffffffff168473ffffffffffffffffffffffffffffffffffffffff16146122305761222f84826129af565b5b5b5050505050565b600073ffffffffffffffffffffffffffffffffffffffff168273ffffffffffffffffffffffffffffffffffffffff1614156122a8576040517f08c379a000000000000000000000000000000000000000000000000000000000815260040161229f9061358f565b60405180910390fd5b6122b181611ce8565b156122f1576040517f08c379a00000000000000000000000000000000000000000000000000000000081526004016122e8906134ef565b60405180910390fd5b6122ff600083836001611d29565b61230881611ce8565b15612348576040517f08c379a000000000000000000000000000000000000000000000000000000000815260040161233f906134ef565b60405180910390fd5b6001600360008473ffffffffffffffffffffffffffffffffffffffff1673ffffffffffffffffffffffffffffffffffffffff16815260200190815260200160002060008282540192505081905550816002600083815260200190815260200160002060006101000a81548173ffffffffffffffffffffffffffffffffffffffff021916908373ffffffffffffffffffffffffffffffffffffffff160217905550808273ffffffffffffffffffffffffffffffffffffffff16600073ffffffffffffffffffffffffffffffffffffffff167fddf252ad1be2c89b69c2b068fc378daa952ba7f163c4a11628f55a4df523b3ef60405160405180910390a4612452600083836001611d3b565b5050565b6000808273ffffffffffffffffffffffffffffffffffffffff163b119050919050565b600080600090507a184f03e93ff9f4daa797ed6e38ed64bf6a1f01000000000000000083106124fd577a184f03e93ff9f4daa797ed6e38ed64bf6a1f01000000000000000083816124f3577f4e487b7100000000000000000000000000000000000000000000000000000000600052601260045260246000fd5b0492506040810190505b6d04ee2d6d415b85acef81000000008310612560576d04ee2d6d415b85acef81000000008381612556577f4e487b7100000000000000000000000000000000000000000000000000000000600052601260045260246000fd5b0492506020810190505b662386f26fc1000083106125b557662386f26fc1000083816125ab577f4e487b7100000000000000000000000000000000000000000000000000000000600052601260045260246000fd5b0492506010810190505b6305f5e1008310612604576305f5e10083816125fa577f4e487b7100000000000000000000000000000000000000000000000000000000600052601260045260246000fd5b0492506008810190505b612710831061264f576127108381612645577f4e487b7100000000000000000000000000000000000000000000000000000000600052601260045260246000fd5b0492506004810190505b60648310612698576064838161268e577f4e487b7100000000000000000000000000000000000000000000000000000000600052601260045260246000fd5b0492506002810190505b600a83106126a7576001810190505b80915050919050565b50505050565b6008805490506009600083815260200190815260200160002081905550600881908060018154018082558091505060019003906000526020600020016000909190919091505550565b6000600161270c84610fb4565b61271691906137af565b90506000600760008481526020019081526020016000205490508181146127fb576000600660008673ffffffffffffffffffffffffffffffffffffffff1673ffffffffffffffffffffffffffffffffffffffff168152602001908152602001600020600084815260200190815260200160002054905080600660008773ffffffffffffffffffffffffffffffffffffffff1673ffffffffffffffffffffffffffffffffffffffff168152602001908152602001600020600084815260200190815260200160002081905550816007600083815260200190815260200160002081905550505b6007600084815260200190815260200160002060009055600660008573ffffffffffffffffffffffffffffffffffffffff1673ffffffffffffffffffffffffffffffffffffffff16815260200190815260200160002060008381526020019081526020016000206000905550505050565b6000600160088054905061288091906137af565b90506000600960008481526020019081526020016000205490506000600883815481106128d6577f4e487b7100000000000000000000000000000000000000000000000000000000600052603260045260246000fd5b90600052602060002001549050806008838154811061291e577f4e487b7100000000000000000000000000000000000000000000000000000000600052603260045260246000fd5b906000526020600020018190555081600960008381526020019081526020016000208190555060096000858152602001908152602001600020600090556008805480612993577f4e487b7100000000000000000000000000000000000000000000000000000000600052603160045260246000fd5b6001900381819060005260206000200160009055905550505050565b60006129ba83610fb4565b905081600660008573ffffffffffffffffffffffffffffffffffffffff1673ffffffffffffffffffffffffffffffffffffffff168152602001908152602001600020600083815260200190815260200160002081905550806007600084815260200190815260200160002081905550505050565b828054612a3a906138a3565b90600052602060002090601f016020900481019282612a5c5760008555612aa3565b82601f10612a7557805160ff1916838001178555612aa3565b82800160010185558215612aa3579182015b82811115612aa2578251825591602001919060010190612a87565b5b509050612ab09190612ab4565b5090565b5b80821115612acd576000816000905550600101612ab5565b5090565b6000612ae4612adf8461368f565b61366a565b905082815260208101848484011115612afc57600080fd5b612b07848285613861565b509392505050565b6000612b22612b1d846136c0565b61366a565b905082815260208101848484011115612b3a57600080fd5b612b45848285613861565b509392505050565b600081359050612b5c81613e91565b92915050565b600081359050612b7181613ea8565b92915050565b600081359050612b8681613ebf565b92915050565b600081519050612b9b81613ebf565b92915050565b600082601f830112612bb257600080fd5b8135612bc2848260208601612ad1565b91505092915050565b600082601f830112612bdc57600080fd5b8135612bec848260208601612b0f565b91505092915050565b600081359050612c0481613ed6565b92915050565b600060208284031215612c1c57600080fd5b6000612c2a84828501612b4d565b91505092915050565b60008060408385031215612c4657600080fd5b6000612c5485828601612b4d565b9250506020612c6585828601612b4d565b9150509250929050565b600080600060608486031215612c8457600080fd5b6000612c9286828701612b4d565b9350506020612ca386828701612b4d565b9250506040612cb486828701612bf5565b9150509250925092565b60008060008060808587031215612cd457600080fd5b6000612ce287828801612b4d565b9450506020612cf387828801612b4d565b9350506040612d0487828801612bf5565b925050606085013567ffffffffffffffff811115612d2157600080fd5b612d2d87828801612ba1565b91505092959194509250565b60008060408385031215612d4c57600080fd5b6000612d5a85828601612b4d565b9250506020612d6b85828601612b62565b9150509250929050565b60008060408385031215612d8857600080fd5b6000612d9685828601612b4d565b9250506020612da785828601612bf5565b9150509250929050565b600060208284031215612dc357600080fd5b6000612dd184828501612b77565b91505092915050565b600060208284031215612dec57600080fd5b6000612dfa84828501612b8c565b91505092915050565b600060208284031215612e1557600080fd5b600082013567ffffffffffffffff811115612e2f57600080fd5b612e3b84828501612bcb565b91505092915050565b600060208284031215612e5657600080fd5b6000612e6484828501612bf5565b91505092915050565b6000612e798383613214565b905092915050565b612e8a816137e3565b82525050565b612ea1612e9c826137e3565b61394f565b82525050565b6000612eb282613701565b612ebc818561372f565b935083602082028501612ece856136f1565b8060005b85811015612f0a5784840389528151612eeb8582612e6d565b9450612ef683613722565b925060208a01995050600181019050612ed2565b50829750879550505050505092915050565b612f25816137f5565b82525050565b6000612f368261370c565b612f408185613740565b9350612f50818560208601613870565b612f5981613a6a565b840191505092915050565b6000612f6f82613717565b612f798185613751565b9350612f89818560208601613870565b612f9281613a6a565b840191505092915050565b6000612fa882613717565b612fb28185613762565b9350612fc2818560208601613870565b612fcb81613a6a565b840191505092915050565b6000612fe182613717565b612feb8185613773565b9350612ffb818560208601613870565b80840191505092915050565b6000613014602d83613762565b915061301f82613a88565b604082019050919050565b6000613037602b83613762565b915061304282613ad7565b604082019050919050565b600061305a603283613762565b915061306582613b26565b604082019050919050565b600061307d602583613762565b915061308882613b75565b604082019050919050565b60006130a0601c83613762565b91506130ab82613bc4565b602082019050919050565b60006130c3602983613762565b91506130ce82613bed565b604082019050919050565b60006130e6602483613762565b91506130f182613c3c565b604082019050919050565b6000613109601983613762565b915061311482613c8b565b602082019050919050565b600061312c602983613762565b915061313782613cb4565b604082019050919050565b600061314f602083613762565b915061315a82613d03565b602082019050919050565b6000613172601883613762565b915061317d82613d2c565b602082019050919050565b6000613195602183613762565b91506131a082613d55565b604082019050919050565b60006131b8603d83613762565b91506131c382613da4565b604082019050919050565b60006131db602c83613762565b91506131e682613df3565b604082019050919050565b60006131fe603583613762565b915061320982613e42565b604082019050919050565b600060c08301600083015184820360008601526132318282612f64565b915050602083015161324660208601826132a4565b50604083015161325960408601826132a4565b50606083015161326c60608601826132a4565b50608083015161327f60808601826132a4565b5060a083015184820360a08601526132978282612f64565b9150508091505092915050565b6132ad81613857565b82525050565b6132bc81613857565b82525050565b6132d36132ce82613857565b613973565b82525050565b60006132e58285612fd6565b91506132f18284612fd6565b91508190509392505050565b600061330982866132c2565b60208201915061331982856132c2565b6020820191506133298284612e90565b601482019150819050949350505050565b600060208201905061334f6000830184612e81565b92915050565b600060808201905061336a6000830187612e81565b6133776020830186612e81565b61338460408301856132b3565b81810360608301526133968184612f2b565b905095945050505050565b600060208201905081810360008301526133bb8184612ea7565b905092915050565b60006020820190506133d86000830184612f1c565b92915050565b600060208201905081810360008301526133f88184612f9d565b905092915050565b600060c082019050818103600083015261341a8189612f9d565b905061342960208301886132b3565b61343660408301876132b3565b61344360608301866132b3565b61345060808301856132b3565b81810360a08301526134628184612f9d565b9050979650505050505050565b6000602082019050818103600083015261348881613007565b9050919050565b600060208201905081810360008301526134a88161302a565b9050919050565b600060208201905081810360008301526134c88161304d565b9050919050565b600060208201905081810360008301526134e881613070565b9050919050565b6000602082019050818103600083015261350881613093565b9050919050565b60006020820190508181036000830152613528816130b6565b9050919050565b60006020820190508181036000830152613548816130d9565b9050919050565b60006020820190508181036000830152613568816130fc565b9050919050565b600060208201905081810360008301526135888161311f565b9050919050565b600060208201905081810360008301526135a881613142565b9050919050565b600060208201905081810360008301526135c881613165565b9050919050565b600060208201905081810360008301526135e881613188565b9050919050565b60006020820190508181036000830152613608816131ab565b9050919050565b60006020820190508181036000830152613628816131ce565b9050919050565b60006020820190508181036000830152613648816131f1565b9050919050565b600060208201905061366460008301846132b3565b92915050565b6000613674613685565b905061368082826138d5565b919050565b6000604051905090565b600067ffffffffffffffff8211156136aa576136a9613a3b565b5b6136b382613a6a565b9050602081019050919050565b600067ffffffffffffffff8211156136db576136da613a3b565b5b6136e482613a6a565b9050602081019050919050565b6000819050602082019050919050565b600081519050919050565b600081519050919050565b600081519050919050565b6000602082019050919050565b600082825260208201905092915050565b600082825260208201905092915050565b600082825260208201905092915050565b600082825260208201905092915050565b600081905092915050565b600061378982613857565b915061379483613857565b9250826137a4576137a36139dd565b5b828204905092915050565b60006137ba82613857565b91506137c583613857565b9250828210156137d8576137d76139ae565b5b828203905092915050565b60006137ee82613837565b9050919050565b60008115159050919050565b60007fffffffff0000000000000000000000000000000000000000000000000000000082169050919050565b6000819050919050565b600073ffffffffffffffffffffffffffffffffffffffff82169050919050565b6000819050919050565b82818337600083830152505050565b60005b8381101561388e578082015181840152602081019050613873565b8381111561389d576000848401525b50505050565b600060028204905060018216806138bb57607f821691505b602082108114156138cf576138ce613a0c565b5b50919050565b6138de82613a6a565b810181811067ffffffffffffffff821117156138fd576138fc613a3b565b5b80604052505050565b60006139118261382d565b91507f7fffffffffffffffffffffffffffffffffffffffffffffffffffffffffffffff821415613944576139436139ae565b5b600182019050919050565b600061395a82613961565b9050919050565b600061396c82613a7b565b9050919050565b6000819050919050565b600061398882613857565b915061399383613857565b9250826139a3576139a26139dd565b5b828206905092915050565b7f4e487b7100000000000000000000000000000000000000000000000000000000600052601160045260246000fd5b7f4e487b7100000000000000000000000000000000000000000000000000000000600052601260045260246000fd5b7f4e487b7100000000000000000000000000000000000000000000000000000000600052602260045260246000fd5b7f4e487b7100000000000000000000000000000000000000000000000000000000600052604160045260246000fd5b6000601f19601f8301169050919050565b60008160601b9050919050565b7f4552433732313a2063616c6c6572206973206e6f7420746f6b656e206f776e6560008201527f72206f7220617070726f76656400000000000000000000000000000000000000602082015250565b7f455243373231456e756d657261626c653a206f776e657220696e646578206f7560008201527f74206f6620626f756e6473000000000000000000000000000000000000000000602082015250565b7f4552433732313a207472616e7366657220746f206e6f6e20455243373231526560008201527f63656976657220696d706c656d656e7465720000000000000000000000000000602082015250565b7f4552433732313a207472616e736665722066726f6d20696e636f72726563742060008201527f6f776e6572000000000000000000000000000000000000000000000000000000602082015250565b7f4552433732313a20746f6b656e20616c7265616479206d696e74656400000000600082015250565b7f496e73756666696369656e7420455448202d2066696c6c20636f6e747261637460008201527f2077697468204554480000000000000000000000000000000000000000000000602082015250565b7f4552433732313a207472616e7366657220746f20746865207a65726f2061646460008201527f7265737300000000000000000000000000000000000000000000000000000000602082015250565b7f4552433732313a20617070726f766520746f2063616c6c657200000000000000600082015250565b7f4552433732313a2061646472657373207a65726f206973206e6f74206120766160008201527f6c6964206f776e65720000000000000000000000000000000000000000000000602082015250565b7f4552433732313a206d696e7420746f20746865207a65726f2061646472657373600082015250565b7f4552433732313a20696e76616c696420746f6b656e2049440000000000000000600082015250565b7f4552433732313a20617070726f76616c20746f2063757272656e74206f776e6560008201527f7200000000000000000000000000000000000000000000000000000000000000602082015250565b7f4552433732313a20617070726f76652063616c6c6572206973206e6f7420746f60008201527f6b656e206f776e6572206f7220617070726f76656420666f7220616c6c000000602082015250565b7f455243373231456e756d657261626c653a20676c6f62616c20696e646578206f60008201527f7574206f6620626f756e64730000000000000000000000000000000000000000602082015250565b7f455243373231456e756d657261626c653a20636f6e736563757469766520747260008201527f616e7366657273206e6f7420737570706f727465640000000000000000000000602082015250565b613e9a816137e3565b8114613ea557600080fd5b50565b613eb1816137f5565b8114613ebc57600080fd5b50565b613ec881613801565b8114613ed357600080fd5b50565b613edf81613857565b8114613eea57600080fd5b5056fea264697066735822122043137a3edc8a778749f139d23ba9f0e119f3ecb6232f446bdac0d220b984e43f64736f6c63430008040033",
  "linkReferences": {},
  "deployedLinkReferences": {}
}